:100000000C9489000C94B1000C94B1000C94EE0B8C
:100010000C94EE0B0C94EE0B0C94B1000C94B1000C
:100020000C94B1000C94B1000C94B1000C94DA055E
:100030000C94B1000C94B1000C94B1000C94B1007C
:100040000C9428120C94B1000C9498120C94721217
:100050000C94B1000C94B1000C94B1000C94B1005C
:100060000C94D70F0C94B100BD04E204AB04FB0464
:100070001A05540542055405540554054C05CC0495
:10008000250A360A360A360A360A360A360A360A81
:10009000360A130A360A7A09360ACA09360A58098C
:1000A000FE08360A360A360A360A360ACA07360AF9
:1000B000A708360A440900000000240027002A008F
:1000C0000000000800020100000304070000000017
:1000D00000000000000000002300260029000000AE
:1000E0000000250028002B00040404040404040478
:1000F00002020202020203030303030301020408D3
:100100001020408001020408102001020408102081
:100110009B1911241FBECFEFD8E0DEBFCDBF12E088
:10012000A0E0B1E0E0E0FAE302C005900D92A03556
:10013000B107D9F725E0A0E5B2E001C01D92A03ECD
:10014000B207E1F710E0C9E8D0E004C02197FE0152
:100150000E94AF1BC838D107C9F70E949F150C94A5
:10016000FE1C0C9400008091DA0290E02091DB02EA
:10017000821B91090895089580E090E00895A82FCA
:10018000B0E0A056BD4F9C91292F30E0F901EE0F51
:10019000FF1F2E0F3F1FF901E357FA4FE081F0E0F8
:1001A0009F01220F331FE20FF31FE859FA4F80819E
:1001B0008F7B808380919E02981306C0992379F0EB
:1001C000915090939E020BC0882349F0E0919F02CA
:1001D000EF5FE0939F02F0E0E15BFD4F90838FEFD4
:1001E0008C930895CF92DF92EF92FF920F931F931B
:1001F000CF93DF937C01CB018A012091DB03222383
:1002000089F0EB016B01C40ED51ECC15DD0569F03C
:100210006991D701ED91FC910190F081E02DC7012A
:100220000995F3CF642F0E940511C801DF91CF918A
:100230001F910F91FF90EF90DF90CF900895CF9393
:10024000DF931F92CDB7DEB769832091DB032223B2
:10025000D1F02091FE03203240F021E030E0FC019B
:100260003383228380E090E015C08091DC03E82F87
:10027000F0E0E352FC4F998190838F5F8093DC0321
:100280008093FE0305C061E0CE0101960E94051136
:1002900081E090E00F90DF91CF910895DF92EF928F
:1002A000FF920F931F93CF93DF93EC01D62E7A0129
:1002B000890188818C3008F068C061E08D2D0E9432
:1002C00012158881E82FF0E09F01220F331FE20F03
:1002D000F31FE859FA4F9D2D9F732081207CD22E69
:1002E000D92AD08220E232E02E193F0937FF02C01E
:1002F0002D5F3F4F3595279535952795298320E626
:1003000039E0201B310B37FF02C02D5F3F4F359581
:100310002795359527952A836CE00E948F1B9CE0DA
:10032000899FB001112440E050E09B01240F351F4C
:10033000F901EE0FFF1F2E0F3F1FF901E859FA4F89
:10034000908196FD16C04F5F5F4F4C30510569F7A5
:1003500081110FC01092800082E080938100109282
:10036000850010928400B19A80916F008260809322
:100370006F00E881F0E0CF01880F991FE80FF91FA7
:10038000E859FA4F8081806480838881DF91CF9122
:100390001F910F91FF90EF90DF9008958F929F92A1
:1003A000AF92BF92CF92DF92EF92FF920F931F9383
:1003B000CF93DF93833008F084C0982F990F990F63
:1003C000990F58E0952E990E94E1991510F444E197
:1003D000942E8B01D82FC82ECC0CCC0CCC0CC0E0AA
:1003E000882483945B01BB24C91430F58EEF8C0DF7
:1003F0008231F8F44C2D50E0FA01E15EFA4F208191
:100400002230B8F4882D90E08A219B21DD24D394FA
:10041000009709F4D12C7A01EE0CFF1C213009F071
:1004200040C0C829F701ED5CFA4F8D2D90E0918313
:100430008083880CC394D8CFD11108C0F8946BB1D5
:1004400006270C7FC023C627CBB929C0D130D1F4F1
:100450000C23F89495B18C2F8F7380958923902F5E
:100460009F73892B85B998B1C295C695C695C370FF
:10047000C0958C2F89230295069506950370C02F91
:10048000C82B0CC0CF70F89488B16C2F660F660F24
:1004900060956823C023CC0FCC0FC62BC8B97894C5
:1004A00010C0892B09F4BECFF701ED5CFA4F8081B3
:1004B0009181019709F4B6CF62E08C2D0E9412154C
:1004C000B1CFDF91CF911F910F91FF90EF90DF900F
:1004D000CF90BF90AF909F908F9008958F929F92F2
:1004E000AF92BF92CF92DF92EF92FF920F931F9342
:1004F000CF93DF93EB01843108F00AC1082F10E09D
:10050000F801E15EFA4F9081933009F496C094307F
:1005100009F0FEC08250823108F087C0F801E05631
:10052000FD4FE080F12C6701CC0CDD1C603282E0D5
:1005300078070CF042C077FD05C0653B710524F4D7
:10054000DB0104C0A0E001C0A4EBB0E0F601EE0DB9
:10055000FF1DE357FA4F818128E830E04901881AEE
:10056000910887FD9394880C991C880C991C092C80
:10057000000CAA08BB08828128E532E0281B31095B
:1005800087FD3395220F331F220F331FA901330F2D
:10059000660B770B9A01AB01281939094A095B09E7
:1005A0000E94561B24EB30E040E050E00E942C1BE0
:1005B000820E931EA41EB51E01C04B01F601EE0D66
:1005C000FF1DE357FA4F20812C3078F5318188E800
:1005D00090E0831B910937FD9395880F991F880F31
:1005E000991F8816990684F0828148E552E0481BDD
:1005F000510987FD5395440F551F440F551FC401E2
:10060000481559050CF4CA010297880F991F4FB776
:10061000F89430E0F901EE0FFF1F2E0F3F1FF90194
:10062000E859FA4F928381834FBF000F111FF801E1
:10063000ED5CFA4FD183C0836BC07B01D82F833030
:1006400049F08BEF800F823028F087EF800F8330E6
:1006500008F057C061E08D2F0E941215E114F104DB
:1006600011F460E005C08FEFE816F10429F461E0B1
:100670008D2F0E94C51445C0F801E054FF4FE4914E
:10068000E330F9F048F4E130B9F0E230A1F584B597
:10069000806284BDE8BC35C0E730E9F0E83019F18C
:1006A000E43049F580918000806280938000F09270
:1006B0008B00E0928A0025C084B5806884BDE7BCC9
:1006C00020C080918000806880938000F092890033
:1006D000E092880016C08091B00080688093B000DE
:1006E000E092B3000EC08091B00080628093B000B1
:1006F000E092B40006C080E8E816F1040CF0B7CF31
:10070000B0CF000F111FF801ED5CFA4FF182E082CB
:10071000DF91CF911F910F91FF90EF90DF90CF90DD
:10072000BF90AF909F908F9008959EEF980F923159
:1007300080F4E82FF0E0DF01A15EBA4F9C91913088
:1007400041F4EE0FFF1FED5CFA4F608371830C9450
:10075000C5140895DB0190919E029C30A8F530915C
:100760009F02682F70E0332369F0E32FF0E0E15B34
:10077000FD4F8081FB01E056FD4F80833150309367
:100780009F0207C0FB01E056FD4F90839F5F90934F
:100790009E02FB01E056FD4F808190E09C01220FFC
:1007A000331F820F931F1A161B0634F414161506F6
:1007B0001CF49A01AD0104C020E639E040E252E0A9
:1007C00083579A4F0C944E018BE491E00C947B1369
:1007D000CF93863080F54091A5035091A60321E088
:1007E00030E0672B81F4B90102C0660F771F8A954C
:1007F000E2F7CB0180959095842395239093A603EF
:100800008093A50318C0082E02C0220F331F0A943C
:10081000E2F7242B352B3093A6032093A503909168
:10082000B802911108C0C82F0E944E15BC018C2F30
:10083000CF910C94CA12CF9108958F929F92BF923C
:10084000CF92DF92EF92FF920F931F93CF93DF939C
:10085000C82ED12CE601C456DB4FFE01ED57FF4FE9
:1008600090819F3709F44BC1963041F49091B702C3
:10087000992321F06630710509F025C17B01182FFD
:100880000EEF080F0231F8F464307105E1F0F60163
:10089000E056FD4F80818C30B0F490E0FC01EE0F0B
:1008A000FF1F8E0F9F1FFC01E357FA4F808190E0DE
:1008B000FC01EE0FFF1F8E0F9F1FFC01E859FA4F3E
:1008C000808186FD06C152EFB52EB10E85E08B15F5
:1008D00058F061E070E082E0E816F10411F060E0A9
:1008E00070E08B2D0E94E803023118F5E12FE695A8
:1008F000E695E695212F2770F0E0EB58FC4FE114C8
:10090000F10421F08BE0E816F10449F481E090E075
:1009100001C0880F2A95EAF79081892B09C081E0F0
:1009200090E001C0880F2A95EAF78095908189238D
:1009300080834601880C991CF401ED5CFA4F11820A
:1009400010828CE0E816F10408F0AEC0F701EC5C10
:10095000FF4F0C94AF1B85E08B1508F4D0C002311B
:1009600020F460E0812F0E941215CD57DF4F88815F
:100970008F3709F4C4C082E095C0023108F0BFC0CF
:1009800060E0812F0E941215CD57DF4F88818F378D
:1009900009F4B5C01882B3C0023108F0B0C062E0FB
:1009A000812F0E941215CD57DF4F88818F3711F0AC
:1009B0008BE08883F401ED5CFA4F81E090E0918355
:1009C00080839DC0023108F09AC0FE01ED57FF4FB1
:1009D0008081833021F460E0812F0E94C51461E0A2
:1009E000812F0E941215CD57DF4F88818F3709F470
:1009F00086C081E057C0133049F08BEF810F823001
:100A000028F087EF810F833008F079C061E0812FF3
:100A10000E94121561E0812F0E94121560E0812F63
:100A20000E94C514CD57DF4F88818F3709F467C006
:100A300083E038C0023108F062C0CD57DF4F8881B3
:100A40008F3711F084E08883F601E056FD4F8081F6
:100A50008F3F09F442C090E0FC01EE0FFF1F8E0FA4
:100A60009F1FFC01E357FA4F808190E0FC01EE0FDD
:100A7000FF1F8E0F9F1FFC01E859FA4F808186FDF2
:100A80003EC02BC012511230D0F5CD57DF4F8881B8
:100A90008F37A9F186E006C0CD57DF4F88818F37A9
:100AA00071F18AE088832BC08FE591E0DF91CF91CF
:100AB0001F910F91FF90EF90DF90CF90BF909F908C
:100AC0008F900C947B131092B7029FEF90930001CC
:100AD000D5CE812F0E94BF00F6CE4FEF5FEF6FEFB4
:100AE0007FEF812FDF91CF911F910F91FF90EF90BA
:100AF000DF90CF90BF909F908F900C94AA03DF91CE
:100B0000CF911F910F91FF90EF90DF90CF90BF900A
:100B10009F908F9008950F931F93CF93DF9381E061
:100B20008093B80281EB95E00E94810C8091B7021E
:100B3000882329F01092B7028FEF80930001109262
:100B40007803109275031092B402109279031092F8
:100B500076031092B50210927A03109277031092E6
:100B6000B60200EA12E0C0E0DFEF82EF8C0F8630C1
:100B700018F462E070E006C08EEF8C0F823128F42A
:100B800061E070E08C2F0E941D04F801D1938F0169
:100B9000CF5FC43151F71092A6031092A5031092B3
:100BA0009F0210929E021092B802DF91CF911F9186
:100BB0000F9108951F920F920FB60F9211242F9349
:100BC0003F934F935F936F937F938F939F93AF93D5
:100BD000BF93EF93FF938091B90287FF05C01092F6
:100BE0008500109284001BC02091B902022E000CD7
:100BF000330B80918C0590E02817390784F480919D
:100C0000B902082E000C990BFC01EE0FFF1F8E0F8E
:100C10009F1FFC01E859FA4F808186FD15C0809125
:100C2000B9028F5F8093B9022091B902022E000CA5
:100C3000330B80918C0590E028173907C4F480911C
:100C4000B9028C3064F113C08091B902082E000CF7
:100C5000990BFC01EE0FFF1F8E0F9F1FFC01E8593F
:100C6000FA4F808160E08F730E94C514D8CF8091C5
:100C7000840090918500049680349C4918F480E4A7
:100C80009CE905C080918400909185000496909322
:100C90008900809388008FEF8093B9023BC0209138
:100CA0008400309185008091B902082E000C990BC8
:100CB000FC01EE0FFF1F8E0F9F1FFC01E859FA4F3A
:100CC00081819281820F931F909389008093880085
:100CD0008091B902082E000C990BFC01EE0FFF1F4A
:100CE0008E0F9F1FFC01E859FA4F808186FF12C0CA
:100CF0008091B902082E000C990BFC01EE0FFF1F2A
:100D00008E0F9F1FFC01E859FA4F808161E08F73BD
:100D10000E94C514FF91EF91BF91AF919F918F9168
:100D20007F916F915F914F913F912F910F900FBEE7
:100D30000F901F901895FF920F931F93CF93DF93FF
:100D400000D0CDB7DEB7082F10E0F801EB58FC4F0C
:100D50009081F62EF9220C541D4F411104C0F80168
:100D60009081F91611F12F2D30E03A832983A0915B
:100D7000DC04B091DD041097B1F0682F6F706069EA
:100D8000ED91FC9111970190F081E02DCD01099535
:100D900022E030E0AE014F5F5F4F62E070E08CED2B
:100DA00094E00E94B90EF801F0820F900F90DF914D
:100DB000CF911F910F91FF900895833020F5282F38
:100DC00030E0F901E858FC4F6083672BE1F0F9014E
:100DD000EB58FC4F9081811103C069B16C7F0FC04B
:100DE000813049F463B136B16F7340E4349F9001B0
:100DF0001124622B04C066B16C73669566956923F5
:100E000041E00C949B060895EF92FF920F931F937D
:100E1000CF93DF93D82F8B01C42FF22E6F3F8FEF2C
:100E20007807F9F081E08093DB03D093FD03109203
:100E3000DC031092FE038CE595E00E941F018F2DCC
:100E40000E94871380919C0290919D0282309105AF
:100E500050F0880F991F880F991F05970197F1F798
:100E600002C000E010E08091DA038111FCCF9C2FDA
:100E7000C13208F090E281E08093DA038093D903D5
:100E80002FEF2093D8031092D703290F2093D60376
:100E90008093B5038091B5032D2F220F822B809371
:100EA000B5038091B403813061F41092B403809152
:100EB000B5038093BB008091BC0083FDF8CF85EC27
:100EC00001C085EE8093BC008091DA038130E1F3AC
:100ED0008091D703891710F49091D703E6EBF3E0E4
:100EE000AAEBB2E080E0891721F021912D938F5F6A
:100EF000FACF1092DB028093DA02EC2EF12C90E014
:100F0000E816F9061CF480E791E005C08E159F05F0
:100F100024F48DE891E00E947B13D0935C0200934F
:100F20005D020CE512E0C8018C5592408E159F05BC
:100F30007CF40F5F1F4F9091DA028091DB029817CB
:100F400039F08CE595E00E94B10BF8018183EBCF7D
:100F5000CE5F6C2F70E04CE552E087E7DF91CF91D8
:100F60001F910F91FF90EF900C942E13EF92FF9230
:100F70000F931F93CF93DF9390E0FC01E056F109AC
:100F8000EB31F10508F072C2EA01162FE05CFF4F69
:100F90000C94AF1B2981922F987125FF03C089EA19
:100FA00091E059C0888131E026FB222720F92327D0
:100FB000983061F160F4911159C23093DB03809352
:100FC000FD031092DC031092FE0302E006C0903194
:100FD000E1F1983109F46EC049C2011778F4FE01BD
:100FE000E00FF11D61816795662767958081680F25
:100FF0008CE595E00E941F010E5FEFCF81E00E941B
:10100000871383E191E00197F1F730C24B816A8148
:10101000163069F470E030E8439F600D711D1124B3
:101020004D814795442747959C81490F06C04795B8
:1010300044274795460F6FEF7FEFDF91CF911F91C8
:101040000F91FF90EF900C940407E0910001E730BE
:1010500054F089EC91E0DF91CF911F910F91FF90B7
:10106000EF900C947B139B813A81663071F4632F6F
:1010700070E0F0E89F9F600D711D11249D81979590
:10108000992797954C81940F06C097959927979526
:10109000930F6FEF7FEFEF5FE093000135E0E30226
:1010A000F0011124E358FC4F8083728361839383A2
:1010B0002483DCC12091000112163CF490E0622FE1
:1010C000022E000C770B35E00FC08FEF80930001EC
:1010D000CDC1349FF001359FF00D1124E358FC4F32
:1010E0004081841739F09F5F492F50E064177507DE
:1010F00084F790E085E022C09830F8F4FA01319648
:101100008E9FD0018F9FB00D1124A358BC4F3C91EE
:10111000849FF001859FF00D1124E358FC4F30832C
:1011200011964D915C9112975283418313963C9195
:101130001397338314963C9134839F5F492F50E07B
:1011400064177507CCF62150209300018FC16230DF
:1011500070F02981888190E0E0E82E9F800D911D3C
:101160001124009721F090939D0280939C0280911E
:10117000B70281117BC1C0E08EEE8C0F823028F463
:1011800066E070E08C2F0E941D04CF5FC431A1F790
:1011900081E08093B7021092DB021092DA02109283
:1011A000DC031092FE031092DA038093D9031092AD
:1011B000B40361E082E10E94C51461E083E10E9412
:1011C000C5148091B9008E7F8093B9008091B900D9
:1011D0008D7F8093B90088E48093B80085E4809384
:1011E000BC0080EA9BE09093DD028093DC0281EA00
:1011F0009BE09093DF028093DE0238C1653008F4F3
:1012000035C118818EEF810F823108F02FC109811D
:10121000EA80FB80CC81E12FF0E0E056FD4F808139
:101220008C30B0F490E0FC01EE0FFF1F8E0F9F1F7B
:10123000FC01E357FA4F808190E0FC01EE0FFF1FA5
:101240008E0F9F1FFC01E859FA4F808186FD0AC16D
:101250004F2D50E0F0E8CF9F400D511D1124602F1D
:1012600070E020E8E29E600D711D1124812F0E9424
:10127000AA0364E070E0812FDF91CF911F910F915D
:10128000FF90EF900C941D04623008F4EFC02981A8
:10129000888190E030E8239F800D911D11240097F4
:1012A00011F481E090E09093020180930101DEC08F
:1012B000623008F4DBC0698170E0123091F08A81FD
:1012C000E0E88E9FC0011124682B792B133049F080
:1012D0008B8190E090E4899F902D88271124682BC2
:1012E000792B8881DF91CF911F910F91FF90EF9023
:1012F0000C946E0280EF0E94E3138CE60E94E313CD
:10130000CEEF84EF8C0F863038F482E00E94E31336
:101310008AE00E94E31309C0C13039F483E00E94DF
:10132000E31388E00E94E31308C08DEF8C0F823036
:10133000A8F389EF8C0F833088F3C23130F484E056
:101340000E94E3138EE00E94E31380EF8C0F823043
:1013500030F486E00E94E31381E00E94E3138FE7FC
:101360000E94E313CF5FC23121F1C23150F680E019
:101370000E94E31381E00E94E3138BE00E94E313D9
:1013800081E00E94E31381E00E94E31381E00E9468
:10139000E313B7CF662309F469C0C88180EF0E94C8
:1013A000E3138EE60E94E3138C2F0E94E313C431F3
:1013B00048F087EFDF91CF911F910F91FF90EF9051
:1013C0000C94E313D0E0FE01E15EFA4F80810E94AD
:1013D000E313CC0FDD1F8E010D5C1A4FF8018081E5
:1013E0008F770E94E313F801808191819C0120781E
:1013F000232B39F0880F892F881F990B8F770E9434
:10140000E313CD5CDA4F888199819C012227307CDF
:10141000232B79F2990F880B990F982F881F8F77BC
:101420000E94E313C6CF80EF0E94E3138AE60E9476
:10143000E313C2EFC63010F48C2F01C08FE70E9477
:10144000E313CF5FC630B1F7B4CF9A01462F60E601
:1014500081EB95E0DF91CF911F910F91FF90EF907D
:101460000C949F0C812F0E94BF00F2CEDF91CF9190
:101470001F910F91FF90EF900895FC01918D228DA7
:10148000892F90E0805C9F4F821B91098F73992771
:10149000089580E090E0892B29F00E948A11811143
:1014A0000C940000089520917B0330917C03281751
:1014B000390771F49091640380916303981741F0A8
:1014C000E0916403F0E0ED5DFC4F808190E00895D1
:1014D0008FEF9FEF089508951F93CF93DF93DC0163
:1014E0005C968D919C915D97009739F421E030E0F6
:1014F00013963C932E9312973BC05196ED91FC911D
:10150000529750962C915097322F30951FB75E9678
:101510004C915E97742F727041FD6095F8944081F4
:10152000772311F0422B01C043234083EC01219724
:10153000F1F748E0508160FF02C0522B01C05323F5
:101540005083EC012197F1F76695415099F780811E
:10155000772319F08323808302C0282B20831FBFA9
:101560005C968D919C915D970197F1F781E090E0F9
:10157000DF91CF911F91089520917B0330917C03DF
:101580002817390771F4809163032091640390E078
:10159000805C9F4F821B910960E470E00E949B1B5E
:1015A000089580E090E0089520917B0330917C03C2
:1015B00028173907B9F49091640380916303981751
:1015C00089F0E0916403F0E0ED5DFC4F80812091B3
:1015D000640330E02F5F3F4F2F7333272093640362
:1015E00090E008958FEF9FEF0895E0917B03F091D5
:1015F0007C03E817F90769F4A389B4899C9185896C
:10160000809589238C9310927C0310927B0381E058
:10161000089580E00895CF93DF93EC018A8D9B8D30
:10162000892BF1F080917B0390917C03C817D90737
:10163000B9F0009711F00E94F50A8E8D8E7F8E8F83
:101640001092630310926403D0937C03C0937B03D6
:10165000EB89FC8990818D89892B808381E001C091
:1016600080E0DF91CF91089508954A30510551F4FB
:10167000E62FF0E0E15EFA4F80818F3729F08AE0B3
:10168000808302C080E0089581E00895E0917303B3
:10169000F0917403309709F009940895862F642F10
:1016A000E0917103F0917203309711F0A901099450
:1016B00008950895862FE0916903F0916A033097A9
:1016C00011F0BA0109940895862FE0916B03F0910F
:1016D0006C03309711F0BA0109940895862FE091B8
:1016E0006503F0916603309711F0BA0109940895EB
:1016F000862FE0916703F0916803309711F0BA01EB
:1017000009940895862FE0916D03F0916E03309750
:1017100011F0BA0109940895862FE0916F03F091BA
:101720007003309711F0BA010994089585ED809304
:10173000BC008091BC0084FDFCCF1092DA030895B8
:1017400008950895E091DB028091DA02E81730F401
:10175000F0E0E654FD4F808190E008958FEF9FEF19
:1017600008959091DB028091DA02981750F4E92FE6
:10177000F0E0E654FD4F208130E09F5F9093DB0264
:1017800002C02FEF3FEFC9010895009721F0805C60
:101790009F4F0C949B140895FC01848DDF01A80FCA
:1017A000B11DA35ABF4F2C91848D90E001968F7389
:1017B0009927848FA689B7892C93A089B1898C91A8
:1017C000837080648C93938D848D981306C00288F7
:1017D000F389E02D80818F7D808308951F920F9281
:1017E0000FB60F9211242F933F934F935F936F93F4
:1017F0007F938F939F93AF93BF93EF93FF93E0916A
:101800007B03F0917C03309709F451C0968DA68537
:10181000B785858591FF04C09C91892329F447C031
:101820009C91892309F043C0A389B4899C9185893F
:10183000809589238C93868997890197F1F7608D2C
:10184000718DA685B785558538E020E0CB010197DD
:10185000F1F7822F90E095958795282F4C9145239D
:1018600009F02068315091F7868D81FD2095809197
:10187000630390E001968F739927309164033817C2
:1018800049F0A0916303B0E0AD5DBC4F2C93809311
:10189000630303C0868D8160868F828D938D01974F
:1018A000F1F7A389B4899C918589892B8C93FF9149
:1018B000EF91BF91AF919F918F917F916F915F91C8
:1018C0004F913F912F910F900FBE0F901F90189541
:1018D000FC01693069F028F4683081F483A194A197
:1018E00008956A3041F06B3049F481A592A50895BE
:1018F00085A196A1089587A190A5089580E090E024
:1019000008951F93CF93DF93EC0118E0612FCE0170
:101910000E94680C009711F00E94611C1F5F1C3030
:10192000A9F78FEF8AA3FE013A96A296119211921F
:10193000EC17FD07D9F7DF91CF911F9108958F9292
:101940009F92AF92BF92DF92EF92FF920F931F93FD
:10195000CF93DF93EC01D901603609F0FBC18C9184
:10196000182F1F70807F803309F457C17901042F2D
:10197000813330F4803171F0803209F430C1ECC130
:10198000803609F4CEC1803709F4D9C1803509F019
:10199000E3C19AC1D90112968C901297912CA12C77
:1019A000B12CE7E0880C991CAA1CBB1CEA95D1F766
:1019B00013968C9190E0A0E0B0E0FEE0880F991FB4
:1019C000AA1FBB1FFA95D1F7882A992AAA2ABB2AEF
:1019D000F9018181882A183060F4612FCE010E94BC
:1019E000680C009709F4B8C1B501A4010E9438142D
:1019F000B3C1453068F00481D5801930F1F018F496
:101A0000183059F049C01A3041F11B30B1F144C0CF
:101A10008AED91E00E947B139DC18BA19CA1892B33
:101A2000D9F58FE190E00E94C91B7C014D2D602FFC
:101A30000E94C71AFCA2EBA22FC08DA19EA1892BE8
:101A400059F58FE190E00E94C91B7C014D2D602F5C
:101A50000E94C71AFEA2EDA21FC08FA198A5892BD4
:101A6000D9F48FE190E00E94C91B7C014D2D602FBD
:101A70000E94C71AF8A6EFA20FC089A59AA5892BC4
:101A800059F48FE190E00E94C91B7C014D2D602F1D
:101A90000E94C71AFAA6E9A6612FCE010E94680C1F
:101AA000EC01892B09F458C1E02FF0E0E15EFA4F18
:101AB00080818F3711F08AE08083ED2DF0E0E15EC8
:101AC000FA4F80818F3711F08AE080831B8E1A8E47
:101AD000198E188E1F8A1E8A60E079E08DE390E0EF
:101AE000A50194010E942C1BF9012430310518F046
:101AF000C901039702C081E090E09D8F8C8F6C85B7
:101B0000663108F06AC0C9019695879584319105C0
:101B100010F0439702C081E090E09F8B8E8B369748
:101B200018F0C901059702C081E090E0998F888F75
:101B3000C901880F991F280F391F369527953695AB
:101B400027952D30310518F02C50310902C021E0C5
:101B500030E03B8F2A8F30916800683058F021E0E8
:101B60006E3008F420E091E0892F01C0880F2A959B
:101B7000EAF701C084E0832B809368009C8598304D
:101B800038F09E3040F0963148F020E030E008C058
:101B90002DE630E005C02BE630E002C02CE630E058
:101BA0003C8B2B8B983030F481E001C0880F9A95E4
:101BB000EAF70EC0292F30E09E3018F42850310982
:101BC00002C02E50310981E001C0880F2A95EAF742
:101BD0008D8B8C8D9D8D0197F1F7CE01B8C0612F53
:101BE000CE010E94680C5C01892B09F4B5C0E701A5
:101BF00011E0101708F0B0C06A81679566276795F5
:101C00008981680FD501ED91FC910190F081E02D63
:101C1000C50109951E5F2296ECCF11968C91119704
:101C2000811126C08AA187300CF096C0612F70E028
:101C3000FB013596EE0FFF1FEC0FFD1F433070F0D8
:101C400013964C91139790E8499FA0011124129686
:101C50009C919A01292B3183208302C0118210822A
:101C60008F5F8AA3C80FD11D87FDDA951A8374C0D0
:101C7000813009F071C09AA1191634F480E0492F1F
:101C8000092E000C550B0AC08FEF8AA365C0FE0118
:101C9000E20FF31F2281121779F08F5F282F30E0B7
:101CA00042175307A4F780E007C0883020F4EC0FF8
:101CB000FD1F238122838F5FE82FF0E04E175F071F
:101CC000A4F791509AA348C0612FCE010E94680CDE
:101CD000EC01009709F440C01830E8F4E881F9817C
:101CE0000680F781E02D0995EA89FB8980818F7E46
:101CF0008083EA89FB898081877F8083EA89FB89E9
:101D000080818F778083EA89FB8980818F7D8083C2
:101D10008A8D898F21C00E94F50ACE010E94611C24
:101D20001BC0612FCE010E94680C0097A9F0DC0156
:101D3000ED91FC910680F781E02D09950DC01830DA
:101D400058F0612FCE010E94680C009729F00E9484
:101D50000B0B02C080E001C081E0DF91CF911F91A9
:101D60000F91FF90EF90DF90BF90AF909F908F907A
:101D700008953F924F925F926F927F928F929F92BF
:101D8000AF92BF92CF92DF92EF92FF920F931F9389
:101D9000CF93DF935C016901DA013C90232B19F4A6
:101DA000CC24CA94DC2C7A012A01460E571EC0E0CE
:101DB000D0E000E010E087E0682E712CE414F50418
:101DC00009F443C00C151D0508F067C04701F50173
:101DD00080819181D7016D917D010C2E01C0660F2C
:101DE0000A94EAF763296F77DC01ED91FC91019089
:101DF000F081E02D09950F5F1F4FF401608170E0C5
:101E0000C3018C1B9D0B02C0759567958A95E2F7FF
:101E1000362E2196C730D10588F2C016D10699F02A
:101E2000D5018D919C91632D6F77DC01ED91FC9133
:101E30000190F081E02D09950F5F1F4F331C332473
:101E4000331C2797E7CF8601B9CF209731F10C15C6
:101E50001D0518F5F5018081918161E070E001C0F8
:101E6000660FCA95EAF761506321DC01ED91FC91A0
:101E70000190F081E02DDF91CF911F910F91FF90A4
:101E8000EF90DF90CF90BF90AF909F908F907F901A
:101E90006F905F904F903F900994DF91CF911F9189
:101EA0000F91FF90EF90DF90CF90BF90AF909F90F9
:101EB0008F907F906F905F904F903F900895DF924A
:101EC000EF92FF920F931F93CF93DF93FC01E058A3
:101ED000FF4FD080DD2009F45DC0EC01C05CDF4F16
:101EE000A881B981109709F455C0FC01EF57FF4F45
:101EF00000811181F801F180E080ED91FC91119752
:101F00000190F081E02D60EFCD01099588819981E4
:101F1000DC01ED91FC910190F081E02D69E70995DC
:101F200088819981DC01ED91FC910190F081E02D97
:101F30006E2D099588819981DC01ED91FC910190CC
:101F4000F081E02D6F2D09957801B2E0EB0EF11CC8
:101F50000D0D111DE016F10661F020E030E0A70143
:101F600061E070E0CE010E94B90EEFEFEE1AFE0ABA
:101F7000F1CF88819981DC01ED91FC910190F08194
:101F8000E02D67EFDF91CF911F910F91FF90EF90C0
:101F9000DF900994DF91CF911F910F91FF90EF9007
:101FA000DF900895009711F00C945F0F08951F9231
:101FB0000F920FB60F9211242F933F934F935F937D
:101FC0006F937F938F939F93AF93BF93EF93FF9301
:101FD0008091B900887F803609F49CC068F588320A
:101FE00009F45BC090F4803109F454C038F48823BC
:101FF00009F4F6C0883009F44DC0F6C0883109F400
:102000004CC0803209F45DC0EFC0803409F468C070
:1020100048F4803309F455C0883309F0E5C0809353
:10202000D803D8C0803509F44FC0883509F45DC0A5
:10203000883409F0D9C0D6C0883909F4C7C0A8F4DB
:10204000883709F467C038F4883609F463C08037EC
:1020500009F460C0C9C0883809F4B8C0803909F4EF
:102060005FC0803809F0C0C05BC0803B09F486C007
:1020700038F4803A09F466C0883A09F47FC0B4C0E5
:10208000803C09F4A7C0883C09F4A4C0883B09F44B
:102090008AC0AAC08091B50310C09091D7038091E7
:1020A000D603981770F5E091D70381E08E0F8093E7
:1020B000D703F0E0EA54FC4F80818093BB0085ECAD
:1020C00086C08093D8038EC0E091D70381E08E0F45
:1020D0008093D7038091BB00F0E0EA54FC4F8083EB
:1020E0009091D7038091D6036EC0E091D70381E031
:1020F0008E0F8093D7038091BB00F0E0EA54FC4F31
:1021000080838091D90381116DC081E08093B403F5
:1021100084EA61C083E08093DA0310922203CFCF78
:1021200080912203803208F051C0E091220381E0C7
:102130008E0F809322038091BB00F0E0EE5FFC4F96
:102140008083BDCF85EC8093BC001092DA03809130
:102150002203803230F4E0912203F0E0EE5FFC4F86
:1021600010826091220370E0E091DE02F091DF02C4
:1021700082E093E009951092220336C084E08093B8
:10218000DA031092010310920003E091DC02F09157
:10219000DD02099580910003811105C081E08093E3
:1021A00000031092E002E091010381E08E0F809322
:1021B0000103F0E0E052FD4F80818093BB009091DD
:1021C000010380910003981708F479CF85E8809384
:1021D000BC000AC085EC8093BC001092DA0304C0F6
:1021E0001092D8030E94960BFF91EF91BF91AF918F
:1021F0009F918F917F916F915F914F913F912F911F
:102200000F900FBE0F901F90189540910003262F3E
:1022100030E0240F311D21323105DCF42091DA0346
:102220002430C9F4FC0180E090E0861758F4309126
:1022300000032191DC01A052BD4FA30FB11D2C93CF
:102240000196F3CF80910003680F6093000380E054
:10225000089581E0089582E00895CF92DF92EF9291
:10226000FF920F931F93CF93DF936C017A018B0141
:10227000C0E0D0E0CE15DF0581F0D8016D918D0171
:10228000D601ED91FC910190F081E02DC6010995F8
:10229000892B11F02196EECF7E01C701DF91CF91FE
:1022A0001F910F91FF90EF90DF90CF900895FC0168
:1022B000538D448D252F30E0842F90E0821B930BAB
:1022C000541710F0CF96089501970895FC01918D51
:1022D000828D981761F0828DDF01A80FB11D5D9688
:1022E0008C91928D9F5F9F73928F90E008958FEFF6
:1022F0009FEF0895FC01918D828D981731F0828DAA
:10230000E80FF11D858D90E008958FEF9FEF089500
:102310000E94EA1C8FEF93E00E943D0A21E0892B86
:1023200009F420E0822F0895EF92FF920F931F93FC
:10233000CF93DF93EC0181E0888F9B8D8C8D981378
:1023400005C0E889F989808185FD26C0F62E0B8DB0
:1023500010E00F5F1F4F0F731127E02E8C8DE812D6
:102360000CC00FB607FCFACFE889F989808185FF98
:10237000F5CFCE010E94CC0BF1CF8B8DFE01E80F83
:10238000F11DE35AFF4FF0829FB7F8940B8FEA8953
:10239000FB89808180620AC09FB7F894EE89FF892B
:1023A0006083E889F98980818370806480839FBF1E
:1023B00081E090E0DF91CF911F910F91FF90EF901E
:1023C0000895CF93DF93EC01888D8823C9F0EA89C3
:1023D000FB89808185FD05C0A889B9898C9186FD1E
:1023E0000FC00FB607FCF5CF808185FFF2CFA8891B
:1023F000B9898C9185FFEDCFCE010E94CC0BE7CF40
:10240000DF91CF9108953FB7F8948091B0039091F8
:10241000B103A091B203B091B30326B5A89B05C048
:102420002F3F19F00196A11DB11D3FBFBA2FA92F53
:10243000982F8827820F911DA11DB11DBC01CD01D0
:1024400042E0660F771F881F991F4A95D1F70895BC
:102450001F920F920FB60F9211242F933F938F93D9
:102460009F93AF93BF938091AC039091AD03A091E4
:10247000AE03B091AF033091AB0323E0230F2D37B0
:1024800020F40196A11DB11D05C026E8230F029678
:10249000A11DB11D2093AB038093AC039093AD03BA
:1024A000A093AE03B093AF038091B0039091B103BA
:1024B000A091B203B091B3030196A11DB11D809309
:1024C000B0039093B103A093B203B093B303BF9151
:1024D000AF919F918F913F912F910F900FBE0F90D1
:1024E0001F9018951F920F920FB60F9211242F93E1
:1024F0003F934F935F936F937F938F939F93AF938C
:10250000BF93EF93FF938FEF93E00E94CC0BFF916B
:10251000EF91BF91AF919F918F917F916F915F915B
:102520004F913F912F910F900FBE0F901F901895D4
:102530001F920F920FB60F9211242F938F939F9398
:10254000EF93FF93E0910F04F09110048081E091EC
:102550001504F091160482FD12C090818091180438
:102560008F5F8F7320911904821751F0E091180446
:10257000F0E0E150FC4F958F8093180401C08081FA
:10258000FF91EF919F918F912F910F900FBE0F9020
:102590001F9018951F93CF93DF9300D0CDB7DEB770
:1025A000182F7A8369838091DC049091DD04009771
:1025B00009F44EC0DC01ED91FC911031A8F46115D5
:1025C000704490F4612F606E0190F081E02D0995C8
:1025D00022E030E0AE014F5F5F4F62E070E08CEDD3
:1025E00094E00E94B90E34C00190F081E02D60EFBC
:1025F00009958091DC049091DD04DC01ED91FC9162
:102600000190F081E02D6FE609958091DC049091B6
:10261000DD04DC01ED91FC910190F081E02D612F52
:10262000099522E030E0AE014F5F5F4F62E070E05D
:102630008CED94E00E94B90E8091DC049091DD0451
:10264000DC01ED91FC910190F081E02D67EF09959F
:102650000F900F90DF91CF911F910895EF92FF920D
:102660000F931F93CF93DF93C82F8091DC04909139
:10267000DD040097C9F17A018B01DC01ED91FC9139
:102680000190F081E02D60EF09958091DC0490913C
:10269000DD04DC01ED91FC910190F081E02D6C2FC7
:1026A0000995E7010E0D1F1DC017D10759F020E055
:1026B00030E0AE0161E070E08CED94E00E94B90E74
:1026C0002196F2CF8091DC049091DD04DC01ED9144
:1026D000FC910190F081E02D67EFDF91CF911F9188
:1026E0000F91FF90EF900994DF91CF911F910F917F
:1026F000FF90EF900895FC0101900020E9F73197D9
:10270000BF01681B790BAC0181E70C942E13282FB5
:102710003091FE03313208F04AC08091DA03811112
:10272000FCCF9091FD0342E04093DA032093D9035C
:102730002FEF2093D8031092D7033093D603EDEDFB
:10274000F3E0A6EBB3E020E0321721F041914D9386
:102750002F5FFACF1092B5032091B503990F922BFA
:102760009093B5039091B403913061F41092B40347
:102770009091B5039093BB009091BC0093FDF8CF6E
:1027800095EC01C095EE9093BC009091DA039230E5
:10279000E1F39091D8039F3F79F08091D803803284
:1027A00041F08091D803803331F084E005C081E0AE
:1027B00003C082E001C083E01092DC031092FE03AC
:1027C0001092DB030895A0911A05B0911B05ED91BD
:1027D000FC9111970190F081E02D682FCD010994B3
:1027E0001F93CF93DF93182FEB018091E104909119
:1027F000E20468177907A8F0E0910E05F0910F0543
:1028000081E03097C1F08093DE048091FA049091CA
:10281000FB0409958091E1049091E204C817D9075F
:1028200048F48091DF049091E004C80FD91F188309
:1028300080E001C081E0DF91CF911F910895AC014C
:10284000FB0180E090E09C01220F331F2417350725
:1028500070F4DB012C91208311963C91379533273E
:102860003795232B219301966E5F7F4FECCF089510
:10287000CF92DF92EF92FF92CF93DF93EC016A0148
:102880007B01E889F98982E080834115514E610519
:102890007105B1F060E079E08DE390E0A701960169
:1028A0000E945E1BDA01C9010197A109B109B69521
:1028B000A795979587959C01211580E13807A8F089
:1028C000E889F989108260E874E88EE190E0A70158
:1028D00096010E945E1BDA01C9010197A109B109A5
:1028E000B695A795979587959C01EC85FD853083D6
:1028F000EE85FF852083188EEC89FD8986E0808334
:10290000EA89FB89808180618083EA89FB898081F3
:1029100088608083EA89FB89808180688083EA8976
:10292000FB8980818F7D8083DF91CF91FF90EF9035
:10293000DF90CF900895CF93DF93FC01A081B18108
:10294000109701F1EC01ED91FC9111970190F0814C
:10295000E02D69EFCD01099588819981DC01ED9128
:10296000FC910190F081E02D62E0099588819981C8
:10297000DC01ED91FC910190F081E02D65E0DF91AB
:10298000CF910994DF91CF91089590E0FC01E0543C
:10299000FF4F2491FC01E450FF4F3491FC01E851BA
:1029A000FF4FE491EE2309F43CC0222339F1233098
:1029B00091F038F42130A9F0223001F584B58F7DF3
:1029C00012C0273091F02830A1F02430B9F4809162
:1029D00080008F7D03C0809180008F77809380007E
:1029E0000DC084B58F7784BD09C08091B0008F770A
:1029F00003C08091B0008F7D8093B000F0E0EE0FB7
:102A0000FF1FE252FF4FA591B4919FB7F894611157
:102A100004C08C913095382302C0EC913E2B3C933E
:102A20009FBF0895CF93DF9390E0FC01E450FF4FE8
:102A30002491FC01E851FF4F8491882361F190E0DB
:102A4000880F991FFC01EA54FF4FC591D491FC01F6
:102A5000E252FF4FA591B491611109C09FB7F8945C
:102A60008881209582238883EC912E230BC06230CD
:102A700061F49FB7F8948881322F3095832388833F
:102A8000EC912E2B2C939FBF06C08FB7F894E88152
:102A90002E2B28838FBFDF91CF9108958E3008F0C1
:102AA0008E508770806480937C0080917A0080646F
:102AB00080937A0080917A0086FDFCCF8091780027
:102AC0002091790090E0922B08958F929F92AF927F
:102AD000BF92CF92DF92EF92FF926B017C010E9436
:102AE00003124B015C01C114D104E104F104F1F0C3
:102AF0000E940312DC01CB0188199909AA09BB09BC
:102B0000883E9340A105B10570F321E0C21AD108B7
:102B1000E108F10888EE880E83E0981EA11CB11C24
:102B2000C114D104E104F10419F7DDCFFF90EF9057
:102B3000DF90CF90BF90AF909F908F900895789442
:102B400084B5826084BD84B5816084BD85B58260B2
:102B500085BD85B5816085BD80916E008160809363
:102B60006E001092810080918100826080938100CC
:102B700080918100816080938100809180008160DC
:102B8000809380008091B10084608093B100809137
:102B9000B00081608093B00080917A00846080935F
:102BA0007A0080917A00826080937A0080917A0026
:102BB000816080937A0080917A00806880937A00A7
:102BC0001092C10089E180931C0580911D059091B0
:102BD0001E050E94611CC0911C05D0E0CE0101962B
:102BE0000E94C91B90931E0580931D05FC01EC0FEC
:102BF000FD1F108222E0DC012C9325E011962C931E
:102C0000AE014250510968E372E002960E94EF1C47
:102C10008EE692E09093700380936F038EEC91E0C8
:102C200090936E0380936D0388EE93E090936C0312
:102C300080936B038DED96E090936A038093690314
:102C40008DE194E0909368038093670385E993E0B6
:102C5000909366038093650386EB97E090937203ED
:102C6000809371038BE895E09093740380937303D2
:102C700081E080935B0540E051EE60E070E08FEF13
:102C800093E00E94381480915B05811140C061E09F
:102C90008DE00E941215C0E062ED70E080E090E0EF
:102CA0000E94651561E08DE00E94C51468E270E045
:102CB00080E090E00E94651560E08DE00E94C51400
:102CC000CF5FC23049F76AEF70E080E090E00E9489
:102CD0006515C0E062ED70E080E090E00E9465154F
:102CE00061E08DE00E94C51468E270E080E090E051
:102CF0000E94651560E08DE00E94C514CF5FC5306D
:102D000049F76DE770E080E090E00E9465158FEF75
:102D100093E090931B0580931A059093DD048093B4
:102D2000DC048CED94E00E949B148CE994E00E94FA
:102D30005F0F0E948B05DD24D39402E010E0EE24A7
:102D4000E394F12C35E0C32E80917803882349F079
:102D500069B18091750368236C7F40E080E00E9438
:102D60009B0680917903882381F083B196B1682F07
:102D70006F73B0E49B9FC0011124862B6091760392
:102D8000682340E081E00E949B0680917A038823BB
:102D900059F066B16C7366956695809177036823E8
:102DA00040E082E00E949B0680911A0590911B05ED
:102DB000DC01ED91FC910084F185E02D0995892BD2
:102DC00009F4CEC180911A0590911B05DC01ED91AB
:102DD000FC910284F385E02D09959C018F3FBFEFA4
:102DE0009B0711F3982F8091E704882309F492C080
:102DF000973F09F07EC01092E704A091DF04B091E4
:102E0000E0046C916137C1F1693709F05CC0E09171
:102E10001405F0911505309739F28091E8049091EE
:102E2000E9048330910538F420E030E040E050E0E0
:102E300060E070E01BC0BD016D5F7F4F03970E9493
:102E40001F14BC016D5F7F4F80E00E94F013E09182
:102E5000DF04F091E0049F012D5F3F4F428150E07D
:102E6000618170E0E0911405F09115058091F60400
:102E70009091F704099598CF8091100590911105D4
:102E8000892B09F491CFBD016F5F7F4F8091E804DA
:102E90009091E90401970E941F14BC016F5F7F4F5E
:102EA00080E00E94F0136091DF047091E0046F5F96
:102EB0007F4FE0911005F09111058091FC049091F5
:102EC000FD04099571CFE0911205F091130530973B
:102ED00009F46ACF9D012F5F3F4F4091E804509164
:102EE000E904415051098091FE049091FF04099535
:102EF0005BCF6091E8047091E904822F0E94F01387
:102F00008091E8049091E90401969093E9048093FC
:102F1000E8044ACF6091E5047091E60461157105FB
:102F200009F4AFC027FDADC0615071097093E6048C
:102F30006093E504822F0E94F0138091E504909144
:102F4000E604892B09F030CF8091E304882309F44B
:102F50002BCF803D09F47FC030F4803939F1803CBB
:102F600009F466C08BC0843FE1F1853F09F44DC090
:102F7000803E09F083C0E0910205F091030530978F
:102F800009F47CC0A091DF04B091E0048C9111960B
:102F90004C9150E020E8829F400D511D112460911A
:102FA000E4048091EA049091EB0467C0E091040589
:102FB000F0910505309709F461C0A091DF04B0914C
:102FC000E0048C9111964C9150E090E8899F400D5F
:102FD000511D11246091E4048091EC049091ED0462
:102FE0004CC0E0910A05F0910B05309709F446C0FA
:102FF000A091DF04B091E0044C9150E011966C91E7
:103000008091F2049091F30438C0E0910C05F091A6
:103010000D05309799F1A091DF04B091E0044C9137
:1030200050E011966C918091F4049091F50425C0C4
:10303000E0910605F0910705309701F1A091DF04BA
:10304000B091E0044C9150E06091E4048091EE0472
:103050009091EF0412C0E0910805F09109053097B6
:1030600069F0A091DF04B091E0044C9150E06091D0
:10307000E4048091F0049091F10409951092E30426
:1030800093CE903F30F4822F8F708093E404922F80
:10309000907F903F79F158F4903C29F118F49039E1
:1030A000E9F082CE903DF9F0903EC1F07DCE993F9F
:1030B00009F449C028F48CE0890F823078F074CE8E
:1030C0009F3F09F071CE1092E6041092E504109231
:1030D000E3041092E40480E090E013C01093E6044F
:1030E0000093E50404C0F092E604E092E5049093B6
:1030F000E3045ACED092E7041092E9041092E80457
:1031000053CE2091E1043091E2048217930748F4F2
:10311000E091DF04F091E004E80FF91F10820196BE
:10312000F0CF1092E7041092E9041092E804E091C5
:103130001805F0911905309709F436CE80910005F5
:10314000909101050BC0E0911605F091170530979D
:1031500009F42ACE8091F8049091F904099524CEBF
:103160008FB7F8944091AC035091AD036091AE03DA
:103170007091AF038FBF8090A7039090A803A09099
:10318000A903B090AA032091010130910201C90165
:10319000A0E0B0E0481959096A097B09841795072E
:1031A000A607B70708F04FC0880D991DAA1DBB1DC3
:1031B0008093A7039093A803A093A903B093AA03B5
:1031C0009FE1A92E95E0B92EC2EFC630B8F4D50123
:1031D0008C91823099F48091A5039091A6030C2ED6
:1031E00002C0959587950A94E2F780FF07C08C2F5F
:1031F0000E944E15BC018C2F0E94CA12CF5FBFEFF8
:10320000AB1ABB0AC63009F78091000187FD1BC0CD
:10321000C0E02C2F30E080910001082E000C990BAB
:103220008217930784F0C29EF001C39EF00D112413
:10323000E358FC4F618172812481438180810E9427
:103240000407CF5FE6CF8091D30587FD27C0812C8F
:10325000882D90E02091D305022E000C330B281707
:103260003907E4F0FC01EF54FA4F9280692D81EBAD
:1032700095E00E94680CEC01892B71F0E7E0E915FC
:1032800080F480917B0390917C03C817D90721F4C7
:1032900008C087EF0E94E3138394DACF0E94490AA3
:1032A00053CDE92DF0E0EE0FFF1FE554FA4FA0805B
:1032B000B180E881F9810084F185E02DCE01099586
:1032C000181619064CF780EF0E94E31380E60E945F
:1032D000E313892D80640E94E313A114B10411F15A
:1032E000E881F9810084F185E02DCE010995A816C9
:1032F000B906C4F41A141B0464F6E881F981028447
:10330000F385E02DCE010995982E8F770E94E31367
:10331000892D881F8827881F0E94E313F1E0AF1AC8
:10332000B108E8CFE881F9810084F185E02DCE0174
:1033300009955C01DFCF109202041092010448EE5F
:1033400053E060E070E04093030450930404609302
:103350000504709306048FE191E09093000480933C
:10336000FF0385EC90E090930C0480930B0484ECB5
:1033700090E090930E0480930D0480EC90E0909385
:10338000100480930F0481EC90E0909312048093DA
:10339000110482EC90E0909314048093130486EC63
:1033A00090E09093160480931504109218041092E4
:1033B000190410921A0410921B048CE994E01092E4
:1033C000DD041092DC049093E0048093DF0420E499
:1033D00030E03093E2042093E1041092E304109271
:1033E000E4041092E6041092E5041092E7041092AF
:1033F000E9041092E8041092EB041092EA0410928F
:10340000ED041092EC041092EF041092EE0410926E
:10341000F1041092F0041092F3041092F20410924E
:10342000F5041092F4041092FB041092FA04109226
:10343000FD041092FC041092FF041092FE041092FE
:1034400001051092000510920F0510920E051092C2
:10345000DE0410921C0510921E0510921D0510929C
:103460005B052CE83BE0309303052093020522E83E
:103470003BE0309305052093040524E63BE03093C0
:103480000705209306052AE53BE0309309052093C4
:10349000080528E73BE030930B0520930A052EE64C
:1034A0003BE030930D0520930C0529E53BE030937C
:1034B0001105209310052EE43BE030931305209373
:1034C000120522ED3FE030931505209314059093EB
:1034D000F7048093F60425EC3BE030931705209326
:1034E00016059093F9048093F80486E49BE090938A
:1034F00019058093180510925F0510925E054093A0
:10350000600550936105609362057093630581E3E4
:1035100091E090935D0580935C0583E491E0909346
:10352000B2058093B1051092D5051092D405109282
:10353000D7051092D6051092D9051092D805109291
:10354000DB051092DA058FEF8093D30580918C050F
:10355000ADE8B5E09FEF48EB5BE08C3078F48C93FE
:10356000282F30E0F901EE0FFF1F2E0F3F1FF9014A
:10357000E859FA4F528341838F5F01C09C931396A1
:1035800025E0A13BB20749F780938C0508950F937E
:103590001F93CF93DF93EC01162F042F1B821A8207
:1035A00088EE93E0A0E0B0E08C839D83AE83BF8380
:1035B0008DE091E0998388831F8A1E8A198E188E68
:1035C0001B8E1A8E1D8E1C8E6E8D6E7F6D7F6E8F84
:1035D0006695617081E06827842F0E94C51461E0C0
:1035E000802F0E941215802F90E0FC01E450FF4FC5
:1035F000E491E88BFC01E851FF4FE491F0E0EE0F1D
:10360000FF1FE252FF4F859194919A8B898B60E066
:10361000812F0E9412158E8D81FD04C061E0812FE3
:103620000E94C5141C87812F90E0FC01E450FF4FDD
:10363000E491ED87FC01E851FF4FE491F0E0EE0FDB
:10364000FF1FEC52FF4F859194919F878E87DF91EA
:10365000CF911F910F910895052E97FB1EF40094B2
:103660000E94431B57FD07D00E945E1B07FC03D03E
:103670004EF40C94431B50954095309521953F4F47
:103680004F4F5F4F089590958095709561957F4F4E
:103690008F4F9F4F08950E94801BA59F900DB49F50
:1036A000900DA49F800D911D11240895B7FF0C94D7
:1036B0004B1B0E944B1B821B930B0895A1E21A2EF9
:1036C000AA1BBB1BFD010DC0AA1FBB1FEE1FFF1FC6
:1036D000A217B307E407F50720F0A21BB30BE40B16
:1036E000F50B661F771F881F991F1A9469F760955D
:1036F0007095809590959B01AC01BD01CF01089517
:10370000A29FB001B39FC001A39F700D811D112422
:10371000911DB29F700D811D1124911D0895991B5B
:1037200079E004C0991F961708F0961B881F7A95B8
:10373000C9F78095089597FB072E16F4009407D0DB
:1037400077FD09D00E94B51B07FC05D03EF490958B
:1037500081959F4F0895709561957F4F0895EE0F65
:10376000FF1F0590F491E02D0994AA1BBB1B51E1AA
:1037700007C0AA1FBB1FA617B70710F0A61BB70BE1
:10378000881F991F5A95A9F780959095BC01CD0186
:1037900008950F931F93CF93DF938230910510F418
:1037A00082E090E0E091DE05F091DF0520E030E07E
:1037B000A0E0B0E0309719F140815181028113817E
:1037C00048175907C8F08417950769F4109731F026
:1037D00012960C93129713961C9327C00093DE0544
:1037E0001093DF0522C02115310519F04217530748
:1037F00018F49A01BD01EF01DF01F801DBCF2115BB
:103800003105F9F0281B390B2430310580F48A8109
:103810009B816115710521F0FB019383828304C0B4
:103820009093DF058093DE05FE01329644C0FE01D1
:10383000E20FF31F8193919322503109398328833A
:103840003AC02091DC053091DD05232B41F4209115
:103850000501309106013093DD052093DC052091B0
:103860000301309104012115310541F42DB73EB714
:103870004091070150910801241B350BE091DC05B4
:10388000F091DD05E217F307A0F42E1B3F0B28177C
:10389000390778F0AC014E5F5F4F2417350748F0C9
:1038A0004E0F5F1F5093DD054093DC05819391938C
:1038B00002C0E0E0F0E0CF01DF91CF911F910F91C6
:1038C0000895CF93DF93009709F481C0FC013297EC
:1038D00013821282A091DE05B091DF05109781F46A
:1038E00020813181820F931F2091DC053091DD050D
:1038F0002817390751F5F093DD05E093DC0567C023
:10390000ED0120E030E0CE17DF0740F44A815B8113
:103910009E0141155105F1F0EA01F5CFD383C28331
:1039200040815181840F951FC817D90759F48881A8
:103930009981840F951F0296918380838A819B8150
:10394000938382832115310529F4F093DF05E093F9
:10395000DE053DC0E901FB83EA8349915991C40F1B
:10396000D51FEC17FD0761F480819181840F951FAD
:103970000296E90199838883828193819B838A835C
:10398000E0E0F0E012968D919C911397009719F06A
:10399000FD01DC01F7CF8D919C9111979D012E5F68
:1039A0003F4F820F931F2091DC053091DD052817D2
:1039B000390769F4309729F41092DF051092DE057B
:1039C00002C013821282B093DD05A093DC05DF9163
:1039D000CF91089581E090E0F8940C94FE1CFB01D7
:1039E000DC014150504048F001900D920020C9F791
:1039F00001C01D9241505040E0F70895F894FFCF68
:103A0000FF13000000E0058000000000006C0A2D9C
:103A100011BC006B0ABC0AD40A530A0000000094CF
:103A2000112D115711E1113D0A66117A11000000A4
:103A3000001F01F200BC006B0AB300B10BA20B0027
:103A4000000000340B350B9F0C810C4D6178207306
:103A50006572766F73206174746163686564005584
:103A60006E6B6E6F776E2070696E206D6F6465008F
:103A70004932433A20546F6F206D616E792062792C
:103A800074657320726563656976656400493243C5
:103A90003A20546F6F2066657720627974657320D1
:103AA00072656365697665640031302D62697420E2
:103AB00061646472657373696E67206E6F742073DE
:103AC0007570706F7274656400746F6F206D616ED5
:103AD00079207175657269657300537065636966F5
:103AE000792073657269616C20525820616E642080
:103AF00054582070696E73002F55736572732F6D63
:103B00007061657363686B652F446F63756D656E77
:103B100074732F41726475696E6F2F736B65746374
:103B20006865732F5374616E646172644669726D67
:103B3000617461506C75732F5374616E646172644B
:103B40004669726D617461506C75732E696E6F0099
:00000001FF
