:100000000C9420010C9448010C9448010C94480174
:100010000C9448010C9448010C9448010C9448013C
:100020000C9448010C946A020C94600B0C94D20B53
:100030000C9448010C9448010C9448010C9448011C
:100040000C9448010C94A2160C9448010C9448019D
:100050000C9448010C9448010C9448010C94BE1B6C
:100060000C9448010C94360E0C94100E0C9448011C
:100070000C9448010C9448010C9448010C944801DC
:100080000C9448010C9448010C9448010C944801CC
:100090000C94C5060C9448010C9448010C9448013A
:1000A0000C9448010C9448010C944801800E830E76
:1000B000720E760E7C0EA40EA40EA40E870E8B0E6E
:1000C0008F0E950E990EA40E9F0E58156915691581
:1000D0006915691569156915691569154615691553
:1000E000A91469150515691587142F146915691563
:1000F000691569156915FD126915DA136915731407
:100100004A184F1854185E186818B218B218B21866
:1001100072187C18861890189D18B218A518CF1A56
:10012000F41AC01A0D1B2E1B671B551B671B671B80
:10013000671B5F1BDE1A080B0002020201000904A4
:100140000000010202000005240010010524010145
:10015000010424020605240600010705810310009E
:100160004009040100020A000000070502024000E5
:100170000007058302400000040309041201000285
:10018000EF02014041233680000101020301417268
:100190006475696E6F204C4C430041726475696EE2
:1001A0006F204C656F6E6172646F00070605040175
:1001B00000080A0B0C0D0900000000240027002A8B
:1001C000002D0030000000000200090F00000304B1
:1001D00001000C0000000000000000000000000012
:1001E00000000000000000002300260029002C0071
:1001F0002F0000000000250028002B002E003100F9
:1002000004040404040304050202020204030202BB
:10021000020206060606060604040202020404049C
:1002200008020110408040102040804080080204F5
:1002300001804020100201108010204040204D21FC
:1002400011241FBECFEFDAE0DEBFCDBF12E0A0E089
:10025000B1E0E4E9F9E402C005900D92A436B107DB
:10026000D9F726E0A4E6B2E001C01D92A538B20796
:10027000E1F711E0C0E2D1E004C02197FE010E9445
:100280007923CF31D107C9F70E94081C0C94C824E8
:100290000C94000020917E0230917F0228173907CC
:1002A00071F4809157032091580390E0805C9F4F38
:1002B000821B910960E470E00E946523089580E04C
:1002C00090E0089520917E0230917F02281739072F
:1002D000B9F49091580380915703981789F0E091F1
:1002E0005803F0E0E95EFC4F80812091580330E034
:1002F0002F5F3F4F2F7333272093580390E00895CB
:100300008FEF9FEF0895E0917E02F0917F02E81752
:10031000F90769F4A389B4899C918589809589231B
:100320008C9310927F0210927E0281E0089580E00B
:100330000895CF93DF93EC018A8D9B8D892BF1F08B
:1003400080917E0290917F02C817D907B9F000977B
:1003500011F00E9483018E8D8E7F8E8F1092570335
:1003600010925803D0937F02C0937E02EB89FC89E0
:1003700090818D89892B808381E001C080E0DF91AD
:10038000CF9108954A30510551F4E62FF0E0E45E34
:10039000FA4F80818F3729F08AE0808302C080E0A5
:1003A000089581E00895E0917402F091750230970C
:1003B00009F009940895862F642FE0917202F0915C
:1003C0007302309711F0A901099408950895862FBA
:1003D000E0916A02F0916B02309711F0BA01099432
:1003E0000895862FE0916C02F0916D02309711F024
:1003F000BA0109940895862FE0916602F091670290
:10040000309711F0BA0109940895862FE09168029F
:10041000F0916902309711F0BA0109940895862F7E
:10042000E0916E02F0916F02309711F0BA010994D9
:100430000895862FE0917002F0917102309711F0CB
:10044000BA010994089585ED8093BC008091BC00A9
:1004500084FDFCCF10928703089508950895E091DC
:10046000CF028091CE02E81730F4F0E0E255FD4F64
:10047000808190E008958FEF9FEF08959091CF02D3
:100480008091CE02981750F4E92FF0E0E255FD4F2D
:10049000208130E09F5F9093CF0202C02FEF3FEFAB
:1004A000C9010895CF93623060F4C62F8AE00E949C
:1004B000BE0FCC2311F083E001C082E0CF910C94F9
:1004C000BE0FCF910895009721F0805C9F4F0C9450
:1004D000131008951F920F920FB60F9211242F93AD
:1004E0003F934F935F936F937F938F939F93AF93BC
:1004F000BF93EF93FF93E0917E02F0917F023097DC
:1005000009F451C0968DA685B785858591FF04C0F5
:100510009C91892329F447C09C91892309F043C009
:10052000A389B4899C918589809589238C93868938
:1005300097890197F1F7608D718DA685B7855585EF
:1005400038E020E0CB010197F1F7822F90E09595FC
:100550008795282F4C91452309F02068315091F759
:10056000868D81FD20958091570390E001968F73D1
:10057000992730915803381749F0A0915703B0E0FC
:10058000A95EBC4F2C938093570303C0868D816076
:10059000868F828D938D0197F1F7A389B4899C9101
:1005A0008589892B8C93FF91EF91BF91AF919F919A
:1005B0008F917F916F915F914F913F912F910F900C
:1005C0000FBE0F901F901895FC01693091F038F420
:1005D000613061F0683099F483A194A108956A3084
:1005E00059F06B3061F481A592A508958CEA93E0EF
:1005F000089585A196A1089587A190A5089580E00A
:1006000090E008951F93CF93DF93EC0118E0612FE2
:10061000CE010E94E402009711F00E942B241F5F7C
:100620001C30A9F78FEF8AA3FE013A96A296119289
:100630001192EC17FD07D9F7DF91CF911F91089523
:100640008F929F92AF92BF92DF92EF92FF920F93A1
:100650001F93CF93DF93EC01D901603609F05FC29D
:100660008C91182F1F70807F803309F4BBC17901F2
:10067000042F813330F4803171F0803209F494C159
:1006800050C2803609F432C2803709F43DC2803549
:1006900009F047C2FEC1D90112968C901297912C95
:1006A000A12CB12C87E0880C991CAA1CBB1C8A9534
:1006B000D1F713968C9190E0A0E0B0E02EE0880F87
:1006C000991FAA1FBB1F2A95D1F7882A992AAA2AFF
:1006D000BB2AF7018181882A183008F05DC0612F9C
:1006E000CE010E94E402EC01892B09F41AC2E889C8
:1006F000F98982E080838114F1EE9F06A104B104A0
:10070000B1F060E079E08DE390E0A50194010E94F2
:100710002823DA01C9010197A109B109B695A79566
:10072000979587959C01211580E13807A8F0E88905
:10073000F989108260E874E88EE190E0A5019401E7
:100740000E942823DA01C9010197A109B109B695D0
:10075000A795979587959C01EC85FD853083EE855F
:10076000FF852083188EEC89FD8986E08083EA89E5
:10077000FB89808180618083EA89FB898081886030
:100780008083EA89FB89808180688083EA89FB898C
:1007900080818F7D8083C5C1453068F00481D5801C
:1007A0001930F1F018F4183059F049C01A3041F1FD
:1007B0001B30B1F144C086EB91E00E94560FAFC1EF
:1007C0008BA19CA1892BD9F58FE190E00E94932306
:1007D0007C014D2D602F0E949122FCA2EBA22FC024
:1007E0008DA19EA1892B59F58FE190E00E94932362
:1007F0007C014D2D602F0E949122FEA2EDA21FC010
:100800008FA198A5892BD9F48FE190E00E949323C2
:100810007C014D2D602F0E949122F8A6EFA20FC0FF
:1008200089A59AA5892B59F48FE190E00E94932322
:100830007C014D2D602F0E949122FAA6E9A6612F1E
:10084000CE010E94E402EC01892B09F46AC1E02F79
:10085000F0E0E45EFA4F80818F3711F08AE0808308
:10086000ED2DF0E0E45EFA4F80818F3711F08AE0E1
:1008700080831B8E1A8E198E188E1F8A1E8A60E046
:1008800079E08DE390E0A50194010E94F622F90140
:100890002430310518F0C901039702C081E090E0CF
:1008A0009D8F8C8F8C8598EF980F943048F062EF75
:1008B000680F643028F066EE680F633008F072C08D
:1008C000B901769567956431710518F06351710926
:1008D00002C061E070E07F8B6E8B369720F0B9012B
:1008E0006550710902C061E070E0798F688FB901CD
:1008F000660F771F260F371F369527953695279554
:100900002D30310518F02C50310902C021E030E0C3
:100910003B8F2A8F943058F092EF980F943038F034
:100920008A51833008F0FFC0A8E6B0E0FEC0A8E618
:10093000B0E0E8E6F0E0808181608C938C8598EFF0
:10094000980F943040F022EF280F243020F026EE4C
:10095000280F233018F42BE630E002C020E030E00E
:100960003C8B2B8B943010F49CEF09C08E3071F0CF
:100970008F3071F0803171F0813171F09AEE980F03
:1009800081E001C0880F9A95EAF707C088E005C0AA
:1009900082E003C084E001C081E08D8B8C8D9D8D51
:1009A0000197F1F7CE01B8C0612FCE010E94E40299
:1009B0005C01892B09F4B5C0E70111E0101708F0BC
:1009C000B0C06A816795662767958981680FD501F0
:1009D000ED91FC910190F081E02DC50109951E5F1C
:1009E0002296ECCF11968C911197811126C08AA185
:1009F00087300CF096C0612F70E0FB013596EE0F4A
:100A0000FF1FEC0FFD1F433070F013964C911397AE
:100A100090E8499FA001112412969C919A01292BDC
:100A20003183208302C0118210828F5F8AA3C80F96
:100A3000D11D87FDDA951A8374C0813009F071C029
:100A40009AA1191634F480E0492F092E000C550B99
:100A50000AC08FEF8AA365C0FE01E20FF31F228157
:100A6000121779F08F5F282F30E042175307A4F751
:100A700080E007C0883020F4EC0FFD1F2381228323
:100A80008F5FE82FF0E04E175F07A4F791509AA30D
:100A900048C0612FCE010E94E402EC01009709F4E6
:100AA00040C01830E8F4E881F9810680F781E02D34
:100AB0000995EA89FB8980818F7E8083EA89FB8999
:100AC0008081877F8083EA89FB8980818F7780831B
:100AD000EA89FB8980818F7D80838A8D898F21C0FF
:100AE0000E948301CE010E942B241BC0612FCE01E6
:100AF0000E94E4020097A9F0DC01ED91FC910680D0
:100B0000F781E02D09950DC0183058F0612FCE0106
:100B10000E94E402009729F00E94990102C080E03F
:100B20000AC081E008C0A0E0B0E0833008F401CF43
:100B3000E0E0F0E000CFDF91CF911F910F91FF90A7
:100B4000EF90DF90BF90AF909F908F9008953F926D
:100B50004F925F926F927F928F929F92AF92BF92CD
:100B6000CF92DF92EF92FF920F931F93CF93DF9379
:100B70005C016901DA013C90232B19F4CC24CA945E
:100B8000DC2C7A012A01460E571EC0E0D0E000E0BE
:100B900010E087E0682E712CE414F50409F443C0DA
:100BA0000C151D0508F067C04701F5018081918192
:100BB000D7016D917D010C2E01C0660F0A94EAF7F2
:100BC00063296F77DC01ED91FC910190F081E02DBC
:100BD00009950F5F1F4FF401608170E0C3018C1B0A
:100BE0009D0B02C0759567958A95E2F7362E219682
:100BF000C730D10588F2C016D10699F0D5018D9184
:100C00009C91632D6F77DC01ED91FC910190F08157
:100C1000E02D09950F5F1F4F331C3324331C27979A
:100C2000E7CF8601B9CF209731F10C151D0518F5D6
:100C3000F5018081918161E070E001C0660FCA9585
:100C4000EAF761506321DC01ED91FC910190F081A4
:100C5000E02DDF91CF911F910F91FF90EF90DF90EA
:100C6000CF90BF90AF909F908F907F906F905F904C
:100C70004F903F900994DF91CF911F910F91FF907A
:100C8000EF90DF90CF90BF90AF909F908F907F902C
:100C90006F905F904F903F900895DF92EF92FF9298
:100CA0000F931F93CF93DF93FC01E058FF4FD08049
:100CB000DD2009F45DC0EC01C05CDF4FA881B98183
:100CC000109709F455C0FC01EF57FF4F00811181C7
:100CD000F801F180E080ED91FC9111970190F08195
:100CE000E02D60EFCD01099588819981DC01ED91BE
:100CF000FC910190F081E02D69E709958881998147
:100D0000DC01ED91FC910190F081E02D6E2D0995B3
:100D100088819981DC01ED91FC910190F081E02DB9
:100D20006F2D09957801B2E0EB0EF11C0D0D111D30
:100D3000E016F10661F020E030E0A70161E070E02C
:100D4000CE010E94A705EFEFEE1AFE0AF1CF8881CF
:100D50009981DC01ED91FC910190F081E02D67EF2C
:100D6000DF91CF911F910F91FF90EF90DF90099449
:100D7000DF91CF911F910F91FF90EF90DF90089539
:100D8000009711F00C944D0608951F920F920FB624
:100D90000F9211242F933F934F935F936F937F9301
:100DA0008F939F93AF93BF93EF93FF938091B9007D
:100DB000887F803609F49CC068F5883209F45BC0EE
:100DC00090F4803109F454C038F4882309F4F6C053
:100DD000883009F44DC0F6C0883109F44CC0803227
:100DE00009F45DC0EFC0803409F468C048F4803372
:100DF00009F455C0883309F0E5C080938503D8C055
:100E0000803509F44FC0883509F45DC0883409F095
:100E1000D9C0D6C0883909F4C7C0A8F4883709F406
:100E200067C038F4883609F463C0803709F460C0BD
:100E3000C9C0883809F4B8C0803909F45FC0803867
:100E400009F0C0C05BC0803B09F486C038F4803A2A
:100E500009F466C0883A09F47FC0B4C0803C09F444
:100E6000A7C0883C09F4A4C0883B09F48AC0AAC082
:100E70008091620310C0909184038091830398173E
:100E800070F5E091840381E08E0F80938403F0E09D
:100E9000ED59FC4F80818093BB0085EC86C0809328
:100EA00085038EC0E091840381E08E0F80938403DC
:100EB0008091BB00F0E0ED59FC4F8083909184035A
:100EC000809183036EC0E091840381E08E0F809354
:100ED00084038091BB00F0E0ED59FC4F808380914A
:100EE000860381116DC081E08093610384EA61C053
:100EF00083E08093870310921603CFCF809116036F
:100F0000803208F051C0E091160381E08E0F80938B
:100F100016038091BB00F0E0EA50FD4F8083BDCF07
:100F200085EC8093BC001092870380911603803279
:100F300030F4E0911603F0E0EA50FD4F108260912A
:100F4000160370E0E091D202F091D30286EF92E0B6
:100F500009951092160336C084E08093870310929F
:100F6000F5021092F402E091D002F091D1020995BD
:100F70008091F402811105C081E08093F402109207
:100F8000D402E091F50281E08E0F8093F502F0E04B
:100F9000EC52FD4F80818093BB009091F5028091CF
:100FA000F402981708F479CF85E88093BC000AC052
:100FB00085EC8093BC001092870304C010928503D7
:100FC0000E942302FF91EF91BF91AF919F918F916A
:100FD0007F916F915F914F913F912F910F900FBE35
:100FE0000F901F9018954091F402262F30E0240FA7
:100FF000311D21323105DCF4209187032430C9F4FE
:10100000FC0180E090E0861758F43091F4022191C1
:10101000DC01AC52BD4FA30FB11D2C930196F3CF51
:101020008091F402680F6093F40280E0089581E0FB
:10103000089582E0089540915B0350915C032091F4
:10104000590330915A0342175307B4F49091E800C2
:101050009570E1F39091E80092FD19C08093F10042
:1010600080915B0390915C0301968F739927892B84
:1010700019F48EEF8093E80080915B0390915C03FC
:10108000019690935C0380935B0381E0089580E078
:101090000895DF92EF92FF920F931F93CF93DF9308
:1010A000D82EF92EE42E062F10E0C8010196880FE5
:1010B0000E941B0883E00E941B08CD2DDF2D0C0F22
:1010C0001D1FC017D10789F0E7FE03C0FE01849100
:1010D00001C088810E941B08F82E80E00E941B0836
:1010E0008F2121968111EDCF01C081E0DF91CF9159
:1010F0001F910F91FF90EF90DF900895DF92EF9294
:10110000FF920F931F93CF93DF93D82E8A017B0119
:10111000E40EF51EEB01CE15DF0571F0D7FE03C01E
:10112000FE01849101C088810E941B0821968111D3
:10113000F2CF8FEF9FEF01C0C801DF91CF911F91D8
:101140000F91FF90EF90DF900895615030F0209163
:10115000F100FC0120830196F8CF289884E6809363
:101160005F030895CF92DF92EF92FF920F931F9348
:10117000CF93DF936C017A018B01C0E0D0E0CE15F4
:10118000DF0581F0D8016D918D01D601ED91FC91C3
:101190000190F081E02DC6010995892B11F021966F
:1011A000EECF7E01C701DF91CF911F910F91FF908C
:1011B000EF90DF90CF900895FC01538D448D252F43
:1011C00030E0842F90E0821B930B541710F0CF96E1
:1011D000089501970895FC01918D828D981761F013
:1011E000828DDF01A80FB11D5D968C91928D9F5F5E
:1011F0009F73928F90E008958FEF9FEF0895FC0109
:10120000918D828D981731F0828DE80FF11D858DBB
:1012100090E008958FEF9FEF0895FC01918D228D4E
:10122000892F90E0805C9F4F821B91098F739927D3
:1012300008958CEA93E00E940D0921E0892B09F4BE
:1012400020E0822F0895FC01848DDF01A80FB11DDD
:10125000A35ABF4F2C91848D90E001968F739927EC
:10126000848FA689B7892C93A089B1898C918274C7
:101270008C93938D848D981306C00288F389E02D9A
:1012800080818F7D80830895EF92FF920F931F934B
:10129000CF93DF93EC0181E0888F9B8D8C8D981329
:1012A00005C0E889F989808185FD26C0F62E0B8D61
:1012B00010E00F5F1F4F0F731127E02E8C8DE81287
:1012C0000CC00FB607FCFACFE889F989808185FF49
:1012D000F5CFCE010E942309F1CF8B8DFE01E80FDF
:1012E000F11DE35AFF4FF0829FB7F8940B8FEA8904
:1012F000FB898081806209C09FB7F894EE89FF89DD
:101300006083E889F9898081827480839FBF81E04E
:1013100090E0DF91CF911F910F91FF90EF90089592
:10132000CF93DF93EC01888D8823C9F0EA89FB898C
:10133000808185FD05C0A889B9898C9186FD0FC083
:101340000FB607FCF5CF808185FFF2CFA889B98958
:101350008C9185FFEDCFCE010E942309E7CFDF916D
:10136000CF91089580E090E0892B29F00E9419091F
:1013700081110C9400000895CF93DF931F92CDB795
:10138000DEB76983DC01ED91FC910280F381E02DF1
:1013900041E050E0BE016F5F7F4F09950F90DF91F4
:1013A000CF91089583E08093E9008091F200882333
:1013B00019F08AE38093E8000895FC0184859585FF
:1013C00097FD0BC09FB7F89482E08093E90080916D
:1013D000F2009FBF90E0019608959FB7F89482E0D5
:1013E0008093E9008091F2009FBF90E008952091E2
:1013F0007E0230917F022817390771F490915803CB
:1014000080915703981741F0E0915803F0E0E95EAE
:10141000FC4F808190E008958FEF9FEF089508952D
:101420001F93CF93DF93DC015C968D919C915D9728
:10143000009739F421E030E013963C932E931297F5
:101440003BC05196ED91FC91529750962C9150973C
:10145000322F30951FB75E964C915E97742F727045
:1014600041FD6095F8944081772311F0422B01C033
:1014700043234083EC012197F1F748E0508160FF5E
:1014800002C0522B01C053235083EC012197F1F786
:101490006695415099F78081772319F083238083E3
:1014A00002C0282B20831FBF5C968D919C915D9775
:1014B0000197F1F781E090E0DF91CF911F910895BE
:1014C0000E94B4240F931F93CF93DF931F92CDB745
:1014D000DEB782E0898342E450E066E371E080E8B1
:1014E0000E947E080E947C10DC0112960D911C91D6
:1014F00013970115110589F0D801ED91FC91028037
:10150000F381E02DBE016F5F7F4FC801099597FD04
:1015100004C0F80100851185ECCF89810F90DF911F
:10152000CF911F910F9108958F929F92AF92BF928A
:10153000CF92DF92EF92FF920F931F93CF93DF939F
:101540006C017B018A0180910701882309F45CC04A
:1015500080916003882309F457C08091640280FF62
:1015600005C08091E00082608093E000E801B12C2A
:101570008AEFA82E93E0892E2AE3922E209711F469
:10158000BB20D9F10E946B1081110AC0AA94AA2035
:10159000D9F161E070E080E090E00E944F11EECF61
:1015A000282F30E0C217D3070CF48C2F9FB7F89484
:1015B0008092E9002091E80025FF1DC0282F30E02F
:1015C000C21BD30BF701815020F041914093F100F1
:1015D000FACFE20EF31EBB2019F09092E8000AC089
:1015E0008091E80085FD07C09092E800BB24B39489
:1015F000209709F0B12C9FBFC1CF5D9884E68093FE
:101600005E031016110644F081E090E0F60193832A
:10161000828380E090E001C0C801DF91CF911F91EB
:101620000F91FF90EF90DF90CF90BF90AF909F9081
:101630008F9008950E946B1090E008950F931F9370
:10164000CF93DF931F92CDB7DEB78C01FC01848569
:10165000958597FF0EC0CE0101960E943D1001971F
:1016600019F4898190E002C08FEF9FEFF801958710
:101670008487F801848595850F90DF91CF911F9124
:101680000F910895CF93DF931F92CDB7DEB7FC0182
:101690008485958597FD05C02FEF3FEF358724871B
:1016A0000BC0CE0101960E943D10019719F489816B
:1016B00090E002C08FEF9FEF0F90DF91CF910895E0
:1016C0001F920F920FB60F9211248F939F938091C8
:1016D000E1009091E100937F9093E10083FF0FC0C0
:1016E0001092E90091E09093EB001092EC0092E3ED
:1016F0009093ED001092600398E09093F00082FFC9
:1017000020C093E09093E9009091F200992319F0A2
:101710009AE39093E80090915E03992339F09091B9
:101720005E03915090935E03992389F190915F033A
:10173000992339F090915F03915090935F0399231F
:1017400041F184FF10C08091E2008E7E8160809321
:10175000E2008091E1008F7E8093E100809164023D
:101760008E7E806111C080FF16C08091E2008E7E67
:1017700080618093E2008091E1008E7E8093E100A1
:10178000809164028E7E81608093640204C05D9AC1
:10179000CDCF289AD6CF9F918F910F900FBE0F90EB
:1017A0001F9018951F920F920FB60F921124CF928F
:1017B000DF92EF92FF920F931F932F933F934F93DC
:1017C0005F936F937F938F939F93AF93BF93EF93A9
:1017D000FF93CF93DF93CDB7DEB76C97DEBFCDBF5E
:1017E0001092E9008091E80083FFFBC168E0CE0120
:1017F00045960E94A50882EF8093E8008D8987FFB7
:1018000005C09091E80090FFFCCF03C09EEF90933D
:10181000E800982F907609F0C6C09E894F89588DB0
:101820002F89F88C91110CC0803829F480916502C1
:101830008093F10002C01092F1001092F10045C1B6
:10184000913051F4811141C14130510509F03DC140
:10185000809165028D7F0BC0933061F4811135C199
:101860004130510509F031C1809165028260809359
:1018700065022BC1953049F48091E80080FFFCCFD0
:10188000822F80688093E30020C1963009F05EC00B
:101890000B8D1C8D22E01092E90010925C031092D7
:1018A0005B03F21232C010925A03109259030E9445
:1018B000620A99E0BE016F5F7F4FDB01E92F1D9245
:1018C000EA95E9F79983FA8291E09E8390EA9887F6
:1018D0009AEF998720915B0330915C03275F3F4F1C
:1018E0003C832B838D831092E90010925C0310924D
:1018F0005B0310935A030093590349E050E080E0E2
:101900000E947E080E94620AE0C010935A0300936E
:1019100059030E947C10DC0112960D911C911397C3
:101920000115110509F4BBC0D801ED91FC910480AB
:10193000F581E02DBE016B5E7F4FC80109950097D0
:1019400009F0C7C0F80100851185EACF973009F486
:1019500045C1983021F481E08093F100B6C0993000
:1019600009F0B3C0837009F039C1E6E1F1E081E02C
:1019700031E096E32081211109C08EE78093EA00CF
:101980001092EA008F89809360039FC08093E900E2
:101990003093EB0021912093EC009093ED008F5F4A
:1019A000873041F7EACF8B8D9C8D1092E900109221
:1019B0005C0310925B0390935A0380935903898DC3
:1019C000811153C08E899D89913A49F4813209F081
:1019D00005C147E050E060E071E080E0BBC09132BB
:1019E00009F0FCC0833269F48F89988DA0E0B0E0E3
:1019F00080930B0190930C01A0930D01B0930E0105
:101A000064C0803269F48091E80082FFFCCF67E017
:101A100080E091E00E94A5088BEF8093E80055C01C
:101A2000823209F052C08F8980930701EEEFFFE701
:101A3000859194918B3F9C4D19F0E0E0F8E002C055
:101A4000EEEFFAE08091000190910101A091020176
:101A5000B0910301803B9440A105B10509F09EC0FF
:101A60008091070180FF79C099C00E947C10FC0121
:101A7000028113810115110509F4B0C0D801ED915F
:101A8000FC910190F081E02DBE016B5E7F4FC8019B
:101A9000099581111AC0F80100851185EBCFF1E09D
:101AA000FF1609F44EC0F3E0FF1298C08F89882317
:101AB00009F44AC0823089F440E860E18AE991E0A3
:101AC0000E944908882309F489C08EEF8093E800BA
:101AD00088C018161906CCF381C0813029F440E87B
:101AE0006BE08EE891E0ECCF833009F077C00E9484
:101AF0007C10DC011296ED90FC9013978E010F5F25
:101B00001F4F6801E114F10479F0D701ED91FC91C8
:101B10000680F781E02DB801C7010995080F111D56
:101B2000F701E084F184EECFD8011C92F601019018
:101B30000020E9F73197BF016C197D0940E0C6012B
:101B4000BFCF6CE771E002C068E771E0FB01449130
:101B500050E080E80E947E08B8CFEE3F2AE0F2070E
:101B600051F0808191818737A7E79A0721F0909300
:101B7000FF0A8093FE0A87E797E79183808380912D
:101B8000600080935D039BE088E10FB6F894A89510
:101B9000809360000FBE9093600097CF8081918109
:101BA0008737974709F091CFA895809160008861A9
:101BB0008093600080915D0380936000EE3FBAE007
:101BC000FB0739F08091FE0A9091FF0A9183808390
:101BD0007CCF1092FF0A1092FE0A77CF81E28093A9
:101BE000EB006C960FB6F894DEBF0FBECDBFDF9151
:101BF000CF91FF91EF91BF91AF919F918F917F9185
:101C00006F915F914F913F912F911F910F91FF9095
:101C1000EF90DF90CF900F900FBE0F901F90189510
:101C20001F920F920FB60F9211242F933F934F9351
:101C30005F936F937F938F939F93AF93BF93EF9334
:101C4000FF938CEA93E00E942309FF91EF91BF91EB
:101C5000AF919F918F917F916F915F914F913F9144
:101C60002F910F900FBE0F901F9018951F920F92FB
:101C70000FB60F9211242F938F939F93EF93FF939F
:101C8000E091BC03F091BD038081E091C203F0912B
:101C9000C30382FD12C090818091C5038F5F8F7353
:101CA0002091C603821751F0E091C503F0E0E4559E
:101CB000FC4F958F8093C50301C08081FF91EF9108
:101CC0009F918F912F910F900FBE0F901F9018959D
:101CD00090E0FC013197EF30F105B0F5EA5AFF4F83
:101CE0000C947923809180008F7703C080918000CD
:101CF0008F7D80938000089580918000877FF9CF49
:101D000084B58F7702C084B58F7D84BD089580919E
:101D100090008F7707C0809190008F7D03C08091E5
:101D20009000877F8093900008958091C0008F7706
:101D300003C08091C0008F7D8093C0000895809182
:101D4000C200877F8093C20008951F93CF93DF93D3
:101D500000D0CDB7DEB7182F7A8369838091D9047C
:101D60009091DA04009709F44EC0DC01ED91FC91EA
:101D70001031A8F46115704490F4612F606E0190E9
:101D8000F081E02D099522E030E0AE014F5F5F4F1A
:101D900062E070E089ED94E00E94A70534C00190F4
:101DA000F081E02D60EF09958091D9049091DA04DB
:101DB000DC01ED91FC910190F081E02D6FE6099539
:101DC0008091D9049091DA04DC01ED91FC910190AD
:101DD000F081E02D612F099522E030E0AE014F5FE8
:101DE0005F4F62E070E089ED94E00E94A70580916A
:101DF000D9049091DA04DC01ED91FC910190F0811D
:101E0000E02D67EF09950F900F90DF91CF911F9113
:101E10000895EF92FF920F931F93CF93DF93C82FF4
:101E20008091D9049091DA040097C9F17A018B016D
:101E3000DC01ED91FC910190F081E02D60EF0995BE
:101E40008091D9049091DA04DC01ED91FC9101902C
:101E5000F081E02D6C2F0995E7010E0D1F1DC017B5
:101E6000D10759F020E030E0AE0161E070E089ED8B
:101E700094E00E94A7052196F2CF8091D904909119
:101E8000DA04DC01ED91FC910190F081E02D67EF27
:101E9000DF91CF911F910F91FF90EF900994DF9107
:101EA000CF911F910F91FF90EF900895FC01019049
:101EB0000020E9F73197BF01681B790BAC0181E77E
:101EC0000C94090F282F3091AB03313208F04AC02F
:101ED000809187038111FCCF9091AA0342E0409347
:101EE0008703209386032FEF2093850310928403AA
:101EF00030938303EAE8F3E0A3E6B3E020E032178F
:101F000021F041914D932F5FFACF109262032091FF
:101F10006203990F922B9093620390916103913029
:101F200061F410926103909162039093BB009091D1
:101F3000BC0093FDF8CF95EC01C095EE9093BC00EA
:101F4000909187039230E1F3909185039F3F79F060
:101F500080918503803241F080918503803331F098
:101F600084E005C081E003C082E001C083E01092FC
:101F700089031092AB03109288030895A09117056E
:101F8000B0911805ED91FC9111970190F081E02D31
:101F9000682FCD0109941F93CF93DF93182FEB0186
:101FA0008091DE049091DF0468177907A8F0E09132
:101FB0000B05F0910C0581E03097C1F08093DB04B4
:101FC0008091F7049091F80409958091DE04909136
:101FD000DF04C817D90748F48091DC049091DD0430
:101FE000C80FD91F188380E001C081E0DF91CF9135
:101FF0001F910895AC01FB0180E090E09C01220F4D
:10200000331F2417350770F4DB012C9120831196C0
:102010003C91379533273795232B219301966E5F9B
:102020007F4FECCF0895CF93DF93FC01A081B18166
:10203000109701F1EC01ED91FC9111970190F08165
:10204000E02D69EFCD01099588819981DC01ED9141
:10205000FC910190F081E02D62E0099588819981E1
:10206000DC01ED91FC910190F081E02D65E0DF91C4
:10207000CF910994DF91CF910895209160032111B0
:1020800003C08FEF9FEF08955FB7F89422E020938D
:10209000E9002091F20030E01216130614F421E05A
:1020A00030E0422FFC0184E6415038F028988093BC
:1020B0005F039091F1009193F7CF2115310521F045
:1020C0008091F200882319F05FBFC90108958BE663
:1020D0008093E800F9CF2FB7F89483E08093E9006C
:1020E0009091E800892F807295FF04C09091F200D2
:1020F00080E4891B2FBF08958091FB0581110DC0DD
:1021000082E08093F70584E08093F8051092FA0549
:102110001092F90581E08093FB0587EF95E0089523
:10212000CF93DF93282F30E0F901EB53FE4F8491DA
:10213000F901E15EFD4FD491F901E050FE4FC491E9
:10214000CC2391F081110E94680EEC2FF0E0EE0F8D
:10215000FF1FEC51FE4FA591B491EC91ED2381E06E
:1021600090E021F480E002C080E090E0DF91CF9128
:1021700008951F93CF93DF93282F30E0F901EB539D
:10218000FE4F8491F901E15EFD4FD491F901E050D9
:10219000FE4FC491CC23C1F0162F81110E94680E0E
:1021A000EC2FF0E0EE0FFF1FEE50FE4FA591B49123
:1021B0009FB7F894111104C08C91D095D82302C018
:1021C000EC91DE2BDC939FBFDF91CF911F9108959F
:1021D000CF93DF9390E0FC01E15EFD4F2491FC0181
:1021E000E050FE4F8491882361F190E0880F991FA1
:1021F000FC01E954FE4FC591D491FC01EE50FE4F15
:10220000A591B491611109C09FB7F8948881209578
:1022100082238883EC912E230BC0623061F49FB738
:10222000F8948881322F309583238883EC912E2B6C
:102230002C939FBF06C08FB7F894E8812E2B28837C
:102240008FBFDF91CF910895823108F08251E82F3E
:10225000F0E0E555FE4FE49180917B00E3FB2227FF
:1022600020F930E095E0220F331F9A95E1F78F7D3A
:10227000282B20937B00E770E064E0937C00809142
:102280007A00806480937A0080917A0086FDFCCF8A
:10229000809178002091790090E0922B08958F92A0
:1022A0009F92AF92BF92CF92DF92EF92FF926B011B
:1022B0007C010E94991B4B015C01C114D104E10413
:1022C000F104F1F00E94991BDC01CB0188199909F6
:1022D000AA09BB09883E9340A105B10570F321E02E
:1022E000C21AD108E108F10888EE880E83E0981E32
:1022F000A11CB11CC114D104E104F10419F7DDCF14
:10230000FF90EF90DF90CF90BF90AF909F908F9015
:1023100008958091CE0290E02091CF02821B910916
:102320000895089580E090E00895CF92DF92EF92B3
:10233000FF920F931F93CF93DF937C01CB018A0110
:1023400020918803222389F0EB016B01C40ED51E76
:10235000CC15DD0569F06991D701ED91FC910190F3
:10236000F081E02DC7010995F3CF642F0E94F30798
:10237000C801DF91CF911F910F91FF90EF90DF90F7
:10238000CF900895CF93DF931F92CDB7DEB76983C7
:10239000209188032223D1F02091AB03203240F01A
:1023A00021E030E0FC013383228380E090E015C01F
:1023B00080918903E82FF0E0E657FC4F99819083E4
:1023C0008F5F809389038093AB0305C061E0CE01EA
:1023D00001960E94F30781E090E00F90DF91CF918A
:1023E00008958F929F92AF92BF92CF92DF92EF9219
:1023F000FF920F931F93CF93DF93843008F096C022
:10240000982F990F990F990F58E0C52EC90E9EE18C
:102410009C1510F44EE1C42E8B01C82FCC0FCC0FAD
:10242000CC0FDC2ED0E0992493945B01BB24DC1408
:1024300010F54D2D50E0FA01E45EFA4F2081223074
:10244000B8F4892D90E08A219B21882483940097F9
:1024500009F4812C7A01EE0CFF1C213009F056C0E2
:10246000D929F701E65CFA4F882D90E091838083AB
:10247000990CD394DCCFD0FF05C0602F61708C2FF6
:102480000E94B910D1FF06C0602F627081E08C0FEE
:102490000E94B910D2FF06C0602F647082E08C0FDA
:1024A0000E94B910D3FF06C0602F687083E08C0FC4
:1024B0000E94B910D4FF06C0602F607184E08C0FB9
:1024C0000E94B910D5FF06C0602F607285E08C0FA6
:1024D0000E94B910D6FF06C0602F607486E08C0F92
:1024E0000E94B910D7FF22C0602F607887E08C0F60
:1024F000DF91CF911F910F91FF90EF90DF90CF90E0
:10250000BF90AF909F908F900C94B910892B09F4D5
:10251000A8CFF701E65CFA4F80819181019709F419
:10252000A0CF62E08D2D0E94E8109BCFDF91CF916C
:102530001F910F91FF90EF90DF90CF90BF90AF90E1
:102540009F908F9008950F931F93CF93DF9381E017
:1025500080932A068CEC95E00E9402038091290664
:10256000882329F0109229068FEF80930801EAE76B
:10257000F2E0C6E7D2E0A5E2B6E0119219921D9210
:1025800082E0EE37F807C9F707E016E0C0E0DFEFBA
:102590008EEE8C0F8C3018F462E070E002C061E0C7
:1025A00070E08C2F0E94301AF801D1938F01CF5F19
:1025B000CE3171F71092A9021092A802109206066D
:1025C0001092050610922A06DF91CF911F910F916C
:1025D0000895EF92FF920F931F93CF93DF9390E0B4
:1025E000FC01E056F109EB31F10508F072C2EA0195
:1025F000162FEB59FF4F0C9479232981922F987154
:1026000025FF03C084ED91E059C0888131E026FBAD
:10261000222720F92327983061F160F4911159C2E3
:10262000309388038093AA03109289031092AB031E
:1026300002E006C09031E1F1983109F46EC049C260
:10264000011778F4FE01E00FF11D6181679566279F
:1026500067958081680F87E795E00E94C2110E5F41
:10266000EFCF81E00E94620F83E191E00197F1F7E3
:1026700030C24B816A81163069F470E030E8439FC4
:10268000600D711D11244D814795442747959C810C
:10269000490F06C0479544274795460F6FEF7FEFD8
:1026A000DF91CF911F910F91FF90EF900C940D1936
:1026B000E0910801E73054F084EF91E0DF91CF9191
:1026C0001F910F91FF90EF900C94560F9B813A81D0
:1026D000663071F4632F70E0F0E89F9F600D711D0C
:1026E00011249D819795992797954C81940F06C049
:1026F000979599279795930F6FEF7FEFEF5FE09393
:10270000080135E0E302F0011124E058FD4F808319
:102710007283618393832483DCC1209108011216A4
:102720003CF490E0622F022E000C770B35E00FC0D6
:102730008FEF80930801CDC1349FF001359FF00DDC
:102740001124E058FD4F4081841739F09F5F492FD5
:1027500050E06417750784F790E085E022C0983058
:10276000F8F4FA0131968E9FD0018F9FB00D11249D
:10277000A058BD4F3C91849FF001859FF00D11241E
:10278000E058FD4F308311964D915C911297528322
:10279000418313963C911397338314963C91348371
:1027A0009F5F492F50E064177507CCF621502093A6
:1027B00008018FC12981888190E0E0E82E9F800D7B
:1027C000911D1124009721F0909304068093030635
:1027D0008091290681117DC1C0E08EEF8C0F82307F
:1027E00028F466E070E08C2F0E94301ACF5FCE3163
:1027F000A1F781E0809329061092CF021092CE02B9
:10280000109289031092AB03109287038093860382
:102810001092610361E082E00E94B91061E083E000
:102820000E94B9108091B9008E7F8093B900809189
:10283000B9008D7F8093B90088E48093B80085E467
:102840008093BC008DE292E09093D1028093D002FD
:102850008EE292E09093D3028093D2023AC1653027
:1028600008F437C118811E3108F033C10981EA80AC
:10287000FB80CC81E12FF0E0E95FF94F80818C3063
:10288000B0F490E0FC01EE0FFF1F8E0F9F1FFC01C4
:10289000E855FA4F808190E0FC01EE0FFF1F8E0F8C
:1028A0009F1FFC01ED57FA4F808186FD0EC14F2D11
:1028B00050E0F0E8CF9F400D511D1124602F70E0D3
:1028C00020E8E29E600D711D1124812F0E94F219F3
:1028D00064E070E0812FDF91CF911F910F91FF9005
:1028E000EF900C94301A623008F4F3C0298188818B
:1028F00090E030E8239F800D911D1124009711F482
:1029000081E090E090930A0180930901E2C0623077
:1029100008F4DFC0698170E0123091F08A81E0E84C
:102920008E9FC0011124682B792B133049F08B81C5
:1029300090E090E4899F902D88271124682B792BB3
:102940008881DF91CF911F910F91FF90EF900C94B0
:10295000761780EF0E94BE0F8CE60E94BE0FC0E08B
:1029600080E00E94BE0F81E00E94BE0F8BE00E94BB
:10297000BE0F81E00E94BE0F81E00E94BE0F81E089
:102980000E94BE0F8EEE8C0F8C3038F482E00E94D5
:10299000BE0F8AE00E94BE0F09C0C33039F483E045
:1029A0000E94BE0F88E00E94BE0F0AC08BEF8C0F02
:1029B0008230A8F387EF8C0F833088F3CD3079F322
:1029C00084E00E94BE0F8EE00E94BE0F8EEF8C0F3F
:1029D000823030F486E00E94BE0F81E00E94BE0F7C
:1029E0006C2F8CEC95E00E9452028FE70E94BE0F84
:1029F000CF5FCE3109F0B4CF87EFDF91CF911F9138
:102A00000F91FF90EF900C94BE0F662309F461C004
:102A1000C88180EF0E94BE0F8EE60E94BE0F8C2FF1
:102A20000E94BE0FCE3140F7D0E0FE01E45EFA4FC7
:102A300080810E94BE0FCC0FDD1F8E01065C1A4FF5
:102A4000F80180818F770E94BE0FF801808191810B
:102A50009C012078232B39F0880F892F881F990B30
:102A60008F770E94BE0FC65CDA4F888199819C01E6
:102A70002227307C232B09F4BFCF990F880B990FA5
:102A8000982F881F8F770E94BE0FB6CF80EF0E94CD
:102A9000BE0F8AE60E94BE0FCEEECC3010F48C2F13
:102AA00001C08FE70E94BE0FCF5FCC30B1F7A4CF3B
:102AB0009A01462F60E68CEC95E0DF91CF911F9153
:102AC0000F91FF90EF900C942003812F0E94BF196B
:102AD000EECEDF91CF911F910F91FF90EF9008956F
:102AE0000F931F93CF93DF93843008F071C0282F8A
:102AF00030E0F901E658FD4F6083672B09F468C0A8
:102B0000082FF901EA58FD4F1081D22FDD0FDD0F9C
:102B1000DD0F10FF4DC08D2F0E949010892B09F4FE
:102B200047C0C1E011FF07C081E08D0F0E949010E7
:102B3000892B09F03FC012FF06C082E08D0F0E9472
:102B40009010892BC9F513FF06C083E08D0F0E94FA
:102B50009010892B99F514FF06C084E08D0F0E9418
:102B60009010892B69F515FF06C085E08D0F0E9436
:102B70009010892B39F5D83191F016FF06C086E008
:102B80008D0F0E949010892BF9F4D73141F017FF77
:102B900006C087E08D0F0E949010892BB9F441E0A8
:102BA0006C2F802FDF91CF911F910F910C94CB1838
:102BB000C0E0B8CFC260BFCFC460C5CFC860CBCFC4
:102BC000C061D1CFC062D7CFC064DFCFC068E7CFCC
:102BD000DF91CF911F910F910895CF938C3080F5A5
:102BE0004091A8025091A90221E030E0672B81F4C6
:102BF000B90102C0660F771F8A95E2F7CB01809575
:102C00009095842395239093A9028093A80218C0DD
:102C1000082E02C0220F331F0A94E2F7242B352B13
:102C20003093A9022093A80290912A06911108C01E
:102C3000C82F0E942411BC018C2FCF910C94A50E9B
:102C4000CF910895DF92EF92FF920F931F93CF934E
:102C5000DF93EC01D62E7A01890188818C3008F04F
:102C600068C061E08D2D0E94E8108881E82FF0E0B7
:102C70009F01220F331FE20FF31FED57FA4F9D2DD7
:102C80009F732081207CD22ED92AD08220E232E08C
:102C90002E193F0937FF02C02D5F3F4F359527950D
:102CA00035952795298320E639E0201B310B37FF26
:102CB00002C02D5F3F4F35952795359527952A837F
:102CC0006CE00E9459239CE0899FB001112440E0F0
:102CD00050E09B01240F351FF901EE0FFF1F2E0F4F
:102CE0003F1FF901ED57FA4F908196FD16C04F5FD7
:102CF0005F4F4C30510569F781110FC01092800071
:102D000082E0809381001092850010928400B19A35
:102D100080916F00826080936F00E881F0E0CF01C6
:102D2000880F991FE80FF91FED57FA4F80818064D3
:102D300080838881DF91CF911F910F91FF90EF9059
:102D4000DF9008951F920F920FB60F9211242F93C8
:102D50003F934F935F936F937F938F939F93AF9323
:102D6000BF93EF93FF9380912B0687FF05C01092CE
:102D70008500109284001BC020912B06022E000CAF
:102D8000330B8091A70590E02817390784F48091D0
:102D90002B06082E000C990BFC01EE0FFF1F8E0F67
:102DA0009F1FFC01ED57FA4F808186FD15C0809171
:102DB0002B068F5F80932B0620912B06022E000C92
:102DC000330B8091A70590E028173907C4F4809150
:102DD0002B068C3064F113C080912B06082E000C5A
:102DE000990BFC01EE0FFF1F8E0F9F1FFC01ED578B
:102DF000FA4F808160E08F730E94B910D8CF809124
:102E0000840090918500049680349C4918F480E4F5
:102E10009CE905C080918400909185000496909370
:102E20008900809388008FEF80932B063BC0209110
:102E300084003091850080912B06082E000C990BA0
:102E4000FC01EE0FFF1F8E0F9F1FFC01ED57FA4F85
:102E500081819281820F931F9093890080938800D3
:102E600080912B06082E000C990BFC01EE0FFF1F22
:102E70008E0F9F1FFC01ED57FA4F808186FF12C015
:102E800080912B06082E000C990BFC01EE0FFF1F02
:102E90008E0F9F1FFC01ED57FA4F808161E08F7309
:102EA0000E94B910FF91EF91BF91AF919F918F91C7
:102EB0007F916F915F914F913F912F910F900FBE36
:102EC0000F901F9018958E3180F4E82FF0E0DF010D
:102ED000A45EBA4F9C91913041F4EE0FFF1FE65C67
:102EE000FA4F608371830C94B91008958F929F926A
:102EF000AF92BF92CF92DF92EF92FF920F931F9308
:102F0000CF93DF93EB018E3108F038C1082F10E02A
:102F1000F801E45EFA4F9081933009F48CC094304C
:102F200009F02CC1F801E95FF94FE080F12C67014D
:102F3000CC0CDD1C603282E078070CF042C077FDDB
:102F400005C0653B710524F4DB0104C0A0E001C0AD
:102F5000A4EBB0E0F601EE0DFF1DE855FA4F8181BC
:102F600028E830E04901881A910887FD9394880C7D
:102F7000991C880C991C092C000CAA08BB0882819A
:102F800028E532E0281B310987FD3395220F331FD6
:102F9000220F331FA901330F660B770B9A01AB0188
:102FA000281939094A095B090E94202324EB30E0E3
:102FB00040E050E00E94F622820E931EA41EB51E31
:102FC00001C04B01F601EE0DFF1DE855FA4F2081BF
:102FD0002C3008F0CCC0318188E890E0831B910947
:102FE00037FD9395880F991F880F991F88169906AA
:102FF00084F0828148E552E0481B510987FD5395D2
:10300000440F551F440F551FC401481559050CF4B2
:10301000CA010297880F991F4FB7F89430E0F90161
:10302000EE0FFF1F2E0F3F1FF901ED57FA4F92834E
:1030300081834FBF9CC0F82E83E0081759F08BEFB7
:10304000800F823038F087EF800F833018F08DE0EA
:1030500008138DC061E08F2D0E94E810209711F4B5
:1030600060E004C0CF3FD10529F461E08F2D0E94BC
:10307000B9107DC0F801EB53FE4FE4918E2F90E024
:10308000FC013197EF30F10508F06CC0E058FF4FBC
:103090000C94792384B5806884BDC7BD68C084B5AD
:1030A000806284BDC8BD63C08091800080688093C9
:1030B0008000D0938900C093880059C0809180001F
:1030C000806280938000D0938B00C0938A004FC0B1
:1030D00080918000886080938000D0938D00C093A1
:1030E0008C0045C080919000806880939000D093C0
:1030F0009900C09398003BC08091900080628093BB
:103100009000D0939B00C0939A0031C080919000B2
:10311000886080939000D0939D00C0939C0027C04E
:103120008091C00080688093C0008091C0008F7B38
:103130008093C000C093CF001AC08091C00080620D
:103140008093C000C093D00012C08091C2008860FC
:103150008093C2008091C2008B7F8093C200C09395
:10316000D20005C0C038D1050CF07FCF79CF000F59
:10317000111FF801E65CFA4FD183C083DF91CF9134
:103180001F910F91FF90EF90DF90CF90BF90AF9085
:103190009F908F900895FF920F931F93CF93DF938B
:1031A00000D0CDB7DEB7082F10E0F801EA58FD4F88
:1031B0009081F62EF9220B5D194F411104C0F801E0
:1031C0009081F91611F12F2D30E03A832983A091D7
:1031D000D904B091DA041097B1F0682F6F7060696C
:1031E000ED91FC9111970190F081E02DCD010995B1
:1031F00022E030E0AE014F5F5F4F62E070E089EDAA
:1032000094E00E94A705F801F0820F900F90DF91E3
:10321000CF911F910F91FF900895EF92FF920F931E
:103220001F93CF93DF93D82F8B01C42FF22E6F3FC4
:103230008FEF7807F9F081E080938803D093AA0399
:10324000109289031092AB0387E795E00E94C211A8
:103250008F2D0E94620F80910306909104068230A8
:10326000910550F0880F991F880F991F05970197B6
:10327000F1F702C000E010E0809187038111FCCFDC
:103280009C2FC13208F090E281E080938703809305
:1032900086032FEF2093850310928403290F209338
:1032A000830380936203809162032D2F220F822B70
:1032B0008093620380916103813061F41092610315
:1032C000809162038093BB008091BC0083FDF8CFA6
:1032D00085EC01C085EE8093BC008091870381302E
:1032E000E1F380918403891710F490918403E3E65D
:1032F000F3E0AEEAB2E080E0891721F021912D934E
:103300008F5FFACF1092CF028093CE02EC2EF12C79
:1033100090E0E816F9061CF485E092E005C08E15F1
:103320009F0524F482E292E00E94560FD093380663
:103330000093390608E316E0C801885396408E15BD
:103340009F057CF40F5F1F4F9091CE028091CF02BA
:10335000981739F087E795E00E943E02F8018183D3
:10336000EBCFCE5F6C2F70E048E356E087E7DF914C
:10337000CF911F910F91FF90EF900C94090FA82F00
:10338000B0E0A95FB94F9C91292F30E0F901EE0F11
:10339000FF1F2E0F3F1FF901E855FA4FE081F0E0C3
:1033A0009F01220F331FE20FF31FED57FA4F808169
:1033B0008F7B808380910506981306C0992379F04E
:1033C0009150909305060BC0882349F0E0910606C2
:1033D000EF5FE0930606F0E0E55DF94F90838FEF35
:1033E0008C930895DB01909105069C30A8F53091EF
:1033F0000606682F70E0332369F0E32FF0E0E55D07
:10340000F94F8081FB01E95FF94F808331503093A0
:10341000060607C0FB01E95FF94F90839F5F909319
:103420000506FB01E95FF94F808190E09C01220FC6
:10343000331F820F931F1A161B0634F41416150639
:103440001CF49A01AD0104C020E639E040E252E0EC
:1034500088559A4F0C9422168EE392E00C94560FE6
:10346000AF92BF92CF92DF92EF92FF920F931F9392
:10347000CF93DF93C82ED12CE601C756DB4FFE0158
:10348000ED57FF4F90819F3709F448C17B01182FFA
:10349000963069F480912906882349F066307105D9
:1034A00009F438C1109229068FEF809308011E316C
:1034B00000F584E0E816F104E1F0F601E95FF94F68
:1034C00080818C30B0F490E0FC01EE0FFF1F8E0F76
:1034D0009F1FFC01E855FA4F808190E0FC01EE0F40
:1034E000FF1F8E0F9F1FFC01ED57FA4F808186FD55
:1034F000FCC00EEE010F0C3060F461E070E082E081
:10350000E816F10411F060E070E0802F0E94ED15E4
:1035100002C01E3118F5E12FE695E695E695212FBC
:103520002770F0E0EA58FD4FE114F10421F08BE040
:10353000E816F10449F481E090E001C0880F2A9573
:10354000EAF79081892B09C081E090E001C0880FE3
:103550002A95EAF780959081892380835601AA0CE9
:10356000BB1CF501E65CFA4F118210828CE0E81674
:10357000F10408F0ACC0F701E157FF4F0C94792338
:103580000C3008F0CBC060E0812F0E94E810CD57CE
:10359000DF4F88818F3709F4C1C082E096C01E31A9
:1035A00008F0BCC060E0812F0E94E810CD57DF4FCB
:1035B00088818F3709F4B2C01882B0C01E3108F07C
:1035C000ADC062E0812F0E94E810CD57DF4F8881A7
:1035D0008F3711F08BE08883F501E65CFA4F81E0CC
:1035E00090E0918380839AC01E3108F097C0FE015D
:1035F000ED57FF4F8081833021F460E0812F0E94DE
:10360000B91061E0812F0E94E810CD57DF4F88810B
:103610008F3709F483C081E058C0133059F08BEF25
:10362000810F823038F087EF810F833018F01D3022
:1036300009F074C061E0812F0E94E81061E0812FE1
:103640000E94E81060E0812F0E94B910CD57DF4F33
:1036500088818F3709F462C083E037C01E3108F0DB
:103660005DC0CD57DF4F88818F3711F084E08883AC
:10367000F601E95FF94F80818F3FD9F190E0FC01BD
:10368000EE0FFF1F8E0F9F1FFC01E855FA4F808140
:1036900090E0FC01EE0FFF1F8E0F9F1FFC01ED5706
:1036A000FA4F808186FD3AC024C012501230B0F526
:1036B000CD57DF4F88818F3789F186E006C0CD571F
:1036C000DF4F88818F3751F18AE0888327C082E5F8
:1036D00092E0DF91CF911F910F91FF90EF90DF90DB
:1036E000CF90BF90AF900C94560F812F0E94BF19BE
:1036F00000CF4FEF5FEF6FEF7FEF812FDF91CF9123
:103700001F910F91FF90EF90DF90CF90BF90AF90FF
:103710000C94F2191E3108F4D0CEEBCEDF91CF918C
:103720001F910F91FF90EF90DF90CF90BF90AF90DF
:1037300008953FB7F89480917D0690917E06A09100
:103740007F06B091800626B5A89B05C02F3F19F0D3
:103750000196A11DB11D3FBFBA2FA92F982F882711
:10376000820F911DA11DB11DBC01CD0142E0660F6C
:10377000771F881F991F4A95D1F708951F920F92BE
:103780000FB60F9211242F933F938F939F93AF9374
:10379000BF938091780690917906A0917A06B091B6
:1037A0007B0630917C0623E0230F2D3720F4019611
:1037B000A11DB11D05C026E8230F0296A11DB11D54
:1037C00020937C068093780690937906A0937A06DE
:1037D000B0937B0680917D0690917E06A0917F0636
:1037E000B09180060196A11DB11D80937D06909336
:1037F0007E06A0937F06B0938006BF91AF919F9104
:103800008F913F912F910F900FBE0F901F901895A1
:10381000789484B5826084BD84B5816084BD85B5AB
:10382000826085BD85B5816085BD80916E008160B7
:1038300080936E001092810080918100826080935D
:10384000810080918100816080938100809180005F
:1038500081608093800080919100826080939100CC
:1038600080919100816080939100809190008160AF
:10387000809390008091C10084608093C10080910A
:10388000C10082608093C1008091C10081608093FB
:10389000C1008091C30081608093C3008091C0000B
:1038A00082608093C0008091C20081608093C200DA
:1038B00080917A00846080937A0080917A0082609F
:1038C00080937A0080917A00816080937A00809161
:1038D0007A00806880937A001092600310926502EB
:1038E000109264028091D70081608093D70080EAB3
:1038F0008093D80089B5806189BD89B5826089BD12
:1039000009B400FEFDCF61E070E080E090E00E942D
:103910004F118091D8008F7C80618093D800809176
:10392000E000807F8093E0008091E1008E7E8093B4
:10393000E1008DE08093E200559A209A89E180931E
:10394000190580911A0590911B050E942B24C091A6
:103950001905D0E0CE0101960E94932390931B0598
:1039600080931A05FC01EC0FFD1F108222E0DC01A0
:103970002C9325E011962C93AE01425051096EE92B
:1039800071E002960E94B92486E797E19093710254
:103990008093700281EF91E190936F0280936E02A9
:1039A0008DEE95E190936D0280936C0280E795E136
:1039B00090936B0280936A0280E39AE1909369028C
:1039C0008093680283E697E1909367028093660292
:1039D00089EE92E1909373028093720283EA92E1FE
:1039E000909375028093740281E08093760589E458
:1039F00094E02FEF3FEF30935604209355049093BB
:103A00001805809317059093DA048093D90489ED03
:103A100094E00E94131089E994E00E944D06C09141
:103A200007016AE070E080E090E00E944F11CC2333
:103A3000B1F30E94A31225E0D22ECC24C39402E05D
:103A400010E0EE24E394F12C80917A02882309F4AB
:103A500048C0D0917602D0FF98C380E00E949010B9
:103A6000892B09F492C3C1E0D1FF06C081E00E9416
:103A70009010892B09F08BC3D2FF06C082E00E9410
:103A80009010892B09F085C3D3FF06C083E00E9404
:103A90009010892B09F07FC3D4FF06C084E00E94F8
:103AA0009010892B09F079C3D5FF06C085E00E94EC
:103AB0009010892B09F073C3D6FF06C086E00E94E0
:103AC0009010892B09F06DC3D7FF06C087E00E94D4
:103AD0009010892B09F067C340E06C2F80E00E94B2
:103AE000CB1880917B02882309F448C0D0917702DB
:103AF000D0FF5BC388E00E949010892B09F455C366
:103B0000C1E0D1FF06C089E00E949010892B09F026
:103B10004EC3D2FF06C08AE00E949010892B09F0A4
:103B200048C3D3FF06C08BE00E949010892B09F098
:103B300042C3D4FF06C08CE00E949010892B09F08C
:103B40003CC3D5FF06C08DE00E949010892B09F080
:103B500036C3D6FF06C08EE00E949010892B09F074
:103B600030C3D7FF06C08FE00E949010892B09F068
:103B70002AC340E06C2F81E00E94CB1880917C0228
:103B8000882309F448C0D0917802D0FF1EC380E199
:103B90000E949010892B09F418C3C1E0D1FF06C020
:103BA00081E10E949010892B09F011C3D2FF06C059
:103BB00082E10E949010892B09F00BC3D3FF06C04D
:103BC00083E10E949010892B09F005C3D4FF06C041
:103BD00084E10E949010892B09F0FFC2D5FF06C036
:103BE00085E10E949010892B09F0F9C2D6FF06C02A
:103BF00086E10E949010892B09F0F3C2D7FF06C01E
:103C000087E10E949010892B09F0EDC240E06C2FF3
:103C100082E00E94CB1880917D028823C1F1D0916F
:103C20007902D0FFE2C288E10E949010892B09F44A
:103C3000DCC2C1E0D1FF06C089E10E949010892B4F
:103C400009F0D5C2D2FF06C08AE10E949010892BEC
:103C500009F0CFC2D3FF06C08BE10E949010892BE0
:103C600009F0C9C2D4FF06C08CE10E949010892BD4
:103C700009F0C3C2D5FF06C08DE10E949010892BC8
:103C800009F0BDC240E06C2F83E00E94CB18809108
:103C9000170590911805DC01ED91FC910084F185E8
:103CA000E02D0995892B09F4CEC1809117059091DB
:103CB0001805DC01ED91FC910284F385E02D099556
:103CC0009C018F3FBFEF9B0711F3982F8091E40475
:103CD000882309F492C0973F09F07EC01092E40453
:103CE000A091DC04B091DD046C916137C1F16937BA
:103CF00009F05CC0E0911105F0911205309739F29E
:103D00008091E5049091E6048330910538F420E039
:103D100030E040E050E060E070E01BC0BD016D5F4E
:103D20007F4F03970E94FA0FBC016D5F7F4F80E0C9
:103D30000E94CB0FE091DC04F091DD049F012D5F28
:103D40003F4F428150E0618170E0E0911105F091B8
:103D500012058091F3049091F404099598CF809115
:103D60000D0590910E05892B09F491CFBD016F5F70
:103D70007F4F8091E5049091E60401970E94FA0F2D
:103D8000BC016F5F7F4F80E00E94CB0F6091DC042D
:103D90007091DD046F5F7F4FE0910D05F0910E058E
:103DA0008091F9049091FA04099571CFE0910F0583
:103DB000F0911005309709F46ACF9D012F5F3F4FB6
:103DC0004091E5045091E604415051098091FB0473
:103DD0009091FC0409955BCF6091E5047091E60435
:103DE000822F0E94CB0F8091E5049091E60401960A
:103DF0009093E6048093E5044ACF6091E2047091C9
:103E0000E3046115710509F4AFC027FDADC0615031
:103E100071097093E3046093E204822F0E94CB0F38
:103E20008091E2049091E304892B09F030CF8091D6
:103E3000E004882309F42BCF803D09F47FC030F4DF
:103E4000803939F1803C09F466C08BC0843FE1F1D0
:103E5000853F09F44DC0803E09F083C0E091FF0426
:103E6000F0910005309709F47CC0A091DC04B0917A
:103E7000DD048C9111964C9150E090E8899F400DA3
:103E8000511D11246091E1048091E7049091E804B0
:103E900067C0E0910105F0910205309709F461C017
:103EA000A091DC04B091DD048C9111964C9150E00E
:103EB000A0E88A9F400D511D11246091E10480917A
:103EC000E9049091EA044CC0E0910705F0910805DF
:103ED000309709F446C0A091DC04B091DD044C9108
:103EE00050E011966C918091EF049091F00438C0ED
:103EF000E0910905F0910A05309799F1A091DC0451
:103F0000B091DD044C9150E011966C918091F104D8
:103F10009091F20425C0E0910305F09104053097DB
:103F200001F1A091DC04B091DD044C9150E060916E
:103F3000E1048091EB049091EC0412C0E09105053E
:103F4000F0910605309769F0A091DC04B091DD0492
:103F50004C9150E06091E1048091ED049091EE0469
:103F600009951092E00493CE903F30F4822F8F7029
:103F70008093E104922F907F903F79F158F4903C28
:103F800029F118F49039E9F082CE903DF9F0903E95
:103F9000C1F07DCE993F09F449C028F48CE0890F27
:103FA000823078F074CE9F3F09F071CE1092E30416
:103FB0001092E2041092E0041092E10480E090E09C
:103FC00013C01093E3040093E20404C0F092E304EE
:103FD000E092E2049093E0045ACEC092E40410927E
:103FE000E6041092E50453CE2091DE043091DF0404
:103FF0008217930748F4E091DC04F091DD04E80FA8
:10400000F91F10820196F0CF1092E4041092E6049A
:104010001092E504E0911505F0911605309709F42A
:1040200036CE8091FD049091FE040BC0E091130503
:10403000F0911405309709F42ACE8091F5049091FF
:10404000F604099524CE8FB7F894409178065091E4
:10405000790660917A0670917B068FBF8090AA02E4
:104060009090AB02A090AC02B090AD0220910901FB
:1040700030910A01C901A0E0B0E0481959096A0964
:104080007B0984179507A607B70708F04FC0880D6E
:10409000991DAA1DBB1D8093AA029093AB02A09309
:1040A000AC02B093AD029CE1A92E95E0B92ECEEE04
:1040B000CC30B8F4F5018081823099F48091A80267
:1040C0009091A9020C2E02C0959587950A94E2F76B
:1040D00080FF07C08C2F0E942411BC018C2F0E94EE
:1040E000A50ECF5FFFEFAF1ABF0ACC3009F7809162
:1040F000080187FD1BC0C0E02C2F30E08091080133
:10410000082E000C990B8217930784F0D29EF001C1
:10411000D39EF00D1124E058FD4F618172812481FE
:10412000438180810E940D19CF5FE6CF8091EE051B
:1041300087FD28C0812C882D90E02091EE05022E6D
:10414000000C330B28173907ECF0FC01E453FA4F4D
:104150009280692D8CEC95E00E94E402EC01892BA1
:1041600079F087E0891508F04CC080917E0290912B
:104170007F02C817D90721F444C087EF0E94BE0F01
:104180008394D9CF0E94B2095FCCC0E06DCCC260ED
:1041900073CCC46079CCC8607FCCC06185CCC06270
:1041A0008BCCC06491CCC06897CCC0E0AACCC26074
:1041B000B0CCC460B6CCC860BCCCC061C2CCC0625C
:1041C000C8CCC064CECCC068D4CCC0E0E7CCC26060
:1041D000EDCCC460F3CCC860F9CCC061FFCCC06248
:1041E00005CDC0640BCDC06811CDC0E023CDC26049
:1041F00029CDC4602FCDC86035CDC0613BCDC06234
:1042000041CDE92DF0E0EE0FFF1FEA52FA4FA080FA
:10421000B180E881F9810084F185E02DCE01099516
:10422000181619060CF0ACCF80EF0E94BE0F80E686
:104230000E94BE0F892D80640E94BE0FA114B1049C
:1042400019F1E881F9810084F185E02DCE0109950D
:10425000A816B906CCF41A141B040CF08ECFE88112
:10426000F9810284F385E02DCE010995982E8F7790
:104270000E94BE0F892D881F8827881F0E94BE0FAD
:1042800091E0A91AB108E7CFE881F9810084F185AE
:10429000E02DCE0109955C01DECF1092AF031092A4
:1042A000AE0388EE93E0A0E0B0E08093B00390937B
:1042B000B103A093B203B093B30322E331E0309390
:1042C000AD032093AC032DEC30E03093B903209381
:1042D000B8032CEC30E03093BB032093BA0328ECF6
:1042E00030E03093BD032093BC0329EC30E03093E1
:1042F000BF032093BE032AEC30E03093C103209328
:10430000C0032EEC30E03093C3032093C20310921D
:10431000C5031092C6031092C7031092C8031092EF
:104320004C0410924B0480934D0490934E04A09340
:104330004F04B093500424E431E030934A042093B6
:1043400049042FEF3FEF309356042093550429E999
:1043500034E01092DA041092D9043093DD042093F3
:10436000DC0440E450E05093DF044093DE041092FC
:10437000E0041092E1041092E3041092E20410921F
:10438000E4041092E6041092E5041092E8041092FE
:10439000E7041092EA041092E9041092EC041092DF
:1043A000EB041092EE041092ED041092F0041092BF
:1043B000EF041092F2041092F1041092F80410929B
:1043C000F7041092FA041092F9041092FC0410926F
:1043D000FB041092FE041092FD0410920C05109242
:1043E0000B051092DB041092190510921B05109218
:1043F0001A051092760549E152E05093000540936A
:10440000FF044FE052E0509302054093010541EF55
:1044100051E0509304054093030547EE51E050935B
:1044200006054093050545E052E05093080540938A
:1044300007054BEF51E050930A054093090546EEFE
:1044400051E050930E0540930D054BED51E0509314
:10445000100540930F0540EC56E050931205409331
:1044600011053093F4042093F30443E652E0509393
:104470001405409313053093F6042093F50423EDBF
:1044800031E0309316052093150510927A051092AD
:10449000790580937B0590937C05A0937D05B0936F
:1044A0007E0586E591E0909378058093770588E610
:1044B00091E09093CD058093CC051092F005109279
:1044C000EF051092F2051092F1051092F40510928A
:1044D000F3051092F6051092F5058FEF8093EE0527
:1044E0008091A705A8EAB5E09FEF48EB5BE08C3030
:1044F00078F48C93282F30E0F901EE0FFF1F2E0F78
:104500003F1FF901ED57FA4F528341838F5F01C07E
:104510009C93139625E0AC3CB20749F78093A7051E
:1045200008950F931F93CF93DF93EC01162F042F61
:104530001B821A8288EE93E0A0E0B0E08C839D831A
:10454000AE83BF8380E291E0998388831F8A1E8AAD
:10455000198E188E1B8E1A8E1D8E1C8E6E8D6E7F80
:104560006D7F6E8F6695617081E06827842F0E9451
:10457000B91061E0802F0E94E810802F90E0FC01CC
:10458000E15EFD4FE491E88BFC01E050FE4FE491C9
:10459000F0E0EE0FFF1FEE50FE4F859194919A8B45
:1045A000898B60E0812F0E94E8108E8D81FD04C010
:1045B00061E0812F0E94B9101C87812F90E0FC01DF
:1045C000E15EFD4FE491ED87FC01E050FE4FE49188
:1045D000F0E0EE0FFF1FEC51FE4F859194919F8705
:1045E0008E87DF91CF911F910F910895052E97FB34
:1045F0001EF400940E940D2357FD07D00E9428232B
:1046000007FC03D04EF40C940D2350954095309543
:1046100021953F4F4F4F5F4F08959095809570952E
:1046200061957F4F8F4F9F4F08950E944A23A59F0A
:10463000900DB49F900DA49F800D911D112408959D
:10464000B7FF0C9415230E941523821B930B08952A
:10465000A1E21A2EAA1BBB1BFD010DC0AA1FBB1F86
:10466000EE1FFF1FA217B307E407F50720F0A21BF8
:10467000B30BE40BF50B661F771F881F991F1A9465
:1046800069F760957095809590959B01AC01BD018F
:10469000CF010895A29FB001B39FC001A39F700DE9
:1046A000811D1124911DB29F700D811D1124911D3A
:1046B0000895991B79E004C0991F961708F0961B7E
:1046C000881F7A95C9F78095089597FB072E16F4F1
:1046D000009407D077FD09D00E947F2307FC05D006
:1046E0003EF4909581959F4F0895709561957F4F09
:1046F0000895EE0FFF1F0590F491E02D0994AA1B79
:10470000BB1B51E107C0AA1FBB1FA617B70710F0BC
:10471000A61BB70B881F991F5A95A9F780959095EE
:10472000BC01CD0108950F931F93CF93DF93823087
:10473000910510F482E090E0E0918306F091840608
:1047400020E030E0A0E0B0E0309719F140815181E5
:104750000281138148175907C8F08417950769F437
:10476000109731F012960C93129713961C9327C052
:10477000009383061093840622C02115310519F099
:104780004217530718F49A01BD01EF01DF01F80148
:10479000DBCF21153105F9F0281B390B2430310509
:1047A00080F48A819B816115710521F0FB0193835F
:1047B000828304C09093840680938306FE01329620
:1047C00044C0FE01E20FF31F8193919322503109FF
:1047D000398328833AC02091810630918206232BA9
:1047E00041F42091110130911201309382062093FF
:1047F000810620910F01309110012115310541F4FE
:104800002DB73EB74091130150911401241B350B75
:10481000E0918106F0918206E217F307A0F42E1BC7
:104820003F0B2817390778F0AC014E5F5F4F241714
:10483000350748F04E0F5F1F509382064093810664
:104840008193919302C0E0E0F0E0CF01DF91CF913E
:104850001F910F910895CF93DF93009709F481C0C2
:10486000FC01329713821282A0918306B0918406D4
:10487000109781F420813181820F931F209181064E
:10488000309182062817390751F5F0938206E0939C
:10489000810667C0ED0120E030E0CE17DF0740F46D
:1048A0004A815B819E0141155105F1F0EA01F5CF86
:1048B000D383C28340815181840F951FC817D907C4
:1048C00059F488819981840F951F02969183808382
:1048D0008A819B81938382832115310529F4F0938A
:1048E0008406E09383063DC0E901FB83EA83499196
:1048F0005991C40FD51FEC17FD0761F48081918198
:10490000840F951F0296E9019983888382819381A0
:104910009B838A83E0E0F0E012968D919C9113973F
:10492000009719F0FD01DC01F7CF8D919C91119753
:104930009D012E5F3F4F820F931F20918106309182
:1049400082062817390769F4309729F410928406F3
:104950001092830602C013821282B0938206A09343
:104960008106DF91CF91089581E090E0F8940C9456
:10497000C824FB01DC014150504048F001900D92E9
:104980000020C9F701C01D9241505040E0F7089542
:04499000F894FFCFC9
:1049940000E1000000000000FF1300FFFFFFFF0024
:1049A400008506800000C180810000000000000036
:1049B400100AB20892110F0A4A016201F7090000B5
:1049C40000004409B208DC0890090D09EB08FF084F
:1049D40000000000BC09940A1A0BD209DD09420B3D
:1049E4001E0B00000000C211951192110F0A8911CB
:1049F4003E022F02000000005202C2012003020303
:104A04002F55736572732F6F62727565636B6E6574
:104A1400722F4465736B746F702F5374616E64618D
:104A240072644669726D617461506C75732F53744E
:104A3400616E646172644669726D617461506C7513
:104A4400732E696E6F0053706563696679207365B0
:104A54007269616C20525820616E64205458207031
:104A6400696E730031302D6269742061646472650B
:104A74007373696E67206E6F7420737570706F72D4
:104A840074656400746F6F206D616E792071756553
:104A940072696573004932433A20546F6F206D6127
:104AA4006E792062797465732072656365697665D1
:104AB40064004932433A20546F6F20666577206260
:104AC40079746573207265636569766564004D6108
:104AD4007820736572766F7320617474616368659E
:104AE4006400556E6B6E6F776E2070696E206D6F0B
:044AF40064650000F5
:2070000055C000006EC000006CC000006AC0000068C0000066C0000064C0000062C0000043
:2070200060C000005EC00000F2C400005AC0000058C0000056C0000054C0000052C00000EE
:2070400050C0000078C000004CC000004AC0000048C0000046C0000044C0000042C00000BE
:2070600040C000003EC000003CC000003AC0000038C0000036C0000034C0000032C0000048
:2070800030C000002EC000002CC000002AC0000028C0000026C0000024C0000022C00000A8
:2070A00020C000001EC000001CC0000011241FBECFEFDAE0DEBFCDBF11E0A0E0B1E0E2E3BC
:2070C000FFE702C005900D92A83AB107D9F711E0A8EAB1E001C01D92AE3BB107E1F78FD30B
:2070E00026C78ECFF89410926F0010928100109285001092840081E085BF15BE47985D9AEB
:20710000289A0C94000008952091B2013091B3012F5F3F4F3093B3012093B201932F37FFA6
:2071200003C08EEF831B982F990F921710F447980895479A08951F920F920FB60F9211246E
:207140002F938F939F93EF93FF9310928500109284008091A8019091A901009741F00197D3
:207160009093A9018093A801892B09F45D9A8091AA019091AB01009741F001979093AB0126
:207180008093AA01892B09F4289AE0E0F0E0859194918F5F9F4F49F08091AC019091AD0151
:2071A00001969093AD018093AC01FF91EF919F918F912F910F900FBE0F901F90189584E0BC
:2071C0008093E9000DC08091E8008B778093E80003C08EB3882351F08091E80082FFF9CFBE
:2071E0008091E80085FFEFCF8091F1000895982F83E08093E9008091E80085FD0DC0809136
:20720000E8008E778093E80003C08EB3882369F08091E80080FFF9CF9093F1005D9884E6CB
:2072200090E09093A9018093A80108954F925F926F927F928F929F92AF92BF92CF92DF921E
:20724000EF92FF920F931F93CF93DF9384E08093E9008091E80082FF57C2289884E690E067
:207260009093AB018093AA01AADF182F853481F48CE49DE19093AD018093AC0107B600FC4B
:20728000FDCFF999FECF81E180935700E89503C0843519F494DF8DE00DC28C34E1F38035F9
:2072A000D1F3843721F484E4A2DF80E003C2813611F489E5FFC18134B1F481DF182F7FDFE3
:2072C00090E0880F991FAA2797FDA095BA2F312F330F20E0442737FD4095542F822B932B68
:2072E000A42BB52BB8C1803711F483E5E3C1833549F4C0E0D1E089917ADF21E0C730D20714
:20730000D1F7D9C1863521F481E371DF80E3D2C1833731F487E86BDF85E969DF8EE1CAC149
:207320008536B9F4E0E0F0E093E085E090935700E89507B600FCFDCF80935700E89507B65D
:2073400000FCFDCFE058FF4FA0E7E030FA0771F7A2CF823739F4E1E0F0E089E08093570024
:207360008491A8C1863439F4E0E0F0E089E08093570084919FC18E3439F4E3E0F0E089E0E5
:2073800080935700849196C1813539F4E2E0F0E089E08093570084918DC1823631F489E521
:2073A00026DF80E024DF80E885C1823419F0873609F0E5C01092AD011092AC0100DF082FE8
:2073C000FEDEF82EFCDE682E8554823008F071C1902F80E0CF2DD0E0C82BD92B10926F00B3
:2073E000173609F04BC081E180935700E895DD24CC24C3943FC0E090AE01F090AF010091CC
:20740000B0011091B101B6E46B16D9F4ED2DF0E0EE29FF29E4918E2FEADEDD2081F082E08D
:2074200090E0A0E0B0E0E80EF91E0A1F1B1FE092AE01F092AF010093B0011093B101DC2470
:2074400018C0D801C701B695A7959795879559D5CEDE82E090E0A0E0B0E0E80EF91E0A1FF2
:207460001B1FE092AE01F092AF010093B0011093B1012197209709F0BECF7DC08090AE01F5
:207480009090AF01A090B001B090B10196E4691609F05DC083E0F40180935700E89507B63E
:2074A00000FCFDCF54C0F6E46F1661F5772031F1E090AE01F090AF010091B0011091B1019E
:2074C0007EDED82ECC24852D90E08C299D29F7010C0140925700E895112482E090E0A0E08B
:2074E000B0E0E80EF91E0A1F1B1FE092AE01F092AF010093B0011093B10102C060DE582E1A
:20750000742423C0E090AE01F090AF010091B0011091B10116950795F794E79450DE682FFA
:20752000C701F7D48091AE019091AF01A091B001B091B1010296A11DB11D8093AE01909349
:20754000AF01A093B001B093B101219704C05524772444244394209709F0A5CF96E46916B6
:2075600041F485E0F40180935700E89507B600FCFDCF8DE03CDE82E080936F009CC0833492
:2075800071F40091AE011091AF0119DE90E021E0F8010C0120935700E89511247CCE8336C8
:2075A00019F5E090AE01F090AF010091B0011091B10105DEF701E16090E021E00C0120938C
:2075C0005700E895112482E090E0A0E0B0E0E80EF91E0A1F1B1FE092AE01F092AF0100936A
:2075E000B0011093B10157CE8D3661F4E091AE01F091AF0185E080935700E89507B600FCF2
:20760000FDCF49CE823551F4E091AE01F091AF0105911491812FEBDD802F4CC0843421F5FE
:20762000E090AE01F090AF010091B0011091B10116950795F794E794C2DD682FC70169D4DE
:207640008091AE019091AF01A091B001B091B1010296A11DB11D8093AE019093AF01A093D8
:20766000B001B093B10117CE843609F5E090AE01F090AF010091B0011091B101D801C70142
:20768000B695A795979587953CD4B1DD82E090E0A0E0B0E0E80EF91E0A1F1B1FE092AE010A
:2076A000F092AF010093B0011093B10104C08B3111F08FE39CDD83E08093E9009091E8002B
:2076C0008091E8008E778093E80095FF04C010C08EB38823C9F08091E80080FFF9CF809193
:2076E000E8008E778093E80003C08EB3882361F08091E80080FFF9CF84E08093E9008091F1
:20770000E8008B778093E800DF91CF911F910F91FF90EF90DF90CF90BF90AF909F908F90AC
:207720007F906F905F904F9008959091B601892F8F77813249F58091B7018032A1F081328A
:2077400019F5913A09F58091E800877F8093E8008DE091E067E070E00BD28091E8008B770B
:207760008093E8000895913279F48091E800877F8093E8008DE091E067E070E05DD2809192
:20778000E8008E778093E800089582E061EC42E0B5D083E061E842E1B1D084E060E842E1EF
:2077A000ADC084B7877F84BF88E10FB6F89480936000109260000FBE20E880E090E00FB63F
:2077C000F89420936100809361000FBE81E085BF92E095BF3F9A209A559AE1E6F0E02083A1
:2077E000108247985D9A289A109289008AEF8093880090936F0083E080938100F0C0409116
:20780000000850910108109201081092000894B714BE88E10FB6F8948093600010926000D5
:207820000FBE292F30E0F901E270F07091FD18C090FF05C0859194918F5F9F4F81F423FFFF
:207840000FC08091090190910A014817590741F0E0E0F0E0859194918F5F9F4F09F042DC64
:20786000A0DF78941092AD011092AC010CC0DEDC36D38091AC019091AD0181549F4110F00D
:207880001092140141DC80911401882381F78091E00081608093E00025DC80E090E0089598
:2078A000FA01923049F0933061F09130F9F485E191E022E130E01EC087E291E02EE330E04D
:2078C00019C0882329F485E691E024E030E012C0813029F489E691E022E230E00BC0823006
:2078E00029F48DE891E028E130E004C080E090E020E030E091838083C90108958093E9004E
:207900008091EB0081608093EB001092ED006093EC004093ED008091EE00881F8827881F62
:2079200008958091B60188238CF403C08EB38823B1F08091E80082FFF9CF8091E8008B772A
:207940008093E80008958EB3882349F08091E80080FFF9CF8091E8008E778093E800089594
:20796000EF92FF920F931F9345D04CD008ED10E0F80180818F77808380818068808380819B
:207980008F7D808319BC1EBA1092B40180EEE82EF12CF70180818B7F8083F8018081816052
:2079A000808380E060E042E0A9DFE1EEF0E080818E7F8083E2EEF0E0808181608083808144
:2079C00088608083F70180818E7F8083F8018081806180831F910F91FF90EF900895E7ED06
:2079E000F0E08081816080838AE482BF81E08093B501B6CFE8EDF0E080818E7F808310921C
:207A0000E20008951092DA001092E10008951F920F920FB60F9211242F933F934F935F93F6
:207A20006F937F938F939F93AF93BF93EF93FF938091DA0080FF1BC08091D80080FF17C0B2
:207A40008091DA008E7F8093DA008091D90080FF0BC080E189BD82E189BD09B400FEFDCF36
:207A600081E08EBB3BD203C019BC1EBA37D28091E10080FF17C08091E20080FF13C0809138
:207A8000E2008E7F8093E2008091E20080618093E2008091D80080628093D80019BC85E049
:207AA0008EBB1CD28091E10084FF2CC08091E20084FF28C080E189BD82E189BD09B400FEC5
:207AC000FDCF8091D8008F7D8093D8008091E1008F7E8093E1008091E2008F7E8093E20012
:207AE0008091E20081608093E2008091B401882331F48091E30087FD02C081E001C084E067
:207B00008EBBECD18091E10083FF21C08091E20083FF1DC08091E100877F8093E10082E06A
:207B20008EBB1092B4018091E1008E7F8093E1008091E2008E7F8093E2008091E2008061E9
:207B40008093E20080E060E042E0D8DEC7D1FF91EF91BF91AF919F918F917F916F915F9130
:207B60004F913F912F910F900FBE0F901F9018959C014091BC015091BD014617570718F49D
:207B8000F90190E044C06115710511F0AB01F8CF8091E8008E778093E80040E050E0F0CF0F
:207BA0008EB3882309F444C0853009F443C08091E80083FF02C081E008958091E80082FD70
:207BC00031C08091E80080FF22C08091F3009091F200782F60E0292F30E0262B372B07C07A
:207BE00081918093F100415050402F5F3F4F4115510519F02830310598F390E02830310566
:207C000009F491E08091E8008E778093E8004115510531F6992321F605C08EB3882341F075
:207C2000853041F08091E80082FFF7CF80E0089582E0089583E008959C016115710529F47C
:207C40008091E8008B778093E800F90126C08EB3882391F1853091F18091E80083FF02C06C
:207C600081E008958091E80082FFF1CF06C08091F10081936150704059F02091F300809191
:207C8000F200322F20E090E0822B932B892B79F78091E8008B778093E80061157105B9F601
:207CA00005C08EB3882341F0853041F08091E80080FFF7CF80E0089582E0089583E00895C2
:207CC0000F931F93DF93CF9300D0CDB7DEB7E6EBF1E08091F100819381E0EE3BF807C9F792
:207CE00024DD8091E80083FFE4C08091B6019091B701953009F46DC0963040F4913081F1A7
:207D0000913070F0933009F0D4C02AC0983009F4A3C0993009F4B2C0963009F0CAC07CC023
:207D2000803809F4C6C0823809F0C3C08091BA0187708093E9008091EB001092E9002091DB
:207D4000E800277F2093E80090E025E0969587952A95E1F781708093F1001092F10087C0D8
:207D6000882319F0823009F0A4C08F71823009F0A0C08091B801882331F52091BA01277097
:207D800009F497C02093E9008091EB0080FF1BC0933021F48091EB00806213C08091EB0018
:207DA00080618093EB0081E090E002C0880F991F2A95E2F78093EA001092EA008091EB00E5
:207DC00088608093EB001092E9008091E800877F51C0882309F06DC01091B8011F770FB79B
:207DE000F8948091E800877F8093E8009ADD8091E80080FFFCCF8091E3008078812B809398
:207E0000E30080688093E300112311F482E001C083E08EBB0FBF4DC08058823008F049C033
:207E20008091B8019091B9016091BA01AE014F5F5F4F36DDBC01009709F43BC08091E8008E
:207E4000877F8093E80089819A8192DE8091E8008B778093E8002DC0803859F58091E800AA
:207E6000877F8093E8008091B4018093F1008091E8008E778093E80054DD1BC08823C9F4CA
:207E80009091B8019230A8F48091E800877F8093E8009093B40145DD8091B401882331F420
:207EA0008091E30087FD02C081E001C084E08EBB6CDC8091E80083FF0AC08091EB0080624E
:207EC0008093EB008091E800877F8093E8000F900F90CF91DF911F910F91089508951F9360
:207EE0008EB3882361F01091E9001092E9008091E80083FF01C0E4DE17701093E9001F916F
:207F00000895F999FECF92BD81BDF89A992780B50895262FF999FECF1FBA92BD81BD20BDBD
:207F20000FB6F894FA9AF99A0FBE01960895F894FFCF4341544552494E4100777700080031
:207F40000000000000080112011001020000084123360001000201000109023E00020100FF
:207F600080320904000001020201000524001001042402040524060001070582030800FF0C
:207F800009040100020A000000070504021000010705830210000104030904220341007216
:207FA000006400750069006E006F0020004C0065006F006E006100720064006F0000001836
:1A7FC00003410072006400750069006E006F0020004C004C004300000000D7
:00000001FF
