:100000000C9489000C94B1000C94B1000C9426154A
:100010000C9426150C9426150C94B1000C94B10088
:100020000C94B1000C94B1000C94B1000C940A1023
:100030000C94B1000C94B1000C94B1000C94B1007C
:100040000C9476140C94B1000C94C3090C949D0983
:100050000C94B1000C94B1000C94B1000C94B1005C
:100060000C945A0E0C94B100D9030004C7031A046F
:100070003A04780463047804780478046F04E9038C
:100080008C089D089D089D089D089D089D089D0859
:100090009D087A089D08E1079D0831089D08BF0763
:1000A00067079D089D089D089D089D083F069D08BF
:1000B0001C079D08AB070000000023002600290054
:1000C00000000000240027002A0000000000250096
:1000D00028002B00040404040404040402020202A5
:1000E00002020303030303030102040810204080FB
:1000F000010204081020010204081020000000087A
:1001000000020100000304070000000000000000DE
:100110002A1A11241FBECFEFD8E0DEBFCDBF25E0E5
:10012000AAE5B2E001C01D92AE3EB207E1F712E0CF
:10013000A0E0B1E0ECE6FAE302C005900D92AA352A
:10014000B107D9F710E0C9E8D0E004C02197FE015B
:100150000E94761BC838D107C9F70E9416160C9466
:10016000341D0C940000A82FB0E0A655BD4F9C9103
:10017000292F30E0F901EE0FFF1F2E0F3F1FF9016D
:10018000EC5AFA4FE081F0E09F01220F331FE20F9B
:10019000F31FE15DFA4F80818F7B80838091A802FD
:1001A000981306C0992379F091509093A8020BC040
:1001B000882349F0E091A902EF5FE093A902F0E003
:1001C000E75AFD4F90838FEF8C9308959EEF980F21
:1001D000923180F4E82FF0E0DF01AA51BB4F9C91EF
:1001E000913041F4EE0FFF1FE650FB4F60837183A7
:1001F0000C949D130895CF93863080F540910703AA
:100200005091080321E030E0672B81F4B90102C06E
:10021000660F771F8A95E2F7CB018095909584232E
:100220009523909308038093070318C0082E02C0FB
:10023000220F331F0A94E2F7242B352B3093080347
:10024000209307039091C202911108C0C82F0E9409
:100250002514BC018C2FCF910C94CB10CF91089515
:10026000BF92CF92DF92EF92FF920F931F93CF93A3
:10027000DF9300D0CDB7DEB7833008F081C0282FE0
:10028000220F220F220F285F253108F024E1B62E1D
:10029000F82EE82EEE0CEE0CEE0C30E0CC24C394DD
:1002A000E21610F58EEF8E0D8231D8F40E2D10E08F
:1002B000F801EA51FB4F9081923098F4DD24D394F9
:1002C0008C2D8B2109F4D12C000F111F913009F0D6
:1002D00043C03C29F801E650FB4F8D2D90E09183FF
:1002E0008083CC0CE394DCCFF1100AC03C7FF894FF
:1002F0008BB1632F609568233B21632B6BB92AC0B8
:1003000081E0F8121AC02B2D2323F89495B1832F86
:100310008F7380958923922F9F73892B85B988B11C
:10032000229526952695237032953695369533700D
:1003300030958323822B88B90DC03F70F89488B123
:10034000632F660F660F609568233B21330F330FD1
:10035000632B68B9789414C0DD2009F4BBCFF80191
:10036000E650FB4F80819181019709F4B3CF62E0A1
:100370008E2D2A8339830E94E9132A813981AACFDD
:100380000F900F90DF91CF911F910F91FF90EF9001
:10039000DF90CF90BF9008956F927F928F929F923F
:1003A000AF92BF92CF92DF92EF92FF920F931F9383
:1003B000CF93DF931F92CDB7DEB7982F3B018431E7
:1003C00008F004C1082F10E0F801EA51FB4F8081CA
:1003D000833009F490C0843009F0F8C09250923113
:1003E00008F0EDC0F801E655FD4FE080F12C670103
:1003F000CC0CDD1C603282E078070CF042C077FD47
:1004000005C0653B710524F4DB0104C0A0E001C018
:10041000A4EBB0E0F601EE0DFF1DEC5AFA4F81811E
:1004200028E830E04901881A910887FD9394880CE8
:10043000991C880C991C092C000CAA08BB08828105
:1004400028E532E0281B310987FD3395220F331F41
:10045000220F331FA901330F660B770B9A01AB01F3
:10046000281939094A095B090E94FB1C24EB30E07A
:1004700040E050E00E94D11C820E931EA41EB51EC7
:1004800001C04B01F601EE0DFF1DEC5AFA4F208121
:100490002C3008F094C0318188E890E0831B9109EA
:1004A00037FD9395880F991F880F991F8816990615
:1004B00084F0828148E552E0481B510987FD53953D
:1004C000440F551F440F551FC401481559050CF41E
:1004D000CA010297880F991F4FB7F89430E0F901CD
:1004E000EE0FFF1F2E0F3F1FF901E15DFA4F9283C0
:1004F00081834FBF64C0933049F08BEF890F823006
:1005000028F087EF890F833008F059C061E0892F08
:1005100099830E94E91399816114710411F460E0D8
:1005200005C08FEF6816710429F461E0892F0E94DD
:100530009D1345C0F801E450FF4FE491E330F9F01A
:1005400048F4E130B9F0E230A1F584B5806284BDB1
:1005500068BC35C0E730E9F0E83019F1E43049F51E
:100560008091800080628093800070928B00609206
:100570008A0025C084B5806884BD67BC20C0809196
:10058000800080688093800070928900609288006B
:1005900016C08091B00080688093B0006092B30074
:1005A0000EC08091B00080628093B0006092B40071
:1005B00006C080E8681671040CF0B7CFB0CF000F0A
:1005C000111FF801E650FB4F718260820F90DF919E
:1005D000CF911F910F91FF90EF90DF90CF90BF9040
:1005E000AF909F908F907F906F900895DB019091D6
:1005F000A8029C30A8F53091A902682F70E033233F
:1006000069F0E32FF0E0E75AFD4F8081FB01E655EA
:10061000FD4F808331503093A90207C0FB01E6559E
:10062000FD4F90839F5F9093A802FB01E655FD4F1D
:10063000808190E09C01220F331F820F931F1A16B6
:100640001B0634F4141615061CF49A01AD0104C0FF
:1006500020E639E040E252E08C5A9A4F0C94880F21
:1006600081E691E00C947C118F929F92AF92BF92A1
:10067000CF92DF92EF92FF920F931F93CF93DF936E
:100680001F92CDB7DEB7C82ED12C96012D593B4F06
:100690004901F901ED57FF4F90819F3709F457C188
:1006A000963041F49091C102992321F06630710592
:1006B00009F02FC17B01182F0EEF080F0231F8F45B
:1006C00064307105E1F0F601E655FD4F80818C3014
:1006D000B0F490E0FC01EE0FFF1F8E0F9F1FFC0196
:1006E000EC5AFA4F808190E0FC01EE0FFF1F8E0F55
:1006F0009F1FFC01E15DFA4F808186FD10C192EFE2
:10070000910F963068F461E070E082E0E816F10441
:1007100011F060E070E0892F99830E94FB009981BD
:10072000023118F5E12FE695E695E695812F877061
:10073000F0E0ED52FD4FE114F10421F02BE0E21660
:10074000F10449F421E030E001C0220F8A95EAF774
:100750008081282B09C021E030E001C0220F8A955A
:10076000EAF720958081282320835601AA0CBB1C20
:10077000F501E650FB4F118210823CE0E316F104D4
:1007800008F0B6C0F701EC5CFF4F0C94761B963076
:1007900008F0DDC0023120F460E0812F0E94E913EF
:1007A000F401ED57FF4F80818F3709F4D0C082E00C
:1007B0009DC0023108F0CBC060E0812F0E94E91398
:1007C000F401ED57FF4F80818F3709F4C0C01082CC
:1007D000BEC0023108F0BBC062E0812F0E94E91365
:1007E000F401ED57FF4F80818F3711F08BE080834C
:1007F000F501E650FB4F81E090E091838083A7C034
:10080000023108F0A4C0F401ED57FF4F808183301E
:1008100021F460E0812F0E949D1361E0812F0E94EE
:10082000E913F401ED57FF4F80818F3709F48FC032
:1008300081E05CC0133049F08BEF810F823028F0EB
:1008400087EF810F833008F082C061E0812F0E9422
:10085000E91361E0812F0E94E91360E0812F0E947B
:100860009D13F401ED57FF4F80818F3709F46FC05E
:1008700083E03CC0023108F06AC0F401ED57FF4F3D
:1008800080818F3711F084E08083F601E655FD4FBB
:1008900080818F3F09F447C090E0FC01EE0FFF1FFD
:1008A0008E0F9F1FFC01EC5AFA4F808190E0FC01F3
:1008B000EE0FFF1F8E0F9F1FFC01E15DFA4F80813D
:1008C00086FD45C030C01251123008F040C0F4011E
:1008D000ED57FF4F80818F37D1F186E007C0F401DB
:1008E000ED57FF4F80818F3791F18AE080832FC0D1
:1008F00085E791E00F90DF91CF911F910F91FF90CD
:10090000EF90DF90CF90BF90AF909F908F900C941E
:100910007C111092C1029FEF90930001CBCE812FEA
:100920000E94B300ECCE4FEF5FEF6FEF7FEF812FB0
:100930000F90DF91CF911F910F91FF90EF90DF907B
:10094000CF90BF90AF909F908F900C94F6020F9035
:10095000DF91CF911F910F91FF90EF90DF90CF909B
:10096000BF90AF909F908F9008950F931F93CF9358
:10097000DF9381E08093C20288E795E00E94F8153A
:100980008091C102882329F01092C1028FEF8093D9
:1009900000011092D6021092D3021092BE02109261
:1009A000D7021092D4021092BF021092D802109275
:1009B000D5021092C0020AEA12E0C0E0DFEF82EF37
:1009C0008C0F863018F462E070E006C08EEF8C0F5A
:1009D000823128F461E070E08C2F0E943403F8012A
:1009E000D1938F01CF5FC43151F710920803109259
:1009F00007031092A9021092A8021092C202DF917E
:100A0000CF911F910F910895FF920F931F93CF9352
:100A1000DF9300D0CDB7DEB7082F10E0F801ED521C
:100A2000FD4F9081F62EF92202541D4F411104C052
:100A3000F80190819F1511F12F2D30E03A83298321
:100A4000A091A304B091A4041097B1F0682FED9188
:100A5000FC9111976F7060690190F081E02DCD01DC
:100A6000099522E030E0AE014F5F5F4F62E070E039
:100A700083EA94E00E943C0DF801F0820F900F9001
:100A8000DF91CF911F910F91FF900895833020F552
:100A9000282F30E0F901EA52FD4F6083672BE1F027
:100AA000F901ED52FD4F9081811103C069B16C7F56
:100AB0000FC0813049F463B136B140E4349F9001F6
:100AC00011246F73622B04C066B16C7366956695D2
:100AD000692341E00C9404050895CF92DF92EF92D0
:100AE000FF920F931F93CF93DF931F92CDB7DEB783
:100AF000E82E6B01F42E6F3F8FEF780709F181E04C
:100B00008093A203E092C4031092A3031092C50342
:100B100083E295E029830E94E50A2981822F0E94C1
:100B20008811E091A602F091A702E230F10550F0A1
:100B3000EE0FFF1FEE0FFF1F35973197F1F702C041
:100B4000C12CD12C8091A1038111FCCF2F2D80E2EB
:100B50008F1508F420E281E08093A1038093A00325
:100B60009FEF90939F0310929E03920F90939D038B
:100B700080937C0380917C039E2D990F892B809319
:100B80007C0380917B03813061F410927B03809120
:100B90007C038093BB008091BC0083FDF8CF85EC83
:100BA00001C085EE8093BC008091A1038130E1F308
:100BB00080919E03821710F420919E03ADE7B3E06D
:100BC00041E153E0FA018E2F841B821718F48D91B6
:100BD0008193F9CF10923203209331030F2D10E04F
:100BE00030E0021713071CF486E891E005C02017D7
:100BF000310724F483EA91E00E947C11E0926602BE
:100C0000C0926702C12CD12CC016D10634F4909149
:100C1000310380913203981312C0F394F3946F2D33
:100C200070E046E652E087E70F90DF91CF911F9189
:100C30000F91FF90EF90DF90CF900C942F1183E2F3
:100C400095E00E94990AF601EA59FD4F82838FEFE1
:100C5000C81AD80AD9CFEF92FF920F931F93CF9360
:100C6000DF9390E0FC01E056F109EB31F10508F06B
:100C700064C2EA01162FE05CFF4F0C94761B2981B9
:100C8000922F987125FF03C08FEB91E05AC08881A5
:100C900031E026FB222720F92327983069F160F400
:100CA00091114BC23093A2038093C4031092A3030B
:100CB0001092C50302E007C0903109F43CC098319E
:100CC00009F46DC03AC2011778F4FE01E00FF11D7E
:100CD0008181608120E8829F6019112483E295E080
:100CE0000E94E50A0E5FEFCF81E00E94881183E148
:100CF00091E00197F1F721C24A816B81163069F4C6
:100D000030E8639FB0011124640F711D9D814C81F7
:100D1000E0E89E9F4019112406C0F0E86F9F40193B
:100D200011246FEF7FEFDF91CF911F910F91FF9013
:100D3000EF900C946D05E0910001E73054F08FEDD9
:100D400091E0DF91CF911F910F91FF90EF900C9464
:100D50007C119A814B81663069F430E8439FA00191
:100D60001124490F511D3D819C8160E8369F9019E7
:100D7000112406C0F0E84F9F901911244FEF5FEF48
:100D8000EF5FE093000135E0E302F0011124E1524E
:100D9000FD4F80835283418393832483CEC120916E
:100DA0000001121614F08FEF44C090E0622F022E63
:100DB000000C770B35E0492F50E06417750774F08D
:100DC000349FF001359FF00D1124E152FD4F408119
:100DD000481302C085E026C09F5FEDCF90E0FACFB8
:100DE0009830F8F4FA0131968E9FD0018F9FB00DA4
:100DF0001124A152BD4F3C91849FF001859FF00DBD
:100E00001124E152FD4F308311964D915C91129760
:100E10005283418313963C911397338314963C91EC
:100E200034839F5F492F50E064177507CCF68FEF2E
:100E3000820F8093000181C128818981623060F036
:100E400060E8869FC0011124820F911D009721F058
:100E50009093A7028093A6028091C10281116DC177
:100E6000C0E08EEE8C0F823028F466E070E08C2FAC
:100E70000E943403CF5FC431A1F781E08093C102A7
:100E800010923203109231031092A3031092C50303
:100E90001092A1038093A00310927B0361E082E192
:100EA0000E949D1361E083E10E949D138091B9002F
:100EB0008E7F8093B9008091B9008D7F8093B900B7
:100EC00088E48093B80085E48093BC0036C1653027
:100ED00008F433C11881F9800A81EB80CC818EEF50
:100EE000810F823108F029C1E12FF0E0E655FD4F76
:100EF00020812C30B0F430E0F901EE0FFF1F2E0FEF
:100F00003F1FF901EC5AFA4F208130E0F901EE0F52
:100F1000FF1F2E0F3F1FF901E15DFA4F808186FD13
:100F200008C180E8C89FA00111244E0D511D90E812
:100F3000099FB00111246F0D711D812F0E94F602CF
:100F400064E070E0812FDF91CF911F910F91FF90AE
:100F5000EF900C943403623008F4EFC0288189814B
:100F6000E0E88E9FC0011124820F911D009711F4BB
:100F700081E090E09093020180930101DEC0623035
:100F800008F4DBC0698170E0123091F08A81F0E8EA
:100F90008F9FC0011124682B792B133049F08B816E
:100FA00090E090E4899F902D88271124682B792B5D
:100FB0008881DF91CF911F910F91FF90EF900C945A
:100FC000CC0180EF0E94E5118CE60E94E511CEEF86
:100FD00084EF8C0F863038F482E00E94E5118AE0BD
:100FE0000E94E51109C0C13039F483E00E94E51187
:100FF00088E00E94E51108C08DEF8C0F8230A8F3C5
:1010000089EF8C0F833088F3C23130F484E00E9482
:10101000E5118EE00E94E51180EF8C0F823030F4F4
:1010200086E00E94E51181E00E94E5118FE70E94B1
:10103000E511CF5FC23121F1C23150F680E00E944C
:10104000E51181E00E94E5118BE00E94E51181E04D
:101050000E94E51181E00E94E51181E00E94E51106
:10106000B7CF662309F469C0C88180EF0E94E511FB
:101070008EE60E94E5118C2F0E94E511C43148F0E4
:1010800087EFDF91CF911F910F91FF90EF900C941C
:10109000E511D0E0FE01EA51FB4F80810E94E5118D
:1010A000CC0FDD1F8E0106501B4FF80180818F771A
:1010B0000E94E511F801808191819C012078232B09
:1010C00039F0880F892F881F990B8F770E94E511BF
:1010D000C650DB4F888199819C012227307C232BCD
:1010E00079F2990F880B990F982F881F8F770E949C
:1010F000E511C6CF80EF0E94E5118AE60E94E51156
:10110000C2EFC63010F48C2F01C08FE70E94E511AA
:10111000CF5FC630B1F7B4CF9A01462F60E688E7BB
:1011200095E0DF91CF911F910F91FF90EF900C947C
:10113000140B812F0E94B300F4CEDF91CF911F9149
:101140000F91FF90EF900895CF92DF92EF92FF9270
:101150000F931F93CF93DF936C017A018B01C0E053
:10116000D0E0CE15DF0589F0D8016D918D01D60153
:10117000ED91FC910190F081E02DC6010995892B3C
:1011800011F47E0102C02196ECCFC701DF91CF910F
:101190001F910F91FF90EF90DF90CF900895FC0189
:1011A000918D828D981761F0828DDF01A80FB11D9E
:1011B0005D968C91928D9F5F9F73928F90E00895C2
:1011C0008FEF9FEF0895FC01918D828D981731F07C
:1011D000828DE80FF11D858D90E008958FEF9FEFD0
:1011E0000895FC01918D228D892F90E0805C9F4FA6
:1011F000821B91098F739927089586EC93E00E94D2
:10120000F10821E0892B09F420E0822F0895FC01E8
:10121000848DDF01A80FB11DA35ABF4F2C91848D7F
:1012200090E001968F739927848FA689B7892C93B4
:10123000A089B1898C9180648C93938D848D98134F
:1012400006C00288F389E02D80818F7D8083089518
:10125000EF92FF920F931F93CF93DF93EC0181E006
:10126000888F9B8D8C8D981305C0E889F9898081C2
:1012700085FD24C0F62E0B8D10E00F5F1F4F0F73FE
:101280001127E02E8C8DE8120CC00FB607FCFACFA8
:10129000E889F989808185FFF5CFCE010E94070991
:1012A000F1CF8B8DFE01E80FF11DE35AFF4FF08265
:1012B0000B8FEA89FB898081806207C0EE89FF89F4
:1012C0006083E889F98980818064808381E090E08F
:1012D000DF91CF911F910F91FF90EF900895CF93E1
:1012E000DF93EC01888D8823C9F0EA89FB8980812E
:1012F00085FD05C0A889B9898C9186FD0FC00FB600
:1013000007FCF5CF808185FFF2CFA889B9898C9140
:1013100085FFEDCFCE010E940709E7CFDF91CF9186
:10132000089580E090E0892B29F00E94FD0881114A
:101330000C94000008950E94BD1C1F920F920FB6DE
:101340000F9211242F933F934F935F936F937F934B
:101350008F939F93AF93BF93EF93FF9386EC93E0AC
:101360000E940709FF91EF91BF91AF919F918F91DB
:101370007F916F915F914F913F912F910F900FBE91
:101380000F901F9018951F920F920FB60F92112475
:101390002F938F939F93EF93FF93E091D603F09158
:1013A000D7038081E091DC03F091DD0382FD12C060
:1013B00090818091DF038F5F8F732091E00382170C
:1013C00051F0E091DF03F0E0EA53FC4F958F8093FA
:1013D000DF0301C08081FF91EF919F918F912F9149
:1013E0000F900FBE0F901F90189508954A30510529
:1013F00051F4E62FF0E0EA51FB4F80818F3729F05E
:101400008AE0808302C080E0089581E00895E09141
:10141000D102F091D202309709F009940895862FF5
:10142000642FE091CF02F091D002309711F0A90122
:10143000099408950895862FE091C702F091C8029B
:10144000309711F0BA0109940895862FE091C902EE
:10145000F091CA02309711F0BA0109940895862FCD
:10146000E091C302F091C402309711F0BA010994DF
:101470000895862FE091C502F091C602309711F0D1
:10148000BA0109940895862FE091CB02F091CC0225
:10149000309711F0BA0109940895862FE091CD029A
:1014A000F091CE02309711F0BA010994089585EDBC
:1014B0008093BC008091BC0084FDFCCF1092A103FE
:1014C000089540915603262F30E0240F311D21321C
:1014D0003105DCF42091A1032430C9F4FC0180E043
:1014E00090E0861758F4309156032191DC01AC5CF2
:1014F000BC4FA30FB11D2C930196F3CF80915603DF
:10150000680F6093560380E0089581E0089582E0BB
:1015100008950895E091320380913103E81730F483
:10152000F0E0EF5EFC4F808190E008958FEF9FEF39
:1015300008959091320380913103981750F4E92F68
:10154000F0E0EF5EFC4F208130E09F5F909332032C
:1015500002C02FEF3FEFC90108958091310390E061
:1015600020913203821B91090895CF92DF92EF926E
:10157000FF920F931F93CF93DF937C01262F972F1A
:101580008A018091A203882391F0C62FD72F6E0184
:10159000C40ED51ECC15DD0571F06991D701ED9112
:1015A000FC910190F081E02DC7010995F3CF642FE4
:1015B000822F0E94610AC801DF91CF911F910F9184
:1015C000FF90EF90DF90CF900895CF93DF931F921D
:1015D000CDB7DEB769832091A2032223D1F02091F9
:1015E000C503203240F021E030E0FC013383228348
:1015F00080E090E015C08091A303E82FF0E0EC5567
:10160000FC4F998190838F5F8093A3038093C503E0
:1016100005C061E0CE0101960E94610A81E090E080
:101620000F90DF91CF9108958F929F92AF92BF92CA
:10163000CF92DF92EF92FF920F931F93CF93DF939E
:10164000EC01042F7901603609F0FFC1D9018C91BA
:10165000182F1F70807F803309F459C130F4803116
:1016600071F0803209F430C1F2C1803609F4D4C17E
:10167000803709F4DFC1803509F0E9C1A0C1F90163
:101680008280912CA12CB12CA7E0880C991CAA1C5B
:10169000BB1CAA95D1F7838190E0A0E0B0E02EE0DA
:1016A000880F991FAA1FBB1F2A95D1F7882A992A4C
:1016B000AA2ABB2A8181882A183060F4612FCE01C2
:1016C0000E94DF15009709F4C2C1B501A4010E9470
:1016D0004112BDC1453068F00481F580193001F137
:1016E00018F4183059F04EC01A3059F11B30D1F1AE
:1016F00049C08CE392E00E947C11A7C18BA19CA100
:10170000892B09F03FC08FE190E00E94901B6C0193
:1017100020E04F2D602F0E94C014DCA2CBA232C06B
:101720008DA19EA1892B71F58FE190E00E94901B05
:101730006C0120E04F2D602F0E94C014DEA2CDA2CC
:1017400021C08FA198A5892BE9F48FE190E00E9438
:10175000901B6C0120E04F2D602F0E94C014D8A672
:10176000CFA210C089A59AA5892B61F48FE190E0E2
:101770000E94901B6C0120E04F2D602F0E94C0142E
:10178000DAA6C9A6612FCE010E94DF15EC01892BD4
:1017900009F45DC1E02FF0E0EA51FB4F80818F3703
:1017A00011F08AE08083EF2DF0E0EA51FB4F808159
:1017B0008F3711F08AE080831B8E1A8E198E188E57
:1017C0001F8A1E8A60E079E08DE390E0A501940114
:1017D0000E94D11CF9012430310518F0C90103978A
:1017E00002C081E090E09D8F8C8F6C85663108F09F
:1017F00069C0C901969587958431910510F043978A
:1018000002C081E090E09F8B8E8B369718F0C90163
:10181000059702C081E090E0998F888FC901880FF9
:10182000991F280F391F36952795369527952D3006
:10183000310518F02C50310902C021E030E03B8F17
:101840002A8F90916800683050F021E06E3008F4E3
:1018500020E081E001C0880F2A95EAF701C084E00A
:10186000892B809368008C85883038F08E3040F06A
:10187000863148F020E030E008C02DE630E005C0B9
:101880002BE630E002C02CE630E03C8B2B8B88301E
:1018900030F491E001C0990F8A95EAF70EC0282F25
:1018A00030E08E3018F42850310902C02E50310932
:1018B00091E001C0990F2A95EAF79D8B8C8D9D8D43
:1018C0000197F1F7CE01BEC0612FCE010E94DF1556
:1018D0005C01892B09F4BBC01E2DCE2DDF2D229675
:1018E0009C2F9150911B901708F0B1C0D501ED913C
:1018F000FC918881DE0111976C91B0E88B9F601993
:1019000011240190F081E02DC5010995E8CFF9017E
:101910008181811127C02AA127300CF098C0812F26
:1019200090E0FC013596EE0FFF1FEC0FFD1F4330DA
:1019300070F0D70113968C91B0E88B9FC0011124F1
:10194000D70112963C91832B9183808302C0118230
:10195000108281E0820F8AA3C80FD11D87FDDA951E
:101960001A8375C0813009F072C09AA119161CF053
:101970008FEF8AA36CC080E0492F092E000C550B15
:10198000282F30E04217530744F0FE01E20FF31F07
:101990002281211761F08F5FF3CF80E008C088308B
:1019A00028F4FE01E20FF31F238122838F5F282F8B
:1019B00030E0421753079CF791509AA348C0612F1B
:1019C000CE010E94DF15EC01009709F440C01830E9
:1019D000E8F4E881F9810284F385E02D0995EA892C
:1019E000FB8980818F7E8083EA89FB898081877F64
:1019F0008083EA89FB8980818F778083EA89FB89EC
:101A000080818F7D80838A8D898F21C00E94A0155F
:101A1000CE010E94251C1BC0612FCE010E94DF1544
:101A20000097A9F0DC01ED91FC910284F385E02D93
:101A300009950DC0183058F0612FCE010E94DF15B6
:101A4000009729F00E94B61502C080E001C081E035
:101A5000DF91CF911F910F91FF90EF90DF90CF908A
:101A6000BF90AF909F908F900895009721F0805C79
:101A70009F4F0C94A81208952F923F925F926F92FD
:101A80007F928F929F92AF92BF92CF92DF92EF920E
:101A9000FF920F931F93CF93DF937C013901DA01FB
:101AA0005C90232B19F466246A94762C8A011A011F
:101AB000260E371EC0E0D0E0812C912C87E0C82E86
:101AC000D12C0215130509F444C08614970408F0BC
:101AD00068C05801F70180819181FC01A081B1812A
:101AE000F80121918F01E22F0C2E01C0EE0F0A9414
:101AF000EAF7652D6E2B6F77ED91FC9109958FEFCD
:101B0000881A980AD5016C9170E0C6018C1B9D0B58
:101B100002C0759567958A95E2F7562E2196C730D3
:101B2000D10578F28614970461F2F70180819181E2
:101B3000DC01ED91FC91652D6F770190F081E02D36
:101B40000995BFEF8B1A9B0A551C5524551C2797E6
:101B5000E6CF209731F18614970418F5F7018081BC
:101B60009181DC01ED91FC9161E070E001C0660FB4
:101B7000CA95EAF7615065210190F081E02DDF916F
:101B8000CF911F910F91FF90EF90DF90CF90BF907A
:101B9000AF909F908F907F906F905F903F902F902D
:101BA0000994DF91CF911F910F91FF90EF90DF90FB
:101BB000CF90BF90AF909F908F907F906F905F90ED
:101BC0003F902F900895DF92EF92FF920F931F9313
:101BD000CF93DF93FC01E058FF4FD080DD2009F464
:101BE0005CC0319600811181D8011196FC9011974B
:101BF000EC90EC01C05CDF4F88819981009709F47B
:101C00004CC0DC01ED91FC910190F081E02D60EF82
:101C1000099588819981DC01ED91FC910190F08119
:101C2000E02D69E7099588819981DC01ED91FC91AE
:101C30000190F081E02D6E2D099588819981DC015C
:101C4000ED91FC910190F081E02D6F2D09957801C7
:101C5000B2E0EB0EF11C0D0D111DE016F10661F066
:101C600020E030E0A70161E070E0CE010E943C0D71
:101C7000EFEFEE1AFE0AF1CF88819981DC01ED9138
:101C8000FC910190F081E02D67EFDF91CF911F91E2
:101C90000F91FF90EF90DF900994DF91CF911F910A
:101CA0000F91FF90EF90DF900895009711F00C9442
:101CB000E30D08951F920F920FB60F9211242F93E8
:101CC0003F934F935F936F937F938F939F93AF93C4
:101CD000BF93EF93FF938091B900887F803609F41A
:101CE0009CC068F5883209F45BC090F4803109F437
:101CF00054C038F4882309F4F6C0883009F44DC084
:101D0000F6C0883109F44CC0803209F45DC0EFC0E0
:101D1000803409F468C048F4803309F455C088332E
:101D200009F0E5C080939F03D8C0803509F44FC007
:101D3000883509F45DC0883409F0D9C0D6C0883927
:101D400009F4C7C0A8F4883709F467C038F48836A6
:101D500009F463C0803709F460C0C9C0883809F449
:101D6000B8C0803909F45FC0803809F0C0C05BC0DA
:101D7000803B09F486C038F4803A09F466C0883A9A
:101D800009F47FC0B4C0803C09F4A7C0883C09F4C2
:101D9000A4C0883B09F48AC0AAC080917C0310C00B
:101DA00090919E0380919D03981770F5E0919E039A
:101DB00081E08E0F80939E03F0E0E358FC4F80811A
:101DC0008093BB0085EC86C080939F038EC0E0911A
:101DD0009E0381E08E0F80939E038091BB00F0E014
:101DE000E358FC4F808390919E0380919D036EC0C9
:101DF000E0919E0381E08E0F80939E038091BB0053
:101E0000F0E0E358FC4F80838091A00381116DC006
:101E100081E080937B0384EA61C083E08093A10327
:101E200010927A03CFCF80917A03803208F051C0AC
:101E3000E0917A0381E08E0F80937A038091BB005A
:101E4000F0E0E65AFC4F8083BDCF85EC8093BC0068
:101E50001092A10380917A03803230F4E0917A03EA
:101E6000F0E0E65AFC4F108260917A0370E0E09156
:101E70005803F09159038AE593E0099510927A038B
:101E800036C084E08093A10310925703109256034A
:101E9000E0915403F0915503099580915603811107
:101EA00005C081E08093560310923403E0915703FC
:101EB00081E08E0F80935703F0E0EC5CFC4F808153
:101EC0008093BB009091570380915603981708F4B4
:101ED00079CF85E88093BC000AC085EC8093BC0074
:101EE0001092A10304C010929F030E94570AFF9111
:101EF000EF91BF91AF919F918F917F916F915F9182
:101F00004F913F912F910F900FBE0F901F901895FA
:101F1000DF92EF92FF920F931F93CF93DF93EC0129
:101F2000D62E7A01890188818C3008F06AC061E080
:101F30008D2D0E94E9138881E82FF0E09F01220F88
:101F4000331FE20FF31FE15DFA4F9D2D9F73208138
:101F5000207CD22ED92AD08260E272E0AB014E19E9
:101F60005F0957FF02C04D5F5F4F559547955595E7
:101F70004795498340E659E09A01201B310B37FF12
:101F800002C02D5F3F4F35952795359527952A83BC
:101F90006CE00E94561B9CE0899FB001112440E038
:101FA00050E09A01260F371FF901EE0FFF1F2E0F89
:101FB0003F1FF901E15DFA4F908196FD16C04F5F1A
:101FC0005F4F4C30510569F781110FC010928000AE
:101FD00082E0809381001092850010928400B19A73
:101FE00080916F00826080936F00E881F0E0CF0104
:101FF000880F991FE80FF91FE15DFA4F8081806417
:1020000080838881DF91CF911F910F91FF90EF9096
:10201000DF9008951F920F920FB60F9211242F9305
:102020003F934F935F936F937F938F939F93AF9360
:10203000BF93EF93FF938091330387FF05C0109206
:102040008500109284001BC020913303022E000CE7
:10205000330B8091530590E02817390784F4809161
:102060003303082E000C990BFC01EE0FFF1F8E0F9F
:102070009F1FFC01E15DFA4F808186FD15C08091B4
:1020800033038F5F8093330320913303022E000CC0
:10209000330B8091530590E028173907C4F48091E1
:1020A00033038C3064F113C080913303082E000C8D
:1020B000990BFC01EE0FFF1F8E0F9F1FFC01E15DCE
:1020C000FA4F808160E08F730E949D13D8CF80917A
:1020D000840090918500049680349C4918F480E433
:1020E0009CE905C0809184009091850004969093AE
:1020F0008900809388008FEF809333033BC0209149
:1021000084003091850080913303082E000C990BD8
:10211000FC01EE0FFF1F8E0F9F1FFC01E15DFA4FC8
:1021200081819281820F931F909389008093880010
:1021300080913303082E000C990BFC01EE0FFF1F5A
:102140008E0F9F1FFC01E15DFA4F808186FF12C058
:1021500080913303082E000C990BFC01EE0FFF1F3A
:102160008E0F9F1FFC01E15DFA4F808161E08F734C
:102170000E949D13FF91EF91BF91AF919F918F911D
:102180007F916F915F914F913F912F910F900FBE73
:102190000F901F9018951F93CF93DF9300D0CDB76A
:1021A000DEB7182F7A8369838091A3049091A404E9
:1021B000009709F44EC0DC01ED91FC911031A8F4B8
:1021C0006115704490F4612F606E0190F081E02DF4
:1021D000099522E030E0AE014F5F5F4F62E070E0B2
:1021E00083EA94E00E943C0D34C00190F081E02D20
:1021F00060EF09958091A3049091A404DC01ED9116
:10220000FC910190F081E02D6FE609958091A30487
:102210009091A404DC01ED91FC910190F081E02DFE
:10222000612F099522E030E0AE014F5F5F4F62E021
:1022300070E083EA94E00E943C0D8091A3049091A9
:10224000A404DC01ED91FC910190F081E02D67EF99
:1022500009950F900F90DF91CF911F910895EF9204
:10226000FF920F931F93CF93DF93C82F8091A30406
:102270009091A4040097C9F17A018B01DC01ED91E2
:10228000FC910190F081E02D60EF09958091A3040D
:102290009091A404DC01ED91FC910190F081E02D7E
:1022A0006C2F0995E7010E0D1F1DC017D10759F0BE
:1022B00020E030E0AE0161E070E083EA94E00E944B
:1022C0003C0D2196F2CF8091A3049091A404DC01EF
:1022D000ED91FC910190F081E02D67EFDF91CF91BE
:1022E0001F910F91FF90EF900994DF91CF911F9173
:1022F0000F91FF90EF900895FC0101900020E9F705
:102300003197BF01681B790BAC0181E70C942F1149
:10231000382F2091C5039091C403213208F049C0A1
:102320008091A1038111FCCF42E04093A10330933F
:10233000A0033FEF30939F0310929E0320939D03D1
:10234000A4EAB3E04DE753E0FA013E2F341B321705
:1023500018F43D913193F9CF10927C0320917C03C6
:10236000990F922B90937C0390917B03913061F4B1
:1023700010927B0390917C039093BB009091BC00E2
:1023800093FDF8CF95EC01C095EE9093BC00909131
:10239000A1039230E1F390919F039F3F79F08091E8
:1023A0009F03803241F080919F03803331F084E0BD
:1023B00005C081E003C082E001C083E01092A30366
:1023C0001092C5031092A2030895A091E104B09168
:1023D000E204ED91FC9111970190F081E02D682FBE
:1023E000CD0109941F93CF93DF93182FEB018091B8
:1023F000A8049091A9046817790748F46091A6048D
:102400007091A704C60FD71F188380E018C0E09111
:10241000D504F091D604309711F481E010C081E02A
:102420008093A5048091C1049091C2040995809184
:10243000A8049091A904C817D90778F7DFCFDF91D6
:10244000CF911F910895CF93DF93EC01FB0120E022
:1024500030E0CF01861B970B2C173D0778F4DB018A
:10246000A20FB31F9C91908311964C9147954427DE
:102470004795942B91932E5F3F4FEBCFDF91CF91F8
:102480000895CF92DF92EF92FF920F931F93CF9315
:10249000DF93EC016A017B01E889F98982E080839E
:1024A0004115514E61057105B1F060E079E08DE3B1
:1024B00090E0A70196010E94031D89019A01015035
:1024C0001109210931093695279517950795980126
:1024D00001151041A8F0E889F989108260E874E8D4
:1024E0008EE190E0A70196010E94031DDA01C90167
:1024F0000197A109B109B695A795979587959C0174
:10250000EC85FD853083EE85FF852083188EEC8970
:10251000FD8986E08083EA89FB89808180618083F0
:10252000EA89FB89808188608083EA89FB898081D0
:1025300080688083EA89FB8980818F7D8083DF9139
:10254000CF911F910F91FF90EF90DF90CF90089562
:10255000CF93DF93FC01A081B181109701F1EC01D1
:10256000ED91FC9111970190F081E02D69EFCD0183
:10257000099588819981DC01ED91FC910190F081B0
:10258000E02D62E0099588819981DC01ED91FC9153
:102590000190F081E02D65E0DF91CF910994DF910A
:1025A000CF9108953FB7F8948091E6059091E705A3
:1025B000A091E805B091E90526B5A89B05C02F3F7D
:1025C00019F00196A11DB11D3FBFBA2FA92F982F59
:1025D0008827820F911DA11DB11DBC01CD0142E0D4
:1025E000660F771F881F991F4A95D1F7089520918C
:1025F000DD023091DE022817390771F49091E4056D
:102600008091E305981741F0E091E405F0E0ED5585
:10261000FA4F808190E008958FEF9FEF089508951D
:102620001F93CF93DF93DC015C962D913C915D97D6
:102630002115310539F481E090E013969C938E9337
:1026400012973DC05196ED91FC91529750969C91F6
:102650005097892F80951FB75E964C915E9741FBEE
:10266000772770F941FD6095F8944081772311F048
:10267000492B01C048234083E9012197F1F748E045
:10268000508160FF02C0592B01C058235083E901DB
:102690002197F1F76695415099F7772321F09081C2
:1026A0008923808303C08081982B90831FBF5C9611
:1026B0008D919C915D970197F1F721E030E0C90180
:1026C000DF91CF911F9108952091DD023091DE02BC
:1026D0002817390771F48091E3052091E40590E013
:1026E000805C9F4F821B910960E470E00E94621B36
:1026F000089580E090E008952091DD023091DE029F
:1027000028173907B9F49091E4058091E3059817EB
:1027100089F0E091E405F0E0ED55FA4F80812091D9
:10272000E40530E02F5F3F4F2F7333272093E405FC
:1027300090E008958FEF9FEF089590E0FC01E45042
:10274000FF4F3491FC01E851FF4F2491FC01EC5202
:10275000FF4FE491EE2309F43BC0332339F13330CA
:1027600091F038F43130A9F0323001F584B58F7D25
:1027700012C0373091F03830A1F03430B9F4809184
:1027800080008F7D03C0809180008F7780938000D0
:102790000DC084B58F7784BD09C08091B0008F775C
:1027A00003C08091B0008F7D8093B000F0E0EE0F09
:1027B000FF1FE653FF4FA591B4918FB7F894EC91AA
:1027C000611103C020952E2301C02E2B2C938FBFA7
:1027D0000895CF93DF9390E0FC01E851FF4F2491DF
:1027E000FC01EC52FF4F8491882361F190E0880F47
:1027F000991FFC01E054FF4FC591D491FC01E653B1
:10280000FF4FA591B491611109C09FB7F8948881D9
:10281000209582238883EC912E230BC0623061F4D3
:102820009FB7F8943881822F809583238883EC9119
:102830002E2B2C939FBF06C08FB7F894E8812E2BC8
:1028400028838FBFDF91CF9108958E3008F08E508E
:102850008770806480937C0080917A00806480938C
:102860007A0080917A0086FDFCCF809178002091DB
:10287000790090E0922B08958F929F92AF92BF9231
:10288000CF92DF92EF92FF926B017C010E94D212F5
:102890004B015C01C114D104E104F104F1F00E9488
:1028A000D212DC01CB0188199909AA09BB09883E1B
:1028B0009340A105B10570F321E0C21AD108E108E7
:1028C000F10888EE880E83E0981EA11CB11CC1148B
:1028D000D104E104F10419F7DDCFFF90EF90DF9010
:1028E000CF90BF90AF909F908F9008951F920F92BE
:1028F0000FB60F9211242F933F938F939F93AF9313
:10290000BF938091D9029091DA02A091DB02B0913D
:10291000DC023091E50523E0230F2D3720F40196EA
:10292000A11DB11D05C026E8230F0296A11DB11DF2
:102930002093E5058093D9029093DA02A093DB02FD
:10294000B093DC028091E6059091E705A091E8053F
:10295000B091E9050196A11DB11D8093E605909304
:10296000E705A093E805B093E905BF91AF919F916A
:102970008F913F912F910F900FBE0F901F90189540
:102980000F931F93CF93DF93EC01162F042F1B821D
:102990001A8288EE93E0A0E0B0E08C839D83AE8342
:1029A000BF8385E591E0998388831F8A1E8A198EEB
:1029B000188E1B8E1A8E1D8E1C8E6E8D6E7F20FBC8
:1029C00061F96E8F6695617081E06827842F0E949F
:1029D0009D1361E0802F0E94E913402F50E0FA011F
:1029E000E851FF4FE491E88BFA01EC52FF4FE4917C
:1029F000F0E0EE0FFF1FE653FF4F859194919A8B05
:102A0000898B60E0812F0E94E9138E8D81FD04C0C7
:102A100061E0812F0E949D131C87612F70E0FB01F4
:102A2000E851FF4FE491ED87FB01EC52FF4FE49139
:102A3000F0E0EE0FFF1FEA54FF4F859194919F87BE
:102A40008E87DF91CF911F910F9108951F920F9262
:102A50000FB60F9211242F933F934F935F936F9371
:102A60007F938F939F93AF93BF93EF93FF93E091E7
:102A7000DD02F091DE02309709F451C0968DA685F3
:102A8000B785858591FF04C09C91892329F447C0AF
:102A90009C91892309F043C0A389B4899C918589BD
:102AA000809589238C93868997890197F1F7608DAA
:102AB000718DA685B785558538E020E0CB0101975B
:102AC000F1F7822F90E095958795282F4C9145231B
:102AD00009F02068315091F7868D81FD2095809115
:102AE000E30590E001968F7399273091E40538173C
:102AF00049F0A091E305B0E0AD55BA4F2C93809317
:102B0000E30503C0868D8160868F828D938D01974A
:102B1000F1F7A389B4899C918589892B8C93FF91C6
:102B2000EF91BF91AF919F918F917F916F915F9145
:102B30004F913F912F910F900FBE0F901F901895BE
:102B4000E091DD02F091DE02E817F90769F4A3894C
:102B5000B4899C918589809589238C931092DE029B
:102B60001092DD0281E0089580E00895CF93DF9315
:102B7000EC018A8D9B8D892BF1F08091DD02909183
:102B8000DE028C179D07B9F0009711F00E94A01586
:102B90008E8D8E7F8E8F1092E3051092E405D09378
:102BA000DE02C093DD02EB89FC8990818D89892B3F
:102BB000808381E001C080E0DF91CF910895FC0126
:102BC000693069F028F4683081F483A194A10895F4
:102BD0006A3041F06B3049F481A592A5089585A132
:102BE00096A1089587A190A5089580E090E00895AA
:102BF0001F93CF93DF93EC0118E0612FCE010E9469
:102C0000DF15009711F00E94251C1F5F1C30A9F7EB
:102C10008FEF8AA3FE013A96A29611921192EC17B9
:102C2000FD07D9F7DF91CF911F910895789484B56E
:102C3000826084BD84B5816084BD85B5826085BDB8
:102C400085B5816085BD80916E00816080936E0046
:102C50001092810080918100826080938100809138
:102C600081008160809381008091800081608093E9
:102C700080008091B10084608093B1008091B000A9
:102C800081608093B00080917A00846080937A00A4
:102C900080917A00826080937A0080917A008160CE
:102CA00080937A0080917A00806880937A001092F5
:102CB000C10089E18093E3048091E4049091E504EC
:102CC0000E94251CC091E304D0E0CE0101960E9431
:102CD000901B9093E5048093E404FC01EC0FFD1F2E
:102CE000108222E0DC012C9325E011962C93AE019A
:102CF0004250510964E272E002960E94C21C8CECC0
:102D000091E09093CE028093CD0280E391E0909386
:102D1000CC028093CB028BEF90E09093CA02809319
:102D2000C90286E495E09093C8028093C70284E3C9
:102D300093E09093C6028093C50286EE90E0909354
:102D4000C4028093C3028BE296E09093D0028093FA
:102D5000CF0285EB94E09093D2028093D10281E080
:102D60008093220540E051EE60E070E086EC93E055
:102D70000E94411280912205811150C061E08DE0D6
:102D80000E94E91362ED70E080E090E00E943C1444
:102D900061E08DE00E949D1368E270E080E090E0C9
:102DA0000E943C1460E08DE00E949D1362ED70E093
:102DB00080E090E00E943C1461E08DE00E949D1351
:102DC00068E270E080E090E00E943C1460E08DE0FA
:102DD0000E949D136AEF70E080E090E00E943C1436
:102DE000C0E062ED70E080E090E00E943C1461E0A1
:102DF0008DE00E949D1368E270E080E090E00E9408
:102E00003C1460E08DE00E949D13CF5FC53049F710
:102E10006DE770E080E090E00E943C1486EC93E067
:102E20009093E2048093E1049093A4048093A3041C
:102E300083EA94E00E94A81283E694E00E94E30DE6
:102E40000E94B504DD24D39402E010E0EE24E39464
:102E5000F12C35E0C32E8091D602882349F069B168
:102E60008091D30268236C7F40E080E00E940405DB
:102E70008091D702882379F063B196B1B0E49B9F2B
:102E8000C00111246F73862B6091D402682340E047
:102E900081E00E9404058091D8028823E1F066B1A8
:102EA0006C73669566958091D502682340E082E058
:102EB0000E94040510C08091E1049091E204DC01BD
:102EC000ED91FC910680F781E02D09959C018F3FE3
:102ED000BFEF9B0771F48091E1049091E204DC0163
:102EE000ED91FC910480F581E02D0995892B19F76E
:102EF000BEC1982F8091AE04882309F492C0973FF9
:102F000009F07EC01092AE04A091A604B091A7046F
:102F10006C916137C1F1693709F05CC0E091DB0465
:102F2000F091DC043097B9F28091AF049091B00435
:102F30008330910538F420E030E040E050E060E07C
:102F400070E01BC0BD016D5F7F4F03970E9423128D
:102F5000BC016D5F7F4F80E00E94F211E091A604FA
:102F6000F091A7049F012D5F3F4F428150E06181A6
:102F700070E0E091DB04F091DC048091BD0490915D
:102F8000BE040995A8CF8091D7049091D804892BCD
:102F900009F4A1CFBD016F5F7F4F8091AF04909185
:102FA000B00401970E942312BC016F5F7F4F80E045
:102FB0000E94F2116091A6047091A7046F5F7F4F89
:102FC000E091D704F091D8048091C3049091C40497
:102FD000099581CFE091D904F091DA04309709F492
:102FE0007ACF9D012F5F3F4F4091AF045091B004C5
:102FF000415051098091C5049091C60409956BCF49
:103000006091AF047091B004822F0E94F211809100
:10301000AF049091B00401969093B0048093AF04F4
:103020005ACF6091AC047091AD046115710509F43B
:10303000AFC027FDADC0615071097093AD046093BE
:10304000AC04822F0E94F2118091AC049091AD04E7
:10305000892B09F040CF8091AA04882309F43BCF43
:10306000803D09F47FC030F4803939F1803C09F4A7
:1030700066C08BC0843FE1F1853F09F44DC0803EBE
:1030800009F083C0E091C904F091CA04309709F4B3
:103090007CC0A091A604B091A7048C9111964C918C
:1030A00050E020E8829F400D511D11246091AB0437
:1030B0008091B1049091B20467C0E091CB04F0918B
:1030C000CC04309709F461C0A091A604B091A70484
:1030D0008C9111964C9150E090E8899F400D511DC4
:1030E00011246091AB048091B3049091B4044CC05E
:1030F000E091D104F091D204309709F446C0A09138
:10310000A604B091A7044C9150E011966C91809167
:10311000B9049091BA0438C0E091D304F091D4047A
:10312000309799F1A091A604B091A7044C9150E07A
:1031300011966C918091BB049091BC0425C0E091E4
:10314000CD04F091CE04309701F1A091A604B09186
:10315000A7044C9150E06091AB048091B50490912C
:10316000B60412C0E091CF04F091D004309769F01A
:10317000A091A604B091A7044C9150E06091AB04DB
:103180008091B7049091B80409951092AA04A3CE37
:10319000903F30F4822F8F708093AB04922F907FFA
:1031A000903F79F158F4903C29F118F49039E9F006
:1031B00092CE903DF9F0903EC1F08DCE993F09F44A
:1031C00049C028F48CE0890F823078F084CE9F3F8C
:1031D00009F081CE1092AD041092AC041092AA04B2
:1031E0001092AB0480E090E013C01093AD04009304
:1031F000AC0404C0F092AD04E092AC049093AA0435
:103200006ACED092AE041092B0041092AF0463CE96
:103210002091A8043091A9048217930748F4E09103
:10322000A604F091A704E80FF91F10820196F0CFD1
:103230001092AE041092B0041092AF04E091DF043B
:10324000F091E004309709F446CE8091C704909144
:10325000C8040BC0E091DD04F091DE04309709F45E
:103260003ACE8091BF049091C004099534CE8FB7B7
:10327000F8948090D9029090DA02A090DB02B0908E
:10328000DC028FBF80920D0390920E03A0920F0379
:10329000B09210038091090390910A03A0910B034F
:1032A000B0910C03409101015091020160E070E087
:1032B000881A990AAA0ABB0A481559056A057B05A6
:1032C00030F080919A0587FD7DC0812C65C0840F08
:1032D000951FA61FB71F8093090390930A03A0931D
:1032E0000B03B0930C0396EEA92E94E0B92EC2EF17
:1032F000C630B8F4F5018081823099F480910703DB
:10330000909108030C2E02C0959587950A94E2F7D8
:1033100080FF07C08C2F0E942514BC018C2F0E94B7
:10332000CB10CF5FFFEFAF1ABF0AC63009F780910D
:10333000000187FDC6CFC0E02C2F30E08091000156
:10334000082E000C990B821793070CF4BACFC29E7B
:10335000F001C39EF00D1124E152FD4F6181728195
:103360002481438180810E946D05CF5FE5CFFC0100
:10337000E858FA4F9280E92DF0E0EE0FFF1FEE576C
:10338000FA4FA080B180692D88E795E00E94DF1593
:10339000EC01892B61F48394882D90E020919A05AB
:1033A000022E000C330B281739070CF70BC027E04F
:1033B000291558F48091DD029091DE02C817D907D3
:1033C00051F703C00E94910946CDE881F98104803C
:1033D000F581E02DCE01099518161906E4F680EF67
:1033E0000E94E51180E60E94E511892D80640E940B
:1033F000E511A114B10451F0E881F9810480F5814F
:10340000E02DCE010995A816B90644F0E881F981AE
:103410000480F581E02DCE0109955C011A141B048E
:10342000ACF4E881F9810680F781E02DCE010995A1
:10343000982E8F770E94E511892D881F8827881F75
:103440000E94E51181E0A81AB108E8CF87EF0E9439
:10345000E511A1CF1092C9031092C80348EE53E0C2
:1034600060E070E04093CA035093CB036093CC03B9
:103470007093CD0381E191E09093C7038093C603DD
:1034800085EC90E09093D3038093D20384EC90E09A
:103490009093D5038093D40380EC90E09093D7036E
:1034A0008093D60381EC90E09093D9038093D80366
:1034B00082EC90E09093DB038093DA0386EC90E05B
:1034C0009093DD038093DC031092DF031092E003FE
:1034D0001092E1031092E20383E694E01092A404B8
:1034E0001092A3049093A7048093A60420E430E0F4
:1034F0003093A9042093A8041092AA041092AB045C
:103500001092AD041092AC041092AE041092B0046C
:103510001092AF041092B2041092B1041092B4044D
:103520001092B3041092B6041092B5041092B8042D
:103530001092B7041092BA041092B9041092BC040D
:103540001092BB041092C2041092C1041092C404E1
:103550001092C3041092C6041092C5041092C804BD
:103560001092C7041092D6041092D5041092A504AC
:103570001092E3041092E5041092E40410922205E4
:103580002DE43AE03093CA042093C90423E43AE0DE
:103590003093CC042093CB0425E23AE03093CE0460
:1035A0002093CD042BE13AE03093D0042093CF0454
:1035B00029E33AE03093D2042093D1042FE23AE099
:1035C0003093D4042093D3042AE13AE03093D80412
:1035D0002093D7042FE03AE03093DA042093D90403
:1035E00025E53EE03093DC042093DB049093BE0499
:1035F0008093BD0425E33DE03093DE042093DD0499
:103600009093C0048093BF0487E09AE09093E00415
:103610008093DF041092260510922505409327051C
:10362000509328056093290570932A0581E291E063
:10363000909324058093230589E491E09093790584
:103640008093780510929C0510929B0510929E0520
:1036500010929D051092A00510929F051092A20550
:103660001092A1058FEF80939A0580915305A4E5F0
:10367000B5E09FEF48EB5BE08C3078F48C93282F1B
:1036800030E0F901EE0FFF1F2E0F3F1FF901E15D42
:10369000FA4F528341838F5F01C09C93139625E0BC
:1036A000A837B20749F7809353050895991B79E02D
:1036B00004C0991F961708F0961B881F7A95C9F7C2
:1036C0008095089597FB072E16F4009407D077FD98
:1036D00009D00E947C1B07FC05D03EF49095819593
:1036E0009F4F0895709561957F4F0895EE0FFF1FCE
:1036F0000590F491E02D0994AA1BBB1B51E107C072
:10370000AA1FBB1FA617B70710F0A61BB70B881F71
:10371000991F5A95A9F780959095BC01CD01089500
:10372000CF93DF938230910510F482E090E0E09136
:10373000EC05F091ED0520E030E0C0E0D0E03097FE
:1037400011F14081518148175907C0F048175907B6
:1037500061F482819381209719F09B838A832BC027
:103760009093ED058093EC0526C02115310519F0E5
:103770004217530718F49A01BE01DF01EF010280DE
:10378000F381E02DDCCF2115310509F1281B390B20
:103790002430310590F412968D919C911397611508
:1037A000710521F0FB019383828304C09093ED05A2
:1037B0008093EC05FD01329644C0FD01E20FF31F3A
:1037C00081939193225031092D933C933AC02091DB
:1037D000EA053091EB05232B41F42091050130914E
:1037E00006013093EB052093EA0520910301309107
:1037F00004012115310541F42DB73EB74091070171
:1038000050910801241B350BE091EA05F091EB057E
:10381000E217F307A0F42E1B3F0B2817390778F0A7
:10382000AC014E5F5F4F2417350748F04E0F5F1F06
:103830005093EB054093EA058193919302C0E0E039
:10384000F0E0CF01DF91CF9108950F931F93CF93B5
:10385000DF93009709F48CC0FC0132971382128227
:103860000091EC051091ED050115110581F4208101
:103870003181820F931F2091EA053091EB052817C3
:10388000390779F5F093EB05E093EA0571C0D801AB
:1038900040E050E0AE17BF0750F412962D913C91D6
:1038A0001397AD012115310509F1D901F3CF9D0120
:1038B000DA013383228360817181860F971F82171B
:1038C000930769F4EC0128813981260F371F2E5F99
:1038D0003F4F318320838A819B8193838283452B51
:1038E00029F4F093ED05E093EC0542C01396FC93A8
:1038F000EE931297ED01499159919E01240F351FC6
:10390000E217F30771F480819181840F951F02966D
:1039100011969C938E938281938113969C938E93A0
:103920001297E0E0F0E0D80112968D919C911397E8
:10393000009719F0F8018C01F6CF8D919C919801B8
:103940002E5F3F4F820F931F2091EA053091EB05C8
:103950002817390769F4309729F41092ED05109271
:10396000EC0502C0138212821093EB050093EA0566
:10397000DF91CF911F910F91089581E090E0F8942D
:103980000C94341DFB01DC014150504048F0019083
:103990000D920020C9F701C01D9241505040E0F740
:1039A0000895052E97FB1EF400940E94E81C57FD15
:1039B00007D00E94031D07FC03D04EF40C94E81CB2
:1039C00050954095309521953F4F4F4F5F4F08954B
:1039D00090958095709561957F4F8F4F9F4F08957B
:1039E0000E94251DA59F900DB49F900DA49F800D52
:1039F000911D11240895B7FF0C94F01C0E94F01C37
:103A0000821B930B0895A1E21A2EAA1BBB1BFD017A
:103A10000DC0AA1FBB1FEE1FFF1FA217B307E407AD
:103A2000F50720F0A21BB30BE40BF50B661F771F05
:103A3000881F991F1A9469F76095709580959095E5
:103A40009B01AC01BD01CF010895A29FB001B39FBE
:103A5000C001A39F700D811D1124911DB29F700D97
:0C3A6000811D1124911D0895F894FFCFE2
:103A6C00FF13000000EE05800001000000000000C4
:103A7C00002809A408F108CF08E3086F090000002A
:103A8C0000E50AB50AAD0A990A8A0A890A000000FB
:103A9C00009B09A4089B099B099B099B090000003A
:103AAC00009B09A40800000000F509F609140BF8A6
:103ABC0015000000001013A40864137C13F7120FF8
:103ACC00134D617820736572766F73206174746125
:103ADC006368656400556E6B6E6F776E2070696EEF
:103AEC00206D6F6465004932433A20546F6F206D2E
:103AFC00616E79206279746573207265636569768D
:103B0C006564004932433A20546F6F206665772014
:103B1C0062797465732072656365697665640031DA
:103B2C00302D6269742061646472657373696E67A9
:103B3C00206E6F7420737570706F7274656400748E
:103B4C006F6F206D616E7920717565726965730098
:103B5C002F55736572732F6F6C697669657262721B
:103B6C007565636B6E65722F4465736B746F702F24
:103B7C005374616E646172644669726D61746150F4
:103B8C006C75732F5374616E646172644669726DE7
:103B9C00617461506C75732E696E6F005370656340
:103BAC006966792073657269616C20525820616E68
:0A3BBC00642054582070696E7300F5
:00000001FF
